ARM GAS  C:\Users\dmarsch\AppData\Local\Temp\ccFGZXwh.s 			page 1


   1              		.syntax unified
   2              		.cpu cortex-m3
   3              		.fpu softvfp
   4              		.eabi_attribute 20, 1
   5              		.eabi_attribute 21, 1
   6              		.eabi_attribute 23, 3
   7              		.eabi_attribute 24, 1
   8              		.eabi_attribute 25, 1
   9              		.eabi_attribute 26, 1
  10              		.eabi_attribute 30, 1
  11              		.eabi_attribute 34, 1
  12              		.eabi_attribute 18, 4
  13              		.thumb
  14              		.syntax unified
  15              		.file	"cymetadata.c"
  16              		.text
  17              	.Ltext0:
  18              		.cfi_sections	.debug_frame
  19              		.global	cy_metadata
  20              		.global	cy_meta_flashprotect
  21              		.global	cy_meta_wonvl
  22              		.global	cy_meta_custnvl
  23              		.global	cy_meta_configecc
  24              		.section	.cyconfigecc,"a",%progbits
  25              		.align	2
  26              		.type	cy_meta_configecc, %object
  27              		.size	cy_meta_configecc, 32
  28              	cy_meta_configecc:
  29 0000 02       		.byte	2
  30 0001 45       		.byte	69
  31 0002 00       		.byte	0
  32 0003 40       		.byte	64
  33 0004 18       		.byte	24
  34 0005 01       		.byte	1
  35 0006 19       		.byte	25
  36 0007 01       		.byte	1
  37 0008 00       		.byte	0
  38 0009 0B       		.byte	11
  39 000a 0B       		.byte	11
  40 000b 00       		.byte	0
  41 000c 00       		.byte	0
  42 000d 00       		.byte	0
  43 000e 00       		.byte	0
  44 000f 00       		.byte	0
  45 0010 00       		.byte	0
  46 0011 7F       		.byte	127
  47 0012 7F       		.byte	127
  48 0013 00       		.byte	0
  49 0014 00       		.byte	0
  50 0015 00       		.byte	0
  51 0016 00       		.byte	0
  52 0017 00       		.byte	0
  53 0018 03       		.byte	3
  54 0019 03       		.byte	3
  55 001a 00       		.byte	0
  56 001b 00       		.byte	0
  57 001c 00       		.byte	0
ARM GAS  C:\Users\dmarsch\AppData\Local\Temp\ccFGZXwh.s 			page 2


  58 001d 00       		.byte	0
  59 001e 00       		.byte	0
  60 001f 00       		.byte	0
  61              		.section	.cywolatch,"a",%progbits
  62              		.align	2
  63              		.type	cy_meta_wonvl, %object
  64              		.size	cy_meta_wonvl, 4
  65              	cy_meta_wonvl:
  66 0000 BC       		.byte	-68
  67 0001 90       		.byte	-112
  68 0002 AC       		.byte	-84
  69 0003 AF       		.byte	-81
  70              		.section	.cycustnvl,"a",%progbits
  71              		.align	2
  72              		.type	cy_meta_custnvl, %object
  73              		.size	cy_meta_custnvl, 4
  74              	cy_meta_custnvl:
  75 0000 00       		.byte	0
  76 0001 00       		.byte	0
  77 0002 40       		.byte	64
  78 0003 05       		.byte	5
  79              		.section	.cymeta,"a",%progbits
  80              		.align	2
  81              		.type	cy_metadata, %object
  82              		.size	cy_metadata, 12
  83              	cy_metadata:
  84 0000 00       		.byte	0
  85 0001 01       		.byte	1
  86 0002 2E       		.byte	46
  87 0003 16       		.byte	22
  88 0004 10       		.byte	16
  89 0005 69       		.byte	105
  90 0006 00       		.byte	0
  91 0007 01       		.byte	1
  92 0008 00       		.byte	0
  93 0009 00       		.byte	0
  94 000a 00       		.byte	0
  95 000b 00       		.byte	0
  96              		.section	.cyflashprotect,"a",%progbits
  97              		.align	2
  98              		.type	cy_meta_flashprotect, %object
  99              		.size	cy_meta_flashprotect, 256
 100              	cy_meta_flashprotect:
 101 0000 00000000 		.space	256
 101      00000000 
 101      00000000 
 101      00000000 
 101      00000000 
 102              		.text
 103              	.Letext0:
 104              		.file 1 "c:\\program files (x86)\\cypress\\psoc creator\\4.2\\psoc creator\\import\\gnu\\arm\\5.4.
 105              		.file 2 "c:\\program files (x86)\\cypress\\psoc creator\\4.2\\psoc creator\\import\\gnu\\arm\\5.4.
 106              		.file 3 "Generated_Source\\PSoC5\\cymetadata.c"
