ARM GAS  C:\Users\dmarsch\AppData\Local\Temp\ccqopW1v.s 			page 1


   1              		.syntax unified
   2              		.cpu cortex-m3
   3              		.fpu softvfp
   4              		.eabi_attribute 20, 1
   5              		.eabi_attribute 21, 1
   6              		.eabi_attribute 23, 3
   7              		.eabi_attribute 24, 1
   8              		.eabi_attribute 25, 1
   9              		.eabi_attribute 26, 1
  10              		.eabi_attribute 30, 1
  11              		.eabi_attribute 34, 1
  12              		.eabi_attribute 18, 4
  13              		.thumb
  14              		.syntax unified
  15              		.file	"cyPm.c"
  16              		.text
  17              	.Ltext0:
  18              		.cfi_sections	.debug_frame
  19              		.section	.text.CyPmHibSlpSaveSet,"ax",%progbits
  20              		.align	2
  21              		.thumb
  22              		.thumb_func
  23              		.type	CyPmHibSlpSaveSet, %function
  24              	CyPmHibSlpSaveSet:
  25              	.LFB12:
  26              		.file 1 "Generated_Source\\PSoC5\\cyPm.c"
   1:Generated_Source\PSoC5/cyPm.c **** /***************************************************************************//**
   2:Generated_Source\PSoC5/cyPm.c **** * \file cyPm.c
   3:Generated_Source\PSoC5/cyPm.c **** * \version 5.70
   4:Generated_Source\PSoC5/cyPm.c **** *
   5:Generated_Source\PSoC5/cyPm.c **** * \brief Provides an API for the power management.
   6:Generated_Source\PSoC5/cyPm.c **** *
   7:Generated_Source\PSoC5/cyPm.c **** * \note Documentation of the API's in this file is located in the
   8:Generated_Source\PSoC5/cyPm.c **** *  System Reference Guide provided with PSoC Creator.
   9:Generated_Source\PSoC5/cyPm.c **** *
  10:Generated_Source\PSoC5/cyPm.c **** ********************************************************************************
  11:Generated_Source\PSoC5/cyPm.c **** * \copyright
  12:Generated_Source\PSoC5/cyPm.c **** * Copyright 2008-2018, Cypress Semiconductor Corporation.  All rights reserved.
  13:Generated_Source\PSoC5/cyPm.c **** * You may use this file only in accordance with the license, terms, conditions,
  14:Generated_Source\PSoC5/cyPm.c **** * disclaimers, and limitations in the end user license agreement accompanying
  15:Generated_Source\PSoC5/cyPm.c **** * the software package with which this file was provided.
  16:Generated_Source\PSoC5/cyPm.c **** *******************************************************************************/
  17:Generated_Source\PSoC5/cyPm.c **** 
  18:Generated_Source\PSoC5/cyPm.c **** #include "cyPm.h"
  19:Generated_Source\PSoC5/cyPm.c **** #include "cyapicallbacks.h"
  20:Generated_Source\PSoC5/cyPm.c **** 
  21:Generated_Source\PSoC5/cyPm.c **** 
  22:Generated_Source\PSoC5/cyPm.c **** /*******************************************************************
  23:Generated_Source\PSoC5/cyPm.c **** * Place your includes, defines, and code here. Do not use the merge
  24:Generated_Source\PSoC5/cyPm.c **** * region below unless any component datasheet suggests doing so.
  25:Generated_Source\PSoC5/cyPm.c **** *******************************************************************/
  26:Generated_Source\PSoC5/cyPm.c **** /* `#START CY_PM_HEADER_INCLUDE` */
  27:Generated_Source\PSoC5/cyPm.c **** 
  28:Generated_Source\PSoC5/cyPm.c **** /* `#END` */
  29:Generated_Source\PSoC5/cyPm.c **** 
  30:Generated_Source\PSoC5/cyPm.c **** 
  31:Generated_Source\PSoC5/cyPm.c **** static CY_PM_BACKUP_STRUCT          cyPmBackup;
ARM GAS  C:\Users\dmarsch\AppData\Local\Temp\ccqopW1v.s 			page 2


  32:Generated_Source\PSoC5/cyPm.c **** static CY_PM_CLOCK_BACKUP_STRUCT    cyPmClockBackup;
  33:Generated_Source\PSoC5/cyPm.c **** 
  34:Generated_Source\PSoC5/cyPm.c **** /* Convertion table between register's values and frequency in MHz  */
  35:Generated_Source\PSoC5/cyPm.c **** static const uint8 CYCODE cyPmImoFreqReg2Mhz[7u] = {12u, 6u, 24u, 3u, 48u, 62u, 74u};
  36:Generated_Source\PSoC5/cyPm.c **** 
  37:Generated_Source\PSoC5/cyPm.c **** /* Function Prototypes */
  38:Generated_Source\PSoC5/cyPm.c **** static void CyPmHibSaveSet(void);
  39:Generated_Source\PSoC5/cyPm.c **** static void CyPmHibRestore(void) ;
  40:Generated_Source\PSoC5/cyPm.c **** 
  41:Generated_Source\PSoC5/cyPm.c **** static void CyPmHibSlpSaveSet(void) ;
  42:Generated_Source\PSoC5/cyPm.c **** static void CyPmHibSlpRestore(void) ;
  43:Generated_Source\PSoC5/cyPm.c **** 
  44:Generated_Source\PSoC5/cyPm.c **** static void CyPmHviLviSaveDisable(void) ;
  45:Generated_Source\PSoC5/cyPm.c **** static void CyPmHviLviRestore(void) ;
  46:Generated_Source\PSoC5/cyPm.c **** 
  47:Generated_Source\PSoC5/cyPm.c **** 
  48:Generated_Source\PSoC5/cyPm.c **** /*******************************************************************************
  49:Generated_Source\PSoC5/cyPm.c **** * Function Name: CyPmSaveClocks
  50:Generated_Source\PSoC5/cyPm.c **** ****************************************************************************//**
  51:Generated_Source\PSoC5/cyPm.c **** *
  52:Generated_Source\PSoC5/cyPm.c **** *  This function is called in preparation for entering sleep or hibernate low
  53:Generated_Source\PSoC5/cyPm.c **** *  power modes. Saves all the states of the clocking system that do not persist
  54:Generated_Source\PSoC5/cyPm.c **** *  during sleep/hibernate or that need to be altered in preparation for
  55:Generated_Source\PSoC5/cyPm.c **** *  sleep/hibernate. Shutdowns all the digital and analog clock dividers for the
  56:Generated_Source\PSoC5/cyPm.c **** *  active power mode configuration.
  57:Generated_Source\PSoC5/cyPm.c **** *
  58:Generated_Source\PSoC5/cyPm.c **** *  Switches the master clock over to the IMO and shuts down the PLL and MHz
  59:Generated_Source\PSoC5/cyPm.c **** *  Crystal. The IMO frequency is set to either 12 MHz or 48 MHz to match the
  60:Generated_Source\PSoC5/cyPm.c **** *  Design-Wide Resources System Editor "Enable Fast IMO During Startup" setting.
  61:Generated_Source\PSoC5/cyPm.c **** *  The ILO and 32 KHz oscillators are not impacted. The current Flash wait state
  62:Generated_Source\PSoC5/cyPm.c **** *  setting is saved and the Flash wait state setting is set for the current IMO
  63:Generated_Source\PSoC5/cyPm.c **** *  speed.
  64:Generated_Source\PSoC5/cyPm.c **** *
  65:Generated_Source\PSoC5/cyPm.c **** *  Note If the Master Clock source is routed through the DSI inputs, then it
  66:Generated_Source\PSoC5/cyPm.c **** *  must be set manually to another source before using the
  67:Generated_Source\PSoC5/cyPm.c **** *  CyPmSaveClocks()/CyPmRestoreClocks() functions.
  68:Generated_Source\PSoC5/cyPm.c **** *
  69:Generated_Source\PSoC5/cyPm.c **** * \sideeffect
  70:Generated_Source\PSoC5/cyPm.c **** *  All peripheral clocks are going to be off after this API method call.
  71:Generated_Source\PSoC5/cyPm.c **** *
  72:Generated_Source\PSoC5/cyPm.c **** *******************************************************************************/
  73:Generated_Source\PSoC5/cyPm.c **** void CyPmSaveClocks(void) 
  74:Generated_Source\PSoC5/cyPm.c **** {
  75:Generated_Source\PSoC5/cyPm.c ****     /* Digital and analog clocks - save enable state and disable them all */
  76:Generated_Source\PSoC5/cyPm.c ****     cyPmClockBackup.enClkA = CY_PM_ACT_CFG1_REG & CY_PM_ACT_EN_CLK_A_MASK;
  77:Generated_Source\PSoC5/cyPm.c ****     cyPmClockBackup.enClkD = CY_PM_ACT_CFG2_REG;
  78:Generated_Source\PSoC5/cyPm.c ****     CY_PM_ACT_CFG1_REG &= ((uint8)(~CY_PM_ACT_EN_CLK_A_MASK));
  79:Generated_Source\PSoC5/cyPm.c ****     CY_PM_ACT_CFG2_REG &= ((uint8)(~CY_PM_ACT_EN_CLK_D_MASK));
  80:Generated_Source\PSoC5/cyPm.c **** 
  81:Generated_Source\PSoC5/cyPm.c ****     /* Save current flash wait cycles and set the maximum value */
  82:Generated_Source\PSoC5/cyPm.c ****     cyPmClockBackup.flashWaitCycles = CY_PM_CACHE_CR_CYCLES_MASK & CY_PM_CACHE_CR_REG;
  83:Generated_Source\PSoC5/cyPm.c ****     CyFlash_SetWaitCycles(CY_PM_MAX_FLASH_WAIT_CYCLES);
  84:Generated_Source\PSoC5/cyPm.c **** 
  85:Generated_Source\PSoC5/cyPm.c ****     /* IMO - save current IMO MHz OSC frequency and USB mode is on bit */
  86:Generated_Source\PSoC5/cyPm.c ****     cyPmClockBackup.imoFreq = CY_PM_FASTCLK_IMO_CR_REG & CY_PM_FASTCLK_IMO_CR_FREQ_MASK;
  87:Generated_Source\PSoC5/cyPm.c ****     cyPmClockBackup.imoUsbClk = CY_PM_FASTCLK_IMO_CR_REG & CY_PM_FASTCLK_IMO_CR_USB;
  88:Generated_Source\PSoC5/cyPm.c **** 
ARM GAS  C:\Users\dmarsch\AppData\Local\Temp\ccqopW1v.s 			page 3


  89:Generated_Source\PSoC5/cyPm.c ****     /* IMO doubler - save enable state */
  90:Generated_Source\PSoC5/cyPm.c ****     if(0u != (CY_PM_FASTCLK_IMO_CR_REG & CY_PM_FASTCLK_IMO_CR_F2XON))
  91:Generated_Source\PSoC5/cyPm.c ****     {
  92:Generated_Source\PSoC5/cyPm.c ****         /* IMO doubler enabled - save and disable */
  93:Generated_Source\PSoC5/cyPm.c ****         cyPmClockBackup.imo2x = CY_PM_ENABLED;
  94:Generated_Source\PSoC5/cyPm.c ****     }
  95:Generated_Source\PSoC5/cyPm.c ****     else
  96:Generated_Source\PSoC5/cyPm.c ****     {
  97:Generated_Source\PSoC5/cyPm.c ****         /* IMO doubler disabled */
  98:Generated_Source\PSoC5/cyPm.c ****         cyPmClockBackup.imo2x = CY_PM_DISABLED;
  99:Generated_Source\PSoC5/cyPm.c ****     }
 100:Generated_Source\PSoC5/cyPm.c **** 
 101:Generated_Source\PSoC5/cyPm.c ****     /* Master clock - save source */
 102:Generated_Source\PSoC5/cyPm.c ****     cyPmClockBackup.masterClkSrc = CY_PM_CLKDIST_MSTR1_REG & CY_PM_MASTER_CLK_SRC_MASK;
 103:Generated_Source\PSoC5/cyPm.c **** 
 104:Generated_Source\PSoC5/cyPm.c ****     /* Switch Master clock's source from PLL's output to PLL's source */
 105:Generated_Source\PSoC5/cyPm.c ****     if(CY_MASTER_SOURCE_PLL == cyPmClockBackup.masterClkSrc)
 106:Generated_Source\PSoC5/cyPm.c ****     {
 107:Generated_Source\PSoC5/cyPm.c ****         switch (CY_PM_CLKDIST_CR_REG & CY_PM_CLKDIST_PLL_SRC_MASK)
 108:Generated_Source\PSoC5/cyPm.c ****         {
 109:Generated_Source\PSoC5/cyPm.c ****         case CY_PM_CLKDIST_PLL_SRC_IMO:
 110:Generated_Source\PSoC5/cyPm.c ****             CyMasterClk_SetSource(CY_MASTER_SOURCE_IMO);
 111:Generated_Source\PSoC5/cyPm.c ****             break;
 112:Generated_Source\PSoC5/cyPm.c **** 
 113:Generated_Source\PSoC5/cyPm.c ****         case CY_PM_CLKDIST_PLL_SRC_XTAL:
 114:Generated_Source\PSoC5/cyPm.c ****             CyMasterClk_SetSource(CY_MASTER_SOURCE_XTAL);
 115:Generated_Source\PSoC5/cyPm.c ****             break;
 116:Generated_Source\PSoC5/cyPm.c **** 
 117:Generated_Source\PSoC5/cyPm.c ****         case CY_PM_CLKDIST_PLL_SRC_DSI:
 118:Generated_Source\PSoC5/cyPm.c ****             CyMasterClk_SetSource(CY_MASTER_SOURCE_DSI);
 119:Generated_Source\PSoC5/cyPm.c ****             break;
 120:Generated_Source\PSoC5/cyPm.c **** 
 121:Generated_Source\PSoC5/cyPm.c ****         default:
 122:Generated_Source\PSoC5/cyPm.c ****             CYASSERT(0u != 0u);
 123:Generated_Source\PSoC5/cyPm.c ****             break;
 124:Generated_Source\PSoC5/cyPm.c ****         }
 125:Generated_Source\PSoC5/cyPm.c ****     }
 126:Generated_Source\PSoC5/cyPm.c **** 
 127:Generated_Source\PSoC5/cyPm.c ****     /* PLL - check enable state, disable if needed */
 128:Generated_Source\PSoC5/cyPm.c ****     if(0u != (CY_PM_FASTCLK_PLL_CFG0_REG & CY_PM_PLL_CFG0_ENABLE))
 129:Generated_Source\PSoC5/cyPm.c ****     {
 130:Generated_Source\PSoC5/cyPm.c ****         /* PLL is enabled - save state and disable */
 131:Generated_Source\PSoC5/cyPm.c ****         cyPmClockBackup.pllEnableState = CY_PM_ENABLED;
 132:Generated_Source\PSoC5/cyPm.c ****         CyPLL_OUT_Stop();
 133:Generated_Source\PSoC5/cyPm.c ****     }
 134:Generated_Source\PSoC5/cyPm.c ****     else
 135:Generated_Source\PSoC5/cyPm.c ****     {
 136:Generated_Source\PSoC5/cyPm.c ****         /* PLL is disabled - save state */
 137:Generated_Source\PSoC5/cyPm.c ****         cyPmClockBackup.pllEnableState = CY_PM_DISABLED;
 138:Generated_Source\PSoC5/cyPm.c ****     }
 139:Generated_Source\PSoC5/cyPm.c **** 
 140:Generated_Source\PSoC5/cyPm.c ****     /* IMO - set appropriate frequency for LPM */
 141:Generated_Source\PSoC5/cyPm.c ****     CyIMO_SetFreq(CY_PM_IMO_FREQ_LPM);
 142:Generated_Source\PSoC5/cyPm.c **** 
 143:Generated_Source\PSoC5/cyPm.c ****     /* IMO - save enable state and enable without wait to settle */
 144:Generated_Source\PSoC5/cyPm.c ****     if(0u != (CY_PM_ACT_CFG0_IMO & CY_PM_ACT_CFG0_REG))
 145:Generated_Source\PSoC5/cyPm.c ****     {
ARM GAS  C:\Users\dmarsch\AppData\Local\Temp\ccqopW1v.s 			page 4


 146:Generated_Source\PSoC5/cyPm.c ****         /* IMO - save enabled state */
 147:Generated_Source\PSoC5/cyPm.c ****         cyPmClockBackup.imoEnable = CY_PM_ENABLED;
 148:Generated_Source\PSoC5/cyPm.c ****     }
 149:Generated_Source\PSoC5/cyPm.c ****     else
 150:Generated_Source\PSoC5/cyPm.c ****     {
 151:Generated_Source\PSoC5/cyPm.c ****         /* IMO - save disabled state */
 152:Generated_Source\PSoC5/cyPm.c ****         cyPmClockBackup.imoEnable = CY_PM_DISABLED;
 153:Generated_Source\PSoC5/cyPm.c **** 
 154:Generated_Source\PSoC5/cyPm.c ****         /* Enable the IMO. Use software delay instead of the FTW-based inside */
 155:Generated_Source\PSoC5/cyPm.c ****         CyIMO_Start(CY_PM_IMO_NO_WAIT_TO_SETTLE);
 156:Generated_Source\PSoC5/cyPm.c **** 
 157:Generated_Source\PSoC5/cyPm.c ****         /* Settling time of the IMO is of the order of less than 6us */
 158:Generated_Source\PSoC5/cyPm.c ****         CyDelayUs(6u);
 159:Generated_Source\PSoC5/cyPm.c ****     }
 160:Generated_Source\PSoC5/cyPm.c **** 
 161:Generated_Source\PSoC5/cyPm.c ****     /* IMO - save the current IMOCLK source and set to IMO if not yet */
 162:Generated_Source\PSoC5/cyPm.c ****     if(0u != (CY_PM_FASTCLK_IMO_CR_REG & CY_PM_FASTCLK_IMO_CR_XCLKEN))
 163:Generated_Source\PSoC5/cyPm.c ****     {
 164:Generated_Source\PSoC5/cyPm.c ****         /* DSI or XTAL CLK */
 165:Generated_Source\PSoC5/cyPm.c ****         cyPmClockBackup.imoClkSrc =
 166:Generated_Source\PSoC5/cyPm.c ****             (0u == (CY_PM_CLKDIST_CR_REG & CY_PM_CLKDIST_IMO2X_SRC)) ? CY_IMO_SOURCE_DSI : CY_IMO_S
 167:Generated_Source\PSoC5/cyPm.c **** 
 168:Generated_Source\PSoC5/cyPm.c ****         /* IMO -  set IMOCLK source to IMO */
 169:Generated_Source\PSoC5/cyPm.c ****         CyIMO_SetSource(CY_IMO_SOURCE_IMO);
 170:Generated_Source\PSoC5/cyPm.c ****     }
 171:Generated_Source\PSoC5/cyPm.c ****     else
 172:Generated_Source\PSoC5/cyPm.c ****     {
 173:Generated_Source\PSoC5/cyPm.c ****         /* IMO */
 174:Generated_Source\PSoC5/cyPm.c ****         cyPmClockBackup.imoClkSrc = CY_IMO_SOURCE_IMO;
 175:Generated_Source\PSoC5/cyPm.c ****     }
 176:Generated_Source\PSoC5/cyPm.c **** 
 177:Generated_Source\PSoC5/cyPm.c ****     /* Save clk_imo source */
 178:Generated_Source\PSoC5/cyPm.c ****     cyPmClockBackup.clkImoSrc = CY_PM_CLKDIST_CR_REG & CY_PM_CLKDIST_IMO_OUT_MASK;
 179:Generated_Source\PSoC5/cyPm.c **** 
 180:Generated_Source\PSoC5/cyPm.c ****     /* If IMOCLK2X or SPC OSC is source for clk_imo, set it to IMOCLK */
 181:Generated_Source\PSoC5/cyPm.c ****     if(CY_PM_CLKDIST_IMO_OUT_IMO != cyPmClockBackup.clkImoSrc)
 182:Generated_Source\PSoC5/cyPm.c ****     {
 183:Generated_Source\PSoC5/cyPm.c ****         /* Set IMOCLK to source for clk_imo */
 184:Generated_Source\PSoC5/cyPm.c ****         CY_PM_CLKDIST_CR_REG = (CY_PM_CLKDIST_CR_REG & ((uint8)(~CY_PM_CLKDIST_IMO_OUT_MASK))) |
 185:Generated_Source\PSoC5/cyPm.c ****                                 CY_PM_CLKDIST_IMO_OUT_IMO;
 186:Generated_Source\PSoC5/cyPm.c ****     }    /* Need to change nothing if IMOCLK is source clk_imo */
 187:Generated_Source\PSoC5/cyPm.c **** 
 188:Generated_Source\PSoC5/cyPm.c ****     /* IMO doubler - disable it (saved above) */
 189:Generated_Source\PSoC5/cyPm.c ****     if(0u != (CY_PM_FASTCLK_IMO_CR_REG & CY_PM_FASTCLK_IMO_CR_F2XON))
 190:Generated_Source\PSoC5/cyPm.c ****     {
 191:Generated_Source\PSoC5/cyPm.c ****         CyIMO_DisableDoubler();
 192:Generated_Source\PSoC5/cyPm.c ****     }
 193:Generated_Source\PSoC5/cyPm.c **** 
 194:Generated_Source\PSoC5/cyPm.c ****     /* Master clock - save divider and set it to divide-by-one (if no yet) */
 195:Generated_Source\PSoC5/cyPm.c ****     cyPmClockBackup.clkSyncDiv = CY_PM_CLKDIST_MSTR0_REG;
 196:Generated_Source\PSoC5/cyPm.c ****     if(CY_PM_DIV_BY_ONE != cyPmClockBackup.clkSyncDiv)
 197:Generated_Source\PSoC5/cyPm.c ****     {
 198:Generated_Source\PSoC5/cyPm.c ****         CyMasterClk_SetDivider(CY_PM_DIV_BY_ONE);
 199:Generated_Source\PSoC5/cyPm.c ****     }    /* No change if master clock divider is 1 */
 200:Generated_Source\PSoC5/cyPm.c **** 
 201:Generated_Source\PSoC5/cyPm.c ****     /* Master clock source - set it to IMO if not yet. */
 202:Generated_Source\PSoC5/cyPm.c ****     if(CY_MASTER_SOURCE_IMO != cyPmClockBackup.masterClkSrc)
ARM GAS  C:\Users\dmarsch\AppData\Local\Temp\ccqopW1v.s 			page 5


 203:Generated_Source\PSoC5/cyPm.c ****     {
 204:Generated_Source\PSoC5/cyPm.c ****         CyMasterClk_SetSource(CY_MASTER_SOURCE_IMO);
 205:Generated_Source\PSoC5/cyPm.c ****     }    /* No change if master clock source is IMO */
 206:Generated_Source\PSoC5/cyPm.c **** 
 207:Generated_Source\PSoC5/cyPm.c ****     /* Bus clock - save divider and set it, if needed, to divide-by-one */
 208:Generated_Source\PSoC5/cyPm.c ****     cyPmClockBackup.clkBusDiv = (uint16) ((uint16) CY_PM_CLK_BUS_MSB_DIV_REG << 8u);
 209:Generated_Source\PSoC5/cyPm.c ****     cyPmClockBackup.clkBusDiv |= CY_PM_CLK_BUS_LSB_DIV_REG;
 210:Generated_Source\PSoC5/cyPm.c ****     if(CY_PM_BUS_CLK_DIV_BY_ONE != cyPmClockBackup.clkBusDiv)
 211:Generated_Source\PSoC5/cyPm.c ****     {
 212:Generated_Source\PSoC5/cyPm.c ****         CyBusClk_SetDivider(CY_PM_BUS_CLK_DIV_BY_ONE);
 213:Generated_Source\PSoC5/cyPm.c ****     }    /* Do nothing if saved and actual values are equal */
 214:Generated_Source\PSoC5/cyPm.c **** 
 215:Generated_Source\PSoC5/cyPm.c ****     /* Set number of wait cycles for flash according to CPU frequency in MHz */
 216:Generated_Source\PSoC5/cyPm.c ****     CyFlash_SetWaitCycles((uint8)CY_PM_GET_CPU_FREQ_MHZ);
 217:Generated_Source\PSoC5/cyPm.c **** 
 218:Generated_Source\PSoC5/cyPm.c ****     /* MHz ECO - check enable state and disable if needed */
 219:Generated_Source\PSoC5/cyPm.c ****     if(0u != (CY_PM_FASTCLK_XMHZ_CSR_REG & CY_PM_XMHZ_CSR_ENABLE))
 220:Generated_Source\PSoC5/cyPm.c ****     {
 221:Generated_Source\PSoC5/cyPm.c ****         /* MHz ECO is enabled - save state and disable */
 222:Generated_Source\PSoC5/cyPm.c ****         cyPmClockBackup.xmhzEnableState = CY_PM_ENABLED;
 223:Generated_Source\PSoC5/cyPm.c ****         CyXTAL_Stop();
 224:Generated_Source\PSoC5/cyPm.c ****     }
 225:Generated_Source\PSoC5/cyPm.c ****     else
 226:Generated_Source\PSoC5/cyPm.c ****     {
 227:Generated_Source\PSoC5/cyPm.c ****         /* MHz ECO is disabled - save state */
 228:Generated_Source\PSoC5/cyPm.c ****         cyPmClockBackup.xmhzEnableState = CY_PM_DISABLED;
 229:Generated_Source\PSoC5/cyPm.c ****     }
 230:Generated_Source\PSoC5/cyPm.c **** 
 231:Generated_Source\PSoC5/cyPm.c **** 
 232:Generated_Source\PSoC5/cyPm.c ****     /***************************************************************************
 233:Generated_Source\PSoC5/cyPm.c ****     * Save the enable state of delay between the system bus clock and each of the
 234:Generated_Source\PSoC5/cyPm.c ****     * 4 individual analog clocks. This bit non-retention and its value should
 235:Generated_Source\PSoC5/cyPm.c ****     * be restored on wakeup.
 236:Generated_Source\PSoC5/cyPm.c ****     ***************************************************************************/
 237:Generated_Source\PSoC5/cyPm.c ****     if(0u != (CY_PM_CLKDIST_DELAY_REG & CY_PM_CLKDIST_DELAY_EN))
 238:Generated_Source\PSoC5/cyPm.c ****     {
 239:Generated_Source\PSoC5/cyPm.c ****         cyPmClockBackup.clkDistDelay = CY_PM_ENABLED;
 240:Generated_Source\PSoC5/cyPm.c ****     }
 241:Generated_Source\PSoC5/cyPm.c ****     else
 242:Generated_Source\PSoC5/cyPm.c ****     {
 243:Generated_Source\PSoC5/cyPm.c ****         cyPmClockBackup.clkDistDelay = CY_PM_DISABLED;
 244:Generated_Source\PSoC5/cyPm.c ****     }
 245:Generated_Source\PSoC5/cyPm.c **** }
 246:Generated_Source\PSoC5/cyPm.c **** 
 247:Generated_Source\PSoC5/cyPm.c **** 
 248:Generated_Source\PSoC5/cyPm.c **** /*******************************************************************************
 249:Generated_Source\PSoC5/cyPm.c **** * Function Name: CyPmRestoreClocks
 250:Generated_Source\PSoC5/cyPm.c **** ****************************************************************************//**
 251:Generated_Source\PSoC5/cyPm.c **** *
 252:Generated_Source\PSoC5/cyPm.c **** *  Restores any state that was preserved by the last call to CyPmSaveClocks().
 253:Generated_Source\PSoC5/cyPm.c **** *  The Flash wait state setting is also restored.
 254:Generated_Source\PSoC5/cyPm.c **** *
 255:Generated_Source\PSoC5/cyPm.c **** *  Note If the Master Clock source is routed through the DSI inputs, then it
 256:Generated_Source\PSoC5/cyPm.c **** *  must be set manually to another source before using the
 257:Generated_Source\PSoC5/cyPm.c **** *  CyPmSaveClocks()/CyPmRestoreClocks() functions.
 258:Generated_Source\PSoC5/cyPm.c **** *
 259:Generated_Source\PSoC5/cyPm.c **** *  PSoC 3 and PSoC 5LP:
ARM GAS  C:\Users\dmarsch\AppData\Local\Temp\ccqopW1v.s 			page 6


 260:Generated_Source\PSoC5/cyPm.c **** *  The merge region could be used to process state when the megahertz crystal is
 261:Generated_Source\PSoC5/cyPm.c **** *  not ready after a hold-off timeout.
 262:Generated_Source\PSoC5/cyPm.c **** *
 263:Generated_Source\PSoC5/cyPm.c **** *  PSoC 5:
 264:Generated_Source\PSoC5/cyPm.c **** *  The 130 ms is given for the megahertz crystal to stabilize. Its readiness is
 265:Generated_Source\PSoC5/cyPm.c **** *  not verified after a hold-off timeout.
 266:Generated_Source\PSoC5/cyPm.c **** *
 267:Generated_Source\PSoC5/cyPm.c **** *******************************************************************************/
 268:Generated_Source\PSoC5/cyPm.c **** void CyPmRestoreClocks(void) 
 269:Generated_Source\PSoC5/cyPm.c **** {
 270:Generated_Source\PSoC5/cyPm.c ****     cystatus status = CYRET_TIMEOUT;
 271:Generated_Source\PSoC5/cyPm.c ****     uint16 i;
 272:Generated_Source\PSoC5/cyPm.c ****     uint16 clkBusDivTmp;
 273:Generated_Source\PSoC5/cyPm.c **** 
 274:Generated_Source\PSoC5/cyPm.c **** 
 275:Generated_Source\PSoC5/cyPm.c ****     /* Convertion table between CyIMO_SetFreq() parameters and register's value */
 276:Generated_Source\PSoC5/cyPm.c ****     const uint8 CYCODE cyPmImoFreqMhz2Reg[7u] = {
 277:Generated_Source\PSoC5/cyPm.c ****         CY_IMO_FREQ_12MHZ, CY_IMO_FREQ_6MHZ,  CY_IMO_FREQ_24MHZ, CY_IMO_FREQ_3MHZ,
 278:Generated_Source\PSoC5/cyPm.c ****         CY_IMO_FREQ_48MHZ, 5u, 6u};
 279:Generated_Source\PSoC5/cyPm.c **** 
 280:Generated_Source\PSoC5/cyPm.c ****     /* Restore enable state of delay between system bus clock and ACLKs. */
 281:Generated_Source\PSoC5/cyPm.c ****     if(CY_PM_ENABLED == cyPmClockBackup.clkDistDelay)
 282:Generated_Source\PSoC5/cyPm.c ****     {
 283:Generated_Source\PSoC5/cyPm.c ****         /* Delay for both bandgap and delay line to settle out */
 284:Generated_Source\PSoC5/cyPm.c ****         CyDelayCycles((uint32)(CY_PM_CLK_DELAY_BANDGAP_SETTLE_US + CY_PM_CLK_DELAY_BIAS_SETTLE_US) 
 285:Generated_Source\PSoC5/cyPm.c ****                         CY_PM_GET_CPU_FREQ_MHZ);
 286:Generated_Source\PSoC5/cyPm.c **** 
 287:Generated_Source\PSoC5/cyPm.c ****         CY_PM_CLKDIST_DELAY_REG |= CY_PM_CLKDIST_DELAY_EN;
 288:Generated_Source\PSoC5/cyPm.c ****     }
 289:Generated_Source\PSoC5/cyPm.c **** 
 290:Generated_Source\PSoC5/cyPm.c ****     /* MHz ECO restore state */
 291:Generated_Source\PSoC5/cyPm.c ****     if(CY_PM_ENABLED == cyPmClockBackup.xmhzEnableState)
 292:Generated_Source\PSoC5/cyPm.c ****     {
 293:Generated_Source\PSoC5/cyPm.c ****         /***********************************************************************
 294:Generated_Source\PSoC5/cyPm.c ****         * Enabling XMHZ XTAL. The actual CyXTAL_Start() with a non zero wait
 295:Generated_Source\PSoC5/cyPm.c ****         * period uses FTW for period measurement. This could cause a problem
 296:Generated_Source\PSoC5/cyPm.c ****         * if CTW/FTW is used as a wake up time in the low power modes APIs.
 297:Generated_Source\PSoC5/cyPm.c ****         * So, the XTAL wait procedure is implemented with a software delay.
 298:Generated_Source\PSoC5/cyPm.c ****         ***********************************************************************/
 299:Generated_Source\PSoC5/cyPm.c **** 
 300:Generated_Source\PSoC5/cyPm.c ****         /* Enable XMHZ XTAL with no wait */
 301:Generated_Source\PSoC5/cyPm.c ****         (void) CyXTAL_Start(CY_PM_XTAL_MHZ_NO_WAIT);
 302:Generated_Source\PSoC5/cyPm.c **** 
 303:Generated_Source\PSoC5/cyPm.c ****         /* Read XERR bit to clear it */
 304:Generated_Source\PSoC5/cyPm.c ****         (void) CY_PM_FASTCLK_XMHZ_CSR_REG;
 305:Generated_Source\PSoC5/cyPm.c **** 
 306:Generated_Source\PSoC5/cyPm.c ****         /* Wait */
 307:Generated_Source\PSoC5/cyPm.c ****         for(i = CY_PM_MHZ_XTAL_WAIT_NUM_OF_200_US; i > 0u; i--)
 308:Generated_Source\PSoC5/cyPm.c ****         {
 309:Generated_Source\PSoC5/cyPm.c ****             /* Make a 200 microseconds delay */
 310:Generated_Source\PSoC5/cyPm.c ****             CyDelayCycles((uint32)CY_PM_WAIT_200_US * CY_PM_GET_CPU_FREQ_MHZ);
 311:Generated_Source\PSoC5/cyPm.c **** 
 312:Generated_Source\PSoC5/cyPm.c ****             /* High output indicates oscillator failure */
 313:Generated_Source\PSoC5/cyPm.c ****             if(0u == (CY_PM_FASTCLK_XMHZ_CSR_REG & CY_PM_XMHZ_CSR_XERR))
 314:Generated_Source\PSoC5/cyPm.c ****             {
 315:Generated_Source\PSoC5/cyPm.c ****                 status = CYRET_SUCCESS;
 316:Generated_Source\PSoC5/cyPm.c ****                 break;
ARM GAS  C:\Users\dmarsch\AppData\Local\Temp\ccqopW1v.s 			page 7


 317:Generated_Source\PSoC5/cyPm.c ****             }
 318:Generated_Source\PSoC5/cyPm.c ****         }
 319:Generated_Source\PSoC5/cyPm.c **** 
 320:Generated_Source\PSoC5/cyPm.c ****         if(CYRET_TIMEOUT == status)
 321:Generated_Source\PSoC5/cyPm.c ****         {
 322:Generated_Source\PSoC5/cyPm.c ****             /*******************************************************************
 323:Generated_Source\PSoC5/cyPm.c ****             * Process the situation when megahertz crystal is not ready.
 324:Generated_Source\PSoC5/cyPm.c ****             * Time to stabilize the value is crystal specific.
 325:Generated_Source\PSoC5/cyPm.c ****             *******************************************************************/
 326:Generated_Source\PSoC5/cyPm.c ****            /* `#START_MHZ_ECO_TIMEOUT` */
 327:Generated_Source\PSoC5/cyPm.c **** 
 328:Generated_Source\PSoC5/cyPm.c ****            /* `#END` */
 329:Generated_Source\PSoC5/cyPm.c **** 
 330:Generated_Source\PSoC5/cyPm.c ****         #ifdef CY_BOOT_CY_PM_RESTORE_CLOCKS_ECO_TIMEOUT_CALLBACK
 331:Generated_Source\PSoC5/cyPm.c ****             CyBoot_CyPmRestoreClocks_EcoTimeout_Callback();
 332:Generated_Source\PSoC5/cyPm.c ****         #endif /* CY_BOOT_CY_PM_RESTORE_CLOCKS_ECO_TIMEOUT_CALLBACK */
 333:Generated_Source\PSoC5/cyPm.c ****         }
 334:Generated_Source\PSoC5/cyPm.c ****     }   /* (CY_PM_ENABLED == cyPmClockBackup.xmhzEnableState) */
 335:Generated_Source\PSoC5/cyPm.c **** 
 336:Generated_Source\PSoC5/cyPm.c **** 
 337:Generated_Source\PSoC5/cyPm.c ****     /* Temporary set maximum flash wait cycles */
 338:Generated_Source\PSoC5/cyPm.c ****     CyFlash_SetWaitCycles(CY_PM_MAX_FLASH_WAIT_CYCLES);
 339:Generated_Source\PSoC5/cyPm.c **** 
 340:Generated_Source\PSoC5/cyPm.c ****     /* XTAL and DSI clocks are ready to be source for Master clock. */
 341:Generated_Source\PSoC5/cyPm.c ****     if((CY_PM_MASTER_CLK_SRC_XTAL == cyPmClockBackup.masterClkSrc) ||
 342:Generated_Source\PSoC5/cyPm.c ****        (CY_PM_MASTER_CLK_SRC_DSI  == cyPmClockBackup.masterClkSrc))
 343:Generated_Source\PSoC5/cyPm.c ****     {
 344:Generated_Source\PSoC5/cyPm.c ****         /* Restore Master clock's divider */
 345:Generated_Source\PSoC5/cyPm.c ****         if(CY_PM_CLKDIST_MSTR0_REG != cyPmClockBackup.clkSyncDiv)
 346:Generated_Source\PSoC5/cyPm.c ****         {
 347:Generated_Source\PSoC5/cyPm.c ****             /* Restore Master clock divider */
 348:Generated_Source\PSoC5/cyPm.c ****             CyMasterClk_SetDivider(cyPmClockBackup.clkSyncDiv);
 349:Generated_Source\PSoC5/cyPm.c ****         }
 350:Generated_Source\PSoC5/cyPm.c **** 
 351:Generated_Source\PSoC5/cyPm.c ****         /* Restore Master clock source */
 352:Generated_Source\PSoC5/cyPm.c ****         CyMasterClk_SetSource(cyPmClockBackup.masterClkSrc);
 353:Generated_Source\PSoC5/cyPm.c ****     }
 354:Generated_Source\PSoC5/cyPm.c **** 
 355:Generated_Source\PSoC5/cyPm.c ****     /* IMO - restore IMO frequency */
 356:Generated_Source\PSoC5/cyPm.c ****     if((0u != (cyPmClockBackup.imoUsbClk & CY_PM_FASTCLK_IMO_CR_USB)) &&
 357:Generated_Source\PSoC5/cyPm.c ****         (CY_IMO_FREQ_24MHZ == cyPmImoFreqMhz2Reg[cyPmClockBackup.imoFreq]))
 358:Generated_Source\PSoC5/cyPm.c ****     {
 359:Generated_Source\PSoC5/cyPm.c ****         /* Restore IMO frequency (24 MHz) and trim it for USB */
 360:Generated_Source\PSoC5/cyPm.c ****         CyIMO_SetFreq(CY_IMO_FREQ_USB);
 361:Generated_Source\PSoC5/cyPm.c ****     }
 362:Generated_Source\PSoC5/cyPm.c ****     else
 363:Generated_Source\PSoC5/cyPm.c ****     {
 364:Generated_Source\PSoC5/cyPm.c ****         /* Restore IMO frequency */
 365:Generated_Source\PSoC5/cyPm.c ****         CyIMO_SetFreq(cyPmImoFreqMhz2Reg[cyPmClockBackup.imoFreq]);
 366:Generated_Source\PSoC5/cyPm.c **** 
 367:Generated_Source\PSoC5/cyPm.c ****         if(0u != (cyPmClockBackup.imoUsbClk & CY_PM_FASTCLK_IMO_CR_USB))
 368:Generated_Source\PSoC5/cyPm.c ****         {
 369:Generated_Source\PSoC5/cyPm.c ****             CY_PM_FASTCLK_IMO_CR_REG |= CY_PM_FASTCLK_IMO_CR_USB;
 370:Generated_Source\PSoC5/cyPm.c ****         }
 371:Generated_Source\PSoC5/cyPm.c ****         else
 372:Generated_Source\PSoC5/cyPm.c ****         {
 373:Generated_Source\PSoC5/cyPm.c ****             CY_PM_FASTCLK_IMO_CR_REG &= ((uint8)(~CY_PM_FASTCLK_IMO_CR_USB));
ARM GAS  C:\Users\dmarsch\AppData\Local\Temp\ccqopW1v.s 			page 8


 374:Generated_Source\PSoC5/cyPm.c ****         }
 375:Generated_Source\PSoC5/cyPm.c ****     }
 376:Generated_Source\PSoC5/cyPm.c **** 
 377:Generated_Source\PSoC5/cyPm.c ****     /* IMO - restore enable state if needed */
 378:Generated_Source\PSoC5/cyPm.c ****     if((CY_PM_ENABLED == cyPmClockBackup.imoEnable) &&
 379:Generated_Source\PSoC5/cyPm.c ****        (0u == (CY_PM_ACT_CFG0_IMO & CY_PM_ACT_CFG0_REG)))
 380:Generated_Source\PSoC5/cyPm.c ****     {
 381:Generated_Source\PSoC5/cyPm.c ****         /* IMO - restore enabled state */
 382:Generated_Source\PSoC5/cyPm.c ****         CyIMO_Start(CY_PM_IMO_NO_WAIT_TO_SETTLE);
 383:Generated_Source\PSoC5/cyPm.c ****     }
 384:Generated_Source\PSoC5/cyPm.c **** 
 385:Generated_Source\PSoC5/cyPm.c ****     /* IMO - restore IMOCLK source */
 386:Generated_Source\PSoC5/cyPm.c ****     CyIMO_SetSource(cyPmClockBackup.imoClkSrc);
 387:Generated_Source\PSoC5/cyPm.c **** 
 388:Generated_Source\PSoC5/cyPm.c ****     /* Restore IMO doubler enable state (turned off by CyPmSaveClocks()) */
 389:Generated_Source\PSoC5/cyPm.c ****     if(CY_PM_ENABLED == cyPmClockBackup.imo2x)
 390:Generated_Source\PSoC5/cyPm.c ****     {
 391:Generated_Source\PSoC5/cyPm.c ****         CyIMO_EnableDoubler();
 392:Generated_Source\PSoC5/cyPm.c ****     }
 393:Generated_Source\PSoC5/cyPm.c **** 
 394:Generated_Source\PSoC5/cyPm.c ****     /* IMO - restore clk_imo source, if needed */
 395:Generated_Source\PSoC5/cyPm.c ****     if(cyPmClockBackup.clkImoSrc != (CY_PM_CLKDIST_CR_REG & CY_PM_CLKDIST_IMO_OUT_MASK))
 396:Generated_Source\PSoC5/cyPm.c ****     {
 397:Generated_Source\PSoC5/cyPm.c ****         CY_PM_CLKDIST_CR_REG = (CY_PM_CLKDIST_CR_REG & ((uint8)(~CY_PM_CLKDIST_IMO_OUT_MASK))) |
 398:Generated_Source\PSoC5/cyPm.c ****                                 cyPmClockBackup.clkImoSrc;
 399:Generated_Source\PSoC5/cyPm.c ****     }
 400:Generated_Source\PSoC5/cyPm.c **** 
 401:Generated_Source\PSoC5/cyPm.c **** 
 402:Generated_Source\PSoC5/cyPm.c ****     /* PLL restore state */
 403:Generated_Source\PSoC5/cyPm.c ****     if(CY_PM_ENABLED == cyPmClockBackup.pllEnableState)
 404:Generated_Source\PSoC5/cyPm.c ****     {
 405:Generated_Source\PSoC5/cyPm.c ****         /***********************************************************************
 406:Generated_Source\PSoC5/cyPm.c ****         * Enable PLL. The actual CyPLL_OUT_Start() without wait period uses FTW
 407:Generated_Source\PSoC5/cyPm.c ****         * for period measurement. This could cause a problem if CTW/FTW is used
 408:Generated_Source\PSoC5/cyPm.c ****         * as a wakeup time in the low power modes APIs. To omit this issue PLL
 409:Generated_Source\PSoC5/cyPm.c ****         * wait procedure is implemented with a software delay.
 410:Generated_Source\PSoC5/cyPm.c ****         ***********************************************************************/
 411:Generated_Source\PSoC5/cyPm.c ****         status = CYRET_TIMEOUT;
 412:Generated_Source\PSoC5/cyPm.c **** 
 413:Generated_Source\PSoC5/cyPm.c ****         /* Enable PLL */
 414:Generated_Source\PSoC5/cyPm.c ****         (void) CyPLL_OUT_Start(CY_PM_PLL_OUT_NO_WAIT);
 415:Generated_Source\PSoC5/cyPm.c **** 
 416:Generated_Source\PSoC5/cyPm.c ****         /* Read to clear lock status after delay */
 417:Generated_Source\PSoC5/cyPm.c ****         CyDelayUs((uint32)80u);
 418:Generated_Source\PSoC5/cyPm.c ****         (void) CY_PM_FASTCLK_PLL_SR_REG;
 419:Generated_Source\PSoC5/cyPm.c **** 
 420:Generated_Source\PSoC5/cyPm.c ****         /* It should take 250 us lock: 251-80 = 171 */
 421:Generated_Source\PSoC5/cyPm.c ****         for(i = 171u; i > 0u; i--)
 422:Generated_Source\PSoC5/cyPm.c ****         {
 423:Generated_Source\PSoC5/cyPm.c ****             CyDelayUs((uint32)1u);
 424:Generated_Source\PSoC5/cyPm.c **** 
 425:Generated_Source\PSoC5/cyPm.c ****             /* Accept PLL is OK after two consecutive polls indicate PLL lock */
 426:Generated_Source\PSoC5/cyPm.c ****             if((0u != (CY_PM_FASTCLK_PLL_SR_REG & CY_PM_FASTCLK_PLL_LOCKED)) &&
 427:Generated_Source\PSoC5/cyPm.c ****                (0u != (CY_PM_FASTCLK_PLL_SR_REG & CY_PM_FASTCLK_PLL_LOCKED)))
 428:Generated_Source\PSoC5/cyPm.c ****             {
 429:Generated_Source\PSoC5/cyPm.c ****                 status = CYRET_SUCCESS;
 430:Generated_Source\PSoC5/cyPm.c ****                 break;
ARM GAS  C:\Users\dmarsch\AppData\Local\Temp\ccqopW1v.s 			page 9


 431:Generated_Source\PSoC5/cyPm.c ****             }
 432:Generated_Source\PSoC5/cyPm.c ****         }
 433:Generated_Source\PSoC5/cyPm.c **** 
 434:Generated_Source\PSoC5/cyPm.c ****         if(CYRET_TIMEOUT == status)
 435:Generated_Source\PSoC5/cyPm.c ****         {
 436:Generated_Source\PSoC5/cyPm.c ****             /*******************************************************************
 437:Generated_Source\PSoC5/cyPm.c ****             * Process the situation when PLL is not ready.
 438:Generated_Source\PSoC5/cyPm.c ****             *******************************************************************/
 439:Generated_Source\PSoC5/cyPm.c ****            /* `#START_PLL_TIMEOUT` */
 440:Generated_Source\PSoC5/cyPm.c **** 
 441:Generated_Source\PSoC5/cyPm.c ****            /* `#END` */
 442:Generated_Source\PSoC5/cyPm.c **** 
 443:Generated_Source\PSoC5/cyPm.c ****         #ifdef CY_BOOT_CY_PM_RESTORE_CLOCKS_PLL_TIMEOUT_CALLBACK
 444:Generated_Source\PSoC5/cyPm.c ****             CyBoot_CyPmRestoreClocks_PllTimeout_Callback();
 445:Generated_Source\PSoC5/cyPm.c ****         #endif /* CY_BOOT_CY_PM_RESTORE_CLOCKS_PLL_TIMEOUT_CALLBACK */
 446:Generated_Source\PSoC5/cyPm.c ****         }
 447:Generated_Source\PSoC5/cyPm.c ****     }   /* (CY_PM_ENABLED == cyPmClockBackup.pllEnableState) */
 448:Generated_Source\PSoC5/cyPm.c **** 
 449:Generated_Source\PSoC5/cyPm.c **** 
 450:Generated_Source\PSoC5/cyPm.c ****     /* PLL and IMO is ready to be source for Master clock */
 451:Generated_Source\PSoC5/cyPm.c ****     if((CY_PM_MASTER_CLK_SRC_IMO == cyPmClockBackup.masterClkSrc) ||
 452:Generated_Source\PSoC5/cyPm.c ****        (CY_PM_MASTER_CLK_SRC_PLL == cyPmClockBackup.masterClkSrc))
 453:Generated_Source\PSoC5/cyPm.c ****     {
 454:Generated_Source\PSoC5/cyPm.c ****         /* Restore Master clock divider */
 455:Generated_Source\PSoC5/cyPm.c ****         if(CY_PM_CLKDIST_MSTR0_REG != cyPmClockBackup.clkSyncDiv)
 456:Generated_Source\PSoC5/cyPm.c ****         {
 457:Generated_Source\PSoC5/cyPm.c ****             CyMasterClk_SetDivider(cyPmClockBackup.clkSyncDiv);
 458:Generated_Source\PSoC5/cyPm.c ****         }
 459:Generated_Source\PSoC5/cyPm.c **** 
 460:Generated_Source\PSoC5/cyPm.c ****         /* Restore Master clock source */
 461:Generated_Source\PSoC5/cyPm.c ****         CyMasterClk_SetSource(cyPmClockBackup.masterClkSrc);
 462:Generated_Source\PSoC5/cyPm.c ****     }
 463:Generated_Source\PSoC5/cyPm.c **** 
 464:Generated_Source\PSoC5/cyPm.c ****     /* IMO - disable if it was originally disabled */
 465:Generated_Source\PSoC5/cyPm.c ****     if((CY_PM_DISABLED == cyPmClockBackup.imoEnable) &&
 466:Generated_Source\PSoC5/cyPm.c ****        (0u != (CY_PM_ACT_CFG0_IMO & CY_PM_ACT_CFG0_REG)))
 467:Generated_Source\PSoC5/cyPm.c ****     {
 468:Generated_Source\PSoC5/cyPm.c ****         CyIMO_Stop();
 469:Generated_Source\PSoC5/cyPm.c ****     }
 470:Generated_Source\PSoC5/cyPm.c **** 
 471:Generated_Source\PSoC5/cyPm.c ****     /* Bus clock - restore divider, if needed */
 472:Generated_Source\PSoC5/cyPm.c ****     clkBusDivTmp = (uint16) ((uint16)CY_PM_CLK_BUS_MSB_DIV_REG << 8u);
 473:Generated_Source\PSoC5/cyPm.c ****     clkBusDivTmp |= CY_PM_CLK_BUS_LSB_DIV_REG;
 474:Generated_Source\PSoC5/cyPm.c ****     if(cyPmClockBackup.clkBusDiv != clkBusDivTmp)
 475:Generated_Source\PSoC5/cyPm.c ****     {
 476:Generated_Source\PSoC5/cyPm.c ****         CyBusClk_SetDivider(cyPmClockBackup.clkBusDiv);
 477:Generated_Source\PSoC5/cyPm.c ****     }
 478:Generated_Source\PSoC5/cyPm.c **** 
 479:Generated_Source\PSoC5/cyPm.c ****     /* Restore flash wait cycles */
 480:Generated_Source\PSoC5/cyPm.c ****     CY_PM_CACHE_CR_REG = ((CY_PM_CACHE_CR_REG & ((uint8)(~CY_PM_CACHE_CR_CYCLES_MASK))) |
 481:Generated_Source\PSoC5/cyPm.c ****                            cyPmClockBackup.flashWaitCycles);
 482:Generated_Source\PSoC5/cyPm.c **** 
 483:Generated_Source\PSoC5/cyPm.c ****     /* Digital and analog clocks - restore state */
 484:Generated_Source\PSoC5/cyPm.c ****     CY_PM_ACT_CFG1_REG = cyPmClockBackup.enClkA;
 485:Generated_Source\PSoC5/cyPm.c ****     CY_PM_ACT_CFG2_REG = cyPmClockBackup.enClkD;
 486:Generated_Source\PSoC5/cyPm.c **** }
 487:Generated_Source\PSoC5/cyPm.c **** 
ARM GAS  C:\Users\dmarsch\AppData\Local\Temp\ccqopW1v.s 			page 10


 488:Generated_Source\PSoC5/cyPm.c **** 
 489:Generated_Source\PSoC5/cyPm.c **** /*******************************************************************************
 490:Generated_Source\PSoC5/cyPm.c **** * Function Name: CyPmAltAct
 491:Generated_Source\PSoC5/cyPm.c **** ****************************************************************************//**
 492:Generated_Source\PSoC5/cyPm.c **** *
 493:Generated_Source\PSoC5/cyPm.c **** *  Puts the part into the Alternate Active (Standby) state. The Alternate Active
 494:Generated_Source\PSoC5/cyPm.c **** *  state can allow for any of the capabilities of the device to be active, but
 495:Generated_Source\PSoC5/cyPm.c **** *  the operation of this function is dependent on the CPU being disabled during
 496:Generated_Source\PSoC5/cyPm.c **** *  the Alternate Active state. The configuration code and the component APIs
 497:Generated_Source\PSoC5/cyPm.c **** *  will configure the template for the Alternate Active state to be the same as
 498:Generated_Source\PSoC5/cyPm.c **** *  the Active state with the exception that the CPU will be disabled during
 499:Generated_Source\PSoC5/cyPm.c **** *  Alternate Active.
 500:Generated_Source\PSoC5/cyPm.c **** *
 501:Generated_Source\PSoC5/cyPm.c **** *  Note Before calling this function, you must manually configure the power mode
 502:Generated_Source\PSoC5/cyPm.c **** *  of the source clocks for the timer that is used as the wakeup timer.
 503:Generated_Source\PSoC5/cyPm.c **** *
 504:Generated_Source\PSoC5/cyPm.c **** *  PSoC 3:
 505:Generated_Source\PSoC5/cyPm.c **** *  Before switching to Alternate Active, if a wakeupTime other than NONE is
 506:Generated_Source\PSoC5/cyPm.c **** *  specified, then the appropriate timer state is configured as specified with
 507:Generated_Source\PSoC5/cyPm.c **** *  the interrupt for that timer disabled.  The wakeup source will be the
 508:Generated_Source\PSoC5/cyPm.c **** *  combination of the values specified in the wakeupSource and any timer
 509:Generated_Source\PSoC5/cyPm.c **** *  specified in the wakeupTime argument.  Once the wakeup condition is
 510:Generated_Source\PSoC5/cyPm.c **** *  satisfied, then all saved state is restored and the function returns in the
 511:Generated_Source\PSoC5/cyPm.c **** *  Active state.
 512:Generated_Source\PSoC5/cyPm.c **** *
 513:Generated_Source\PSoC5/cyPm.c **** *  Note that if the wakeupTime is made with a different value, the period before
 514:Generated_Source\PSoC5/cyPm.c **** *  the wakeup occurs can be significantly shorter than the specified time.  If
 515:Generated_Source\PSoC5/cyPm.c **** *  the next call is made with the same wakeupTime value, then the wakeup will
 516:Generated_Source\PSoC5/cyPm.c **** *  occur the specified period after the previous wakeup occurred.
 517:Generated_Source\PSoC5/cyPm.c **** *
 518:Generated_Source\PSoC5/cyPm.c **** *  If a wakeupTime other than NONE is specified, then upon exit the state of the
 519:Generated_Source\PSoC5/cyPm.c **** *  specified timer will be left as specified by wakeupTime with the timer
 520:Generated_Source\PSoC5/cyPm.c **** *  enabled and the interrupt disabled.  If the CTW, FTW or One PPS is already
 521:Generated_Source\PSoC5/cyPm.c **** *  configured for wakeup, for example with the SleepTimer or RTC components,
 522:Generated_Source\PSoC5/cyPm.c **** *  then specify NONE for the wakeupTime and include the appropriate source for
 523:Generated_Source\PSoC5/cyPm.c **** *  wakeupSource.
 524:Generated_Source\PSoC5/cyPm.c **** *
 525:Generated_Source\PSoC5/cyPm.c **** *  PSoC 5LP:
 526:Generated_Source\PSoC5/cyPm.c **** *  This function is used to both enter the Alternate Active mode and halt the
 527:Generated_Source\PSoC5/cyPm.c **** *  processor.  For PSoC 3 these two actions must be paired together.  With PSoC
 528:Generated_Source\PSoC5/cyPm.c **** *  5LP the processor can be halted independently with the __WFI() function from
 529:Generated_Source\PSoC5/cyPm.c **** *  the CMSIS library that is included in Creator.  This function should be used
 530:Generated_Source\PSoC5/cyPm.c **** *  instead when the action required is just to halt the processor until an
 531:Generated_Source\PSoC5/cyPm.c **** *  enabled interrupt occurs.
 532:Generated_Source\PSoC5/cyPm.c **** *
 533:Generated_Source\PSoC5/cyPm.c **** *  The wakeupTime parameter is not used for this device. It must be set to zero
 534:Generated_Source\PSoC5/cyPm.c **** *  (PM_ALT_ACT_TIME_NONE). The wake up time configuration can be done by a
 535:Generated_Source\PSoC5/cyPm.c **** *  separate component: the CTW wakeup interval should be configured with the
 536:Generated_Source\PSoC5/cyPm.c **** *  Sleep Timer component and one second interval should be configured with the
 537:Generated_Source\PSoC5/cyPm.c **** *  RTC component.
 538:Generated_Source\PSoC5/cyPm.c **** *
 539:Generated_Source\PSoC5/cyPm.c **** *  The wakeup behavior depends on the wakeupSource parameter in the following
 540:Generated_Source\PSoC5/cyPm.c **** *  manner: upon function execution the device will be switched from Active to
 541:Generated_Source\PSoC5/cyPm.c **** *  Alternate Active mode and then the CPU will be halted. When an enabled wakeup
 542:Generated_Source\PSoC5/cyPm.c **** *  event occurs the device will return to Active mode.  Similarly when an
 543:Generated_Source\PSoC5/cyPm.c **** *  enabled interrupt occurs the CPU will be started. These two actions will
 544:Generated_Source\PSoC5/cyPm.c **** *  occur together provided that the event that occurs is an enabled wakeup
ARM GAS  C:\Users\dmarsch\AppData\Local\Temp\ccqopW1v.s 			page 11


 545:Generated_Source\PSoC5/cyPm.c **** *  source and also generates an interrupt. If just the wakeup event occurs then
 546:Generated_Source\PSoC5/cyPm.c **** *  the device will be in Active mode, but the CPU will remain halted waiting for
 547:Generated_Source\PSoC5/cyPm.c **** *  an interrupt. If an interrupt occurs from something other than a wakeup
 548:Generated_Source\PSoC5/cyPm.c **** *  source, then the CPU will restart with the device in Alternate Active mode
 549:Generated_Source\PSoC5/cyPm.c **** *  until a wakeup event occurs.
 550:Generated_Source\PSoC5/cyPm.c **** *
 551:Generated_Source\PSoC5/cyPm.c **** *  For example, if CyPmAltAct(PM_ALT_ACT_TIME_NONE, PM_ALT_ACT_SRC_PICU) is
 552:Generated_Source\PSoC5/cyPm.c **** *  called and PICU interrupt occurs, the CPU will be started and device will be
 553:Generated_Source\PSoC5/cyPm.c **** *  switched into Active mode. And if CyPmAltAct(PM_ALT_ACT_TIME_NONE,
 554:Generated_Source\PSoC5/cyPm.c **** *  PM_ALT_ACT_SRC_NONE) is called and PICU interrupt occurs, the CPU will be
 555:Generated_Source\PSoC5/cyPm.c **** *  started while device remains in Alternate Active mode.
 556:Generated_Source\PSoC5/cyPm.c **** *
 557:Generated_Source\PSoC5/cyPm.c **** *  \param wakeupTime: Specifies a timer wakeup source and the frequency of that
 558:Generated_Source\PSoC5/cyPm.c **** *              source. For PSoC 5LP this parameter is ignored.
 559:Generated_Source\PSoC5/cyPm.c **** *
 560:Generated_Source\PSoC5/cyPm.c **** *           Define                      Time
 561:Generated_Source\PSoC5/cyPm.c **** *  PM_ALT_ACT_TIME_NONE             None
 562:Generated_Source\PSoC5/cyPm.c **** *  \param PM_ALT_ACT_TIME_ONE_PPS          One PPS: 1 second
 563:Generated_Source\PSoC5/cyPm.c **** *  \param PM_ALT_ACT_TIME_CTW_2MS          CTW: 2 ms
 564:Generated_Source\PSoC5/cyPm.c **** *  \param PM_ALT_ACT_TIME_CTW_4MS          CTW: 4 ms
 565:Generated_Source\PSoC5/cyPm.c **** *  \param PM_ALT_ACT_TIME_CTW_8MS          CTW: 8 ms
 566:Generated_Source\PSoC5/cyPm.c **** *  \param PM_ALT_ACT_TIME_CTW_16MS         CTW: 16 ms
 567:Generated_Source\PSoC5/cyPm.c **** *  \param PM_ALT_ACT_TIME_CTW_32MS         CTW: 32 ms
 568:Generated_Source\PSoC5/cyPm.c **** *  \param PM_ALT_ACT_TIME_CTW_64MS         CTW: 64 ms
 569:Generated_Source\PSoC5/cyPm.c **** *  \param PM_ALT_ACT_TIME_CTW_128MS        CTW: 128 ms
 570:Generated_Source\PSoC5/cyPm.c **** *  \param PM_ALT_ACT_TIME_CTW_256MS        CTW: 256 ms
 571:Generated_Source\PSoC5/cyPm.c **** *  \param PM_ALT_ACT_TIME_CTW_512MS        CTW: 512 ms
 572:Generated_Source\PSoC5/cyPm.c **** *  \param PM_ALT_ACT_TIME_CTW_1024MS       CTW: 1024 ms
 573:Generated_Source\PSoC5/cyPm.c **** *  \param PM_ALT_ACT_TIME_CTW_2048MS       CTW: 2048 ms
 574:Generated_Source\PSoC5/cyPm.c **** *  \param PM_ALT_ACT_TIME_CTW_4096MS       CTW: 4096 ms
 575:Generated_Source\PSoC5/cyPm.c **** *  PM_ALT_ACT_TIME_FTW(1-256)*       FTW: 10us to 2.56 ms
 576:Generated_Source\PSoC5/cyPm.c **** *
 577:Generated_Source\PSoC5/cyPm.c **** *  \param *Note:   PM_ALT_ACT_TIME_FTW() is a macro that takes an argument that
 578:Generated_Source\PSoC5/cyPm.c **** *           specifies how many increments of 10 us to delay.
 579:Generated_Source\PSoC5/cyPm.c ****             For PSoC 3 silicon the valid range of  values is 1 to 256.
 580:Generated_Source\PSoC5/cyPm.c **** *
 581:Generated_Source\PSoC5/cyPm.c **** *  \param wakeUpSource:    Specifies a bitwise mask of wakeup sources. In addition, if
 582:Generated_Source\PSoC5/cyPm.c **** *                   a wakeupTime has been specified, the associated timer will
 583:Generated_Source\PSoC5/cyPm.c **** *                   be included as a wakeup source.
 584:Generated_Source\PSoC5/cyPm.c **** *
 585:Generated_Source\PSoC5/cyPm.c **** *           Define                      Source
 586:Generated_Source\PSoC5/cyPm.c **** *  PM_ALT_ACT_SRC_NONE              None
 587:Generated_Source\PSoC5/cyPm.c **** *  PM_ALT_ACT_SRC_COMPARATOR0       Comparator 0
 588:Generated_Source\PSoC5/cyPm.c **** *  PM_ALT_ACT_SRC_COMPARATOR1       Comparator 1
 589:Generated_Source\PSoC5/cyPm.c **** *  PM_ALT_ACT_SRC_COMPARATOR2       Comparator 2
 590:Generated_Source\PSoC5/cyPm.c **** *  PM_ALT_ACT_SRC_COMPARATOR3       Comparator 3
 591:Generated_Source\PSoC5/cyPm.c **** *  PM_ALT_ACT_SRC_INTERRUPT         Interrupt
 592:Generated_Source\PSoC5/cyPm.c **** *  PM_ALT_ACT_SRC_PICU              PICU
 593:Generated_Source\PSoC5/cyPm.c **** *  PM_ALT_ACT_SRC_I2C               I2C
 594:Generated_Source\PSoC5/cyPm.c **** *  PM_ALT_ACT_SRC_BOOSTCONVERTER    Boost Converter
 595:Generated_Source\PSoC5/cyPm.c **** *  PM_ALT_ACT_SRC_FTW               Fast Timewheel*
 596:Generated_Source\PSoC5/cyPm.c **** *  PM_ALT_ACT_SRC_VD                High and Low Voltage Detection (HVI, LVI)*
 597:Generated_Source\PSoC5/cyPm.c **** *  PM_ALT_ACT_SRC_CTW               Central Timewheel**
 598:Generated_Source\PSoC5/cyPm.c **** *  PM_ALT_ACT_SRC_ONE_PPS           One PPS**
 599:Generated_Source\PSoC5/cyPm.c **** *  PM_ALT_ACT_SRC_LCD               LCD
 600:Generated_Source\PSoC5/cyPm.c **** *
 601:Generated_Source\PSoC5/cyPm.c **** *  \param *Note : FTW and HVI/LVI wakeup signals are in the same mask bit.
ARM GAS  C:\Users\dmarsch\AppData\Local\Temp\ccqopW1v.s 			page 12


 602:Generated_Source\PSoC5/cyPm.c **** *  \param **Note: CTW and One PPS wakeup signals are in the same mask bit.
 603:Generated_Source\PSoC5/cyPm.c **** *
 604:Generated_Source\PSoC5/cyPm.c **** *  When specifying a Comparator as the wakeupSource, an instance specific define
 605:Generated_Source\PSoC5/cyPm.c **** *  that will track with the specific comparator that the instance
 606:Generated_Source\PSoC5/cyPm.c **** *  is placed into should be used. As an example, for a Comparator instance named
 607:Generated_Source\PSoC5/cyPm.c **** *  \param MyComp the value to OR into the mask is: MyComp_ctComp__CMP_MASK.
 608:Generated_Source\PSoC5/cyPm.c **** *
 609:Generated_Source\PSoC5/cyPm.c **** *  When CTW, FTW or One PPS is used as a wakeup source, the CyPmReadStatus()
 610:Generated_Source\PSoC5/cyPm.c **** *  function must be called upon wakeup with a corresponding parameter. Please
 611:Generated_Source\PSoC5/cyPm.c **** *  refer to the CyPmReadStatus() API in the System Reference Guide for more
 612:Generated_Source\PSoC5/cyPm.c **** *  information.
 613:Generated_Source\PSoC5/cyPm.c **** *
 614:Generated_Source\PSoC5/cyPm.c **** * Reentrant:
 615:Generated_Source\PSoC5/cyPm.c **** *  No
 616:Generated_Source\PSoC5/cyPm.c **** *
 617:Generated_Source\PSoC5/cyPm.c **** * \sideeffect
 618:Generated_Source\PSoC5/cyPm.c **** *  If a wakeupTime other than NONE is specified, then upon exit the state of the
 619:Generated_Source\PSoC5/cyPm.c **** *  specified timer will be left as specified by wakeupTime with the timer
 620:Generated_Source\PSoC5/cyPm.c **** *  enabled and the interrupt disabled.  Also, the ILO 1 KHz (if CTW timer is
 621:Generated_Source\PSoC5/cyPm.c **** *  used as wakeup time) or ILO 100 KHz (if the FTW timer is used as wakeup time)
 622:Generated_Source\PSoC5/cyPm.c **** *  will be left started.
 623:Generated_Source\PSoC5/cyPm.c **** *
 624:Generated_Source\PSoC5/cyPm.c **** *******************************************************************************/
 625:Generated_Source\PSoC5/cyPm.c **** void CyPmAltAct(uint16 wakeupTime, uint16 wakeupSource) 
 626:Generated_Source\PSoC5/cyPm.c **** {
 627:Generated_Source\PSoC5/cyPm.c ****     #if(CY_PSOC5)
 628:Generated_Source\PSoC5/cyPm.c **** 
 629:Generated_Source\PSoC5/cyPm.c ****         /* Arguments expected to be 0 */
 630:Generated_Source\PSoC5/cyPm.c ****         CYASSERT(PM_ALT_ACT_TIME_NONE == wakeupTime);
 631:Generated_Source\PSoC5/cyPm.c **** 
 632:Generated_Source\PSoC5/cyPm.c ****         if(0u != wakeupTime)
 633:Generated_Source\PSoC5/cyPm.c ****         {
 634:Generated_Source\PSoC5/cyPm.c ****             /* To remove unreferenced local variable warning */
 635:Generated_Source\PSoC5/cyPm.c ****         }
 636:Generated_Source\PSoC5/cyPm.c **** 
 637:Generated_Source\PSoC5/cyPm.c ****     #endif /* (CY_PSOC5) */
 638:Generated_Source\PSoC5/cyPm.c **** 
 639:Generated_Source\PSoC5/cyPm.c **** 
 640:Generated_Source\PSoC5/cyPm.c ****     #if(CY_PSOC3)
 641:Generated_Source\PSoC5/cyPm.c **** 
 642:Generated_Source\PSoC5/cyPm.c ****         /* FTW - save current and set new configuration */
 643:Generated_Source\PSoC5/cyPm.c ****         if((wakeupTime >= PM_ALT_ACT_TIME_FTW(1u)) && (wakeupTime <= PM_ALT_ACT_TIME_FTW(256u)))
 644:Generated_Source\PSoC5/cyPm.c ****         {
 645:Generated_Source\PSoC5/cyPm.c ****             CyPmFtwSetInterval(PM_ALT_ACT_FTW_INTERVAL(wakeupTime));
 646:Generated_Source\PSoC5/cyPm.c **** 
 647:Generated_Source\PSoC5/cyPm.c ****             /* Include associated timer to wakeupSource */
 648:Generated_Source\PSoC5/cyPm.c ****             wakeupSource |= PM_ALT_ACT_SRC_FTW;
 649:Generated_Source\PSoC5/cyPm.c ****         }
 650:Generated_Source\PSoC5/cyPm.c **** 
 651:Generated_Source\PSoC5/cyPm.c ****         /* CTW - save current and set new configuration */
 652:Generated_Source\PSoC5/cyPm.c ****         if((wakeupTime >= PM_ALT_ACT_TIME_CTW_2MS) && (wakeupTime <= PM_ALT_ACT_TIME_CTW_4096MS))
 653:Generated_Source\PSoC5/cyPm.c ****         {
 654:Generated_Source\PSoC5/cyPm.c ****             /* Save current CTW configuration and set new one */
 655:Generated_Source\PSoC5/cyPm.c ****             CyPmCtwSetInterval((uint8)(wakeupTime - 1u));
 656:Generated_Source\PSoC5/cyPm.c **** 
 657:Generated_Source\PSoC5/cyPm.c ****             /* Include associated timer to wakeupSource */
 658:Generated_Source\PSoC5/cyPm.c ****             wakeupSource |= PM_ALT_ACT_SRC_CTW;
ARM GAS  C:\Users\dmarsch\AppData\Local\Temp\ccqopW1v.s 			page 13


 659:Generated_Source\PSoC5/cyPm.c ****         }
 660:Generated_Source\PSoC5/cyPm.c **** 
 661:Generated_Source\PSoC5/cyPm.c ****         /* 1PPS - save current and set new configuration */
 662:Generated_Source\PSoC5/cyPm.c ****         if(PM_ALT_ACT_TIME_ONE_PPS == wakeupTime)
 663:Generated_Source\PSoC5/cyPm.c ****         {
 664:Generated_Source\PSoC5/cyPm.c ****             /* Save current 1PPS configuration and set new one */
 665:Generated_Source\PSoC5/cyPm.c ****             CyPmOppsSet();
 666:Generated_Source\PSoC5/cyPm.c **** 
 667:Generated_Source\PSoC5/cyPm.c ****             /* Include associated timer to wakeupSource */
 668:Generated_Source\PSoC5/cyPm.c ****             wakeupSource |= PM_ALT_ACT_SRC_ONE_PPS;
 669:Generated_Source\PSoC5/cyPm.c ****         }
 670:Generated_Source\PSoC5/cyPm.c **** 
 671:Generated_Source\PSoC5/cyPm.c ****     #endif /* (CY_PSOC3) */
 672:Generated_Source\PSoC5/cyPm.c **** 
 673:Generated_Source\PSoC5/cyPm.c **** 
 674:Generated_Source\PSoC5/cyPm.c ****     /* Save and set new wake up configuration */
 675:Generated_Source\PSoC5/cyPm.c **** 
 676:Generated_Source\PSoC5/cyPm.c ****     /* Interrupt, PICU, I2C, Boost converter, CTW/1PPS */
 677:Generated_Source\PSoC5/cyPm.c ****     cyPmBackup.wakeupCfg0 = CY_PM_WAKEUP_CFG0_REG;
 678:Generated_Source\PSoC5/cyPm.c ****     CY_PM_WAKEUP_CFG0_REG = (uint8) (wakeupSource >> 4u);
 679:Generated_Source\PSoC5/cyPm.c **** 
 680:Generated_Source\PSoC5/cyPm.c ****     /* Comparators */
 681:Generated_Source\PSoC5/cyPm.c ****     cyPmBackup.wakeupCfg1 = CY_PM_WAKEUP_CFG1_REG;
 682:Generated_Source\PSoC5/cyPm.c ****     CY_PM_WAKEUP_CFG1_REG = (((uint8) wakeupSource) & CY_PM_WAKEUP_SRC_CMPS_MASK);
 683:Generated_Source\PSoC5/cyPm.c **** 
 684:Generated_Source\PSoC5/cyPm.c ****     /* LCD */
 685:Generated_Source\PSoC5/cyPm.c ****     cyPmBackup.wakeupCfg2 = CY_PM_WAKEUP_CFG2_REG;
 686:Generated_Source\PSoC5/cyPm.c ****     CY_PM_WAKEUP_CFG2_REG = ((uint8) ((wakeupSource >> 12u) & 0x01u));
 687:Generated_Source\PSoC5/cyPm.c **** 
 688:Generated_Source\PSoC5/cyPm.c **** 
 689:Generated_Source\PSoC5/cyPm.c ****     /* Switch to the Alternate Active mode */
 690:Generated_Source\PSoC5/cyPm.c ****     CY_PM_MODE_CSR_REG = ((CY_PM_MODE_CSR_REG & ((uint8)(~CY_PM_MODE_CSR_MASK))) | CY_PM_MODE_CSR_A
 691:Generated_Source\PSoC5/cyPm.c **** 
 692:Generated_Source\PSoC5/cyPm.c ****     /* Recommended readback. */
 693:Generated_Source\PSoC5/cyPm.c ****     (void) CY_PM_MODE_CSR_REG;
 694:Generated_Source\PSoC5/cyPm.c **** 
 695:Generated_Source\PSoC5/cyPm.c ****     /* Two recommended NOPs to get into the mode. */
 696:Generated_Source\PSoC5/cyPm.c ****     CY_NOP;
 697:Generated_Source\PSoC5/cyPm.c ****     CY_NOP;
 698:Generated_Source\PSoC5/cyPm.c **** 
 699:Generated_Source\PSoC5/cyPm.c ****     /* Execute WFI instruction (for ARM-based devices only) */
 700:Generated_Source\PSoC5/cyPm.c ****     CY_PM_WFI;
 701:Generated_Source\PSoC5/cyPm.c **** 
 702:Generated_Source\PSoC5/cyPm.c ****     /* Point of return from Alternate Active Mode */
 703:Generated_Source\PSoC5/cyPm.c **** 
 704:Generated_Source\PSoC5/cyPm.c ****     /* Restore wake up configuration */
 705:Generated_Source\PSoC5/cyPm.c ****     CY_PM_WAKEUP_CFG0_REG = cyPmBackup.wakeupCfg0;
 706:Generated_Source\PSoC5/cyPm.c ****     CY_PM_WAKEUP_CFG1_REG = cyPmBackup.wakeupCfg1;
 707:Generated_Source\PSoC5/cyPm.c ****     CY_PM_WAKEUP_CFG2_REG = cyPmBackup.wakeupCfg2;
 708:Generated_Source\PSoC5/cyPm.c **** }
 709:Generated_Source\PSoC5/cyPm.c **** 
 710:Generated_Source\PSoC5/cyPm.c **** 
 711:Generated_Source\PSoC5/cyPm.c **** /*******************************************************************************
 712:Generated_Source\PSoC5/cyPm.c **** * Function Name: CyPmSleep
 713:Generated_Source\PSoC5/cyPm.c **** ****************************************************************************//**
 714:Generated_Source\PSoC5/cyPm.c **** *
 715:Generated_Source\PSoC5/cyPm.c **** *  Puts the part into the Sleep state.
ARM GAS  C:\Users\dmarsch\AppData\Local\Temp\ccqopW1v.s 			page 14


 716:Generated_Source\PSoC5/cyPm.c **** *
 717:Generated_Source\PSoC5/cyPm.c **** *  Note Before calling this function, you must manually configure the power
 718:Generated_Source\PSoC5/cyPm.c **** *  mode of the source clocks for the timer that is used as the wakeup timer.
 719:Generated_Source\PSoC5/cyPm.c **** *
 720:Generated_Source\PSoC5/cyPm.c **** *  Note Before calling this function, you must prepare clock tree configuration
 721:Generated_Source\PSoC5/cyPm.c **** *  for the low power mode by calling CyPmSaveClocks(). And restore clock
 722:Generated_Source\PSoC5/cyPm.c **** *  configuration after CyPmSleep() execution by calling CyPmRestoreClocks(). See
 723:Generated_Source\PSoC5/cyPm.c **** *  Power Management section, Clock Configuration subsection of the System
 724:Generated_Source\PSoC5/cyPm.c **** *  Reference Guide for more information.
 725:Generated_Source\PSoC5/cyPm.c **** *
 726:Generated_Source\PSoC5/cyPm.c **** *  PSoC 3:
 727:Generated_Source\PSoC5/cyPm.c **** *  Before switching to Sleep, if a wakeupTime other than NONE is specified,
 728:Generated_Source\PSoC5/cyPm.c **** *  then the appropriate timer state is configured as specified with the
 729:Generated_Source\PSoC5/cyPm.c **** *  interrupt for that timer disabled.  The wakeup source will be a combination
 730:Generated_Source\PSoC5/cyPm.c **** *  of the values specified in the wakeupSource and any timer specified in the
 731:Generated_Source\PSoC5/cyPm.c **** *  wakeupTime argument.  Once the wakeup condition is satisfied, then all saved
 732:Generated_Source\PSoC5/cyPm.c **** *  state is restored and the function returns in the Active state.
 733:Generated_Source\PSoC5/cyPm.c **** *
 734:Generated_Source\PSoC5/cyPm.c **** *  Note that if the wakeupTime is made with a different value, the period before
 735:Generated_Source\PSoC5/cyPm.c **** *  the wakeup occurs can be significantly shorter than the specified time.  If
 736:Generated_Source\PSoC5/cyPm.c **** *  the next call is made with the same wakeupTime value, then the wakeup will
 737:Generated_Source\PSoC5/cyPm.c **** *  occur the specified period after the previous wakeup occurred.
 738:Generated_Source\PSoC5/cyPm.c **** *
 739:Generated_Source\PSoC5/cyPm.c **** *  If a wakeupTime other than NONE is specified, then upon exit the state of the
 740:Generated_Source\PSoC5/cyPm.c **** *  specified timer will be left as specified by wakeupTime with the timer
 741:Generated_Source\PSoC5/cyPm.c **** *  enabled and the interrupt disabled.  If the CTW or One PPS is already
 742:Generated_Source\PSoC5/cyPm.c **** *  configured for wakeup, for example with the SleepTimer or RTC components,
 743:Generated_Source\PSoC5/cyPm.c **** *  then specify NONE for the wakeupTime and include the appropriate source for
 744:Generated_Source\PSoC5/cyPm.c **** *  wakeupSource.
 745:Generated_Source\PSoC5/cyPm.c **** *
 746:Generated_Source\PSoC5/cyPm.c **** *  PSoC 5LP:
 747:Generated_Source\PSoC5/cyPm.c **** *  The wakeupTime parameter is not used and the only NONE can be specified.
 748:Generated_Source\PSoC5/cyPm.c **** *  The wakeup time must be configured with the component, SleepTimer for CTW
 749:Generated_Source\PSoC5/cyPm.c **** *  intervals and RTC for 1PPS interval. The component must be configured to
 750:Generated_Source\PSoC5/cyPm.c **** *  generate interrupt.
 751:Generated_Source\PSoC5/cyPm.c **** *
 752:Generated_Source\PSoC5/cyPm.c **** *  \param wakeupTime:      Specifies a timer wakeup source and the frequency of that
 753:Generated_Source\PSoC5/cyPm.c **** *                   source. For PSoC 5LP, this parameter is ignored.
 754:Generated_Source\PSoC5/cyPm.c **** *
 755:Generated_Source\PSoC5/cyPm.c **** *           Define                      Time
 756:Generated_Source\PSoC5/cyPm.c **** *  PM_SLEEP_TIME_NONE               None
 757:Generated_Source\PSoC5/cyPm.c **** *  \param PM_SLEEP_TIME_ONE_PPS            One PPS: 1 second
 758:Generated_Source\PSoC5/cyPm.c **** *  \param PM_SLEEP_TIME_CTW_2MS            CTW: 2 ms
 759:Generated_Source\PSoC5/cyPm.c **** *  \param PM_SLEEP_TIME_CTW_4MS            CTW: 4 ms
 760:Generated_Source\PSoC5/cyPm.c **** *  \param PM_SLEEP_TIME_CTW_8MS            CTW: 8 ms
 761:Generated_Source\PSoC5/cyPm.c **** *  \param PM_SLEEP_TIME_CTW_16MS           CTW: 16 ms
 762:Generated_Source\PSoC5/cyPm.c **** *  \param PM_SLEEP_TIME_CTW_32MS           CTW: 32 ms
 763:Generated_Source\PSoC5/cyPm.c **** *  \param PM_SLEEP_TIME_CTW_64MS           CTW: 64 ms
 764:Generated_Source\PSoC5/cyPm.c **** *  \param PM_SLEEP_TIME_CTW_128MS          CTW: 128 ms
 765:Generated_Source\PSoC5/cyPm.c **** *  \param PM_SLEEP_TIME_CTW_256MS          CTW: 256 ms
 766:Generated_Source\PSoC5/cyPm.c **** *  \param PM_SLEEP_TIME_CTW_512MS          CTW: 512 ms
 767:Generated_Source\PSoC5/cyPm.c **** *  \param PM_SLEEP_TIME_CTW_1024MS         CTW: 1024 ms
 768:Generated_Source\PSoC5/cyPm.c **** *  \param PM_SLEEP_TIME_CTW_2048MS         CTW: 2048 ms
 769:Generated_Source\PSoC5/cyPm.c **** *  \param PM_SLEEP_TIME_CTW_4096MS         CTW: 4096 ms
 770:Generated_Source\PSoC5/cyPm.c **** *
 771:Generated_Source\PSoC5/cyPm.c **** *  \param wakeUpSource:    Specifies a bitwise mask of wakeup sources. In addition, if
 772:Generated_Source\PSoC5/cyPm.c **** *                   a wakeupTime has been specified the associated timer will be
ARM GAS  C:\Users\dmarsch\AppData\Local\Temp\ccqopW1v.s 			page 15


 773:Generated_Source\PSoC5/cyPm.c **** *                   included as a wakeup source.
 774:Generated_Source\PSoC5/cyPm.c **** *
 775:Generated_Source\PSoC5/cyPm.c **** *           Define                      Source
 776:Generated_Source\PSoC5/cyPm.c **** *  PM_SLEEP_SRC_NONE                None
 777:Generated_Source\PSoC5/cyPm.c **** *  PM_SLEEP_SRC_COMPARATOR0         Comparator 0
 778:Generated_Source\PSoC5/cyPm.c **** *  PM_SLEEP_SRC_COMPARATOR1         Comparator 1
 779:Generated_Source\PSoC5/cyPm.c **** *  PM_SLEEP_SRC_COMPARATOR2         Comparator 2
 780:Generated_Source\PSoC5/cyPm.c **** *  PM_SLEEP_SRC_COMPARATOR3         Comparator 3
 781:Generated_Source\PSoC5/cyPm.c **** *  PM_SLEEP_SRC_PICU                PICU
 782:Generated_Source\PSoC5/cyPm.c **** *  PM_SLEEP_SRC_I2C                 I2C
 783:Generated_Source\PSoC5/cyPm.c **** *  PM_SLEEP_SRC_BOOSTCONVERTER      Boost Converter
 784:Generated_Source\PSoC5/cyPm.c **** *  PM_SLEEP_SRC_VD                  High and Low Voltage Detection (HVI, LVI)
 785:Generated_Source\PSoC5/cyPm.c **** *  PM_SLEEP_SRC_CTW                 Central Timewheel*
 786:Generated_Source\PSoC5/cyPm.c **** *  PM_SLEEP_SRC_ONE_PPS             One PPS*
 787:Generated_Source\PSoC5/cyPm.c **** *  PM_SLEEP_SRC_LCD                 LCD
 788:Generated_Source\PSoC5/cyPm.c **** *
 789:Generated_Source\PSoC5/cyPm.c **** *  \param *Note:   CTW and One PPS wakeup signals are in the same mask bit.
 790:Generated_Source\PSoC5/cyPm.c **** *
 791:Generated_Source\PSoC5/cyPm.c **** *  When specifying a Comparator as the wakeupSource an instance specific define
 792:Generated_Source\PSoC5/cyPm.c **** *  should be used that will track with the specific comparator that the instance
 793:Generated_Source\PSoC5/cyPm.c **** *  is placed into. As an example for a Comparator instance named MyComp the
 794:Generated_Source\PSoC5/cyPm.c **** *  \param value to OR into the mask is: MyComp_ctComp__CMP_MASK.
 795:Generated_Source\PSoC5/cyPm.c **** *
 796:Generated_Source\PSoC5/cyPm.c **** *  When CTW or One PPS is used as a wakeup source, the CyPmReadStatus()
 797:Generated_Source\PSoC5/cyPm.c **** *  function must be called upon wakeup with corresponding parameter. Please
 798:Generated_Source\PSoC5/cyPm.c **** *  refer to the CyPmReadStatus() API in the System Reference Guide for more
 799:Generated_Source\PSoC5/cyPm.c **** *  information.
 800:Generated_Source\PSoC5/cyPm.c **** *
 801:Generated_Source\PSoC5/cyPm.c **** * Reentrant:
 802:Generated_Source\PSoC5/cyPm.c **** *  No
 803:Generated_Source\PSoC5/cyPm.c **** *
 804:Generated_Source\PSoC5/cyPm.c **** * Side Effects and Restrictions:
 805:Generated_Source\PSoC5/cyPm.c **** *  If a wakeupTime other than NONE is specified, then upon exit the state of the
 806:Generated_Source\PSoC5/cyPm.c **** *  specified timer will be left as specified by wakeupTime with the timer
 807:Generated_Source\PSoC5/cyPm.c **** *  enabled and the interrupt disabled. Also, the ILO 1 KHz (if CTW timer is
 808:Generated_Source\PSoC5/cyPm.c **** *  used as wake up time) will be left started.
 809:Generated_Source\PSoC5/cyPm.c **** *
 810:Generated_Source\PSoC5/cyPm.c **** *  The 1 kHz ILO clock is expected to be enabled for PSoC 3 and PSoC 5LP to
 811:Generated_Source\PSoC5/cyPm.c **** *  measure Hibernate/Sleep regulator settling time after a reset. The holdoff
 812:Generated_Source\PSoC5/cyPm.c **** *  delay is measured using rising edges of the 1 kHz ILO.
 813:Generated_Source\PSoC5/cyPm.c **** *
 814:Generated_Source\PSoC5/cyPm.c **** *  For PSoC 3 silicon hardware buzz should be disabled before entering a sleep
 815:Generated_Source\PSoC5/cyPm.c **** *  power mode. It is disabled by PSoC Creator during startup.
 816:Generated_Source\PSoC5/cyPm.c **** *  If a Low Voltage Interrupt (LVI), High Voltage Interrupt (HVI) or Brown Out
 817:Generated_Source\PSoC5/cyPm.c **** *  detect (power supply supervising capabilities) are required in a design
 818:Generated_Source\PSoC5/cyPm.c **** *  during sleep, use the Central Time Wheel (CTW) to periodically wake the
 819:Generated_Source\PSoC5/cyPm.c **** *  device, perform software buzz, and refresh the supervisory services. If LVI,
 820:Generated_Source\PSoC5/cyPm.c **** *  HVI, or Brown Out is not required, then CTW is not required.
 821:Generated_Source\PSoC5/cyPm.c **** *  Refer to the device errata for more information.
 822:Generated_Source\PSoC5/cyPm.c **** *
 823:Generated_Source\PSoC5/cyPm.c **** *******************************************************************************/
 824:Generated_Source\PSoC5/cyPm.c **** void CyPmSleep(uint8 wakeupTime, uint16 wakeupSource) 
 825:Generated_Source\PSoC5/cyPm.c **** {
 826:Generated_Source\PSoC5/cyPm.c ****     uint8 interruptState;
 827:Generated_Source\PSoC5/cyPm.c **** 
 828:Generated_Source\PSoC5/cyPm.c ****     /* Save current global interrupt enable and disable it */
 829:Generated_Source\PSoC5/cyPm.c ****     interruptState = CyEnterCriticalSection();
ARM GAS  C:\Users\dmarsch\AppData\Local\Temp\ccqopW1v.s 			page 16


 830:Generated_Source\PSoC5/cyPm.c **** 
 831:Generated_Source\PSoC5/cyPm.c **** 
 832:Generated_Source\PSoC5/cyPm.c ****     /***********************************************************************
 833:Generated_Source\PSoC5/cyPm.c ****     * The Hibernate/Sleep regulator has a settling time after a reset.
 834:Generated_Source\PSoC5/cyPm.c ****     * During this time, the system ignores requests to enter Sleep and
 835:Generated_Source\PSoC5/cyPm.c ****     * Hibernate modes. The holdoff delay is measured using rising edges of
 836:Generated_Source\PSoC5/cyPm.c ****     * the 1 kHz ILO.
 837:Generated_Source\PSoC5/cyPm.c ****     ***********************************************************************/
 838:Generated_Source\PSoC5/cyPm.c ****     if(0u == (CY_PM_MODE_CSR_REG & CY_PM_MODE_CSR_PWRUP_PULSE_Q))
 839:Generated_Source\PSoC5/cyPm.c ****     {
 840:Generated_Source\PSoC5/cyPm.c ****         /* Disable hold off - no action on restore */
 841:Generated_Source\PSoC5/cyPm.c ****         CY_PM_PWRSYS_SLP_TR_REG &= CY_PM_PWRSYS_SLP_TR_HIBSLP_HOLDOFF_MASK;
 842:Generated_Source\PSoC5/cyPm.c ****     }
 843:Generated_Source\PSoC5/cyPm.c ****     else
 844:Generated_Source\PSoC5/cyPm.c ****     {
 845:Generated_Source\PSoC5/cyPm.c ****         /* Abort, device is not ready for low power mode entry */
 846:Generated_Source\PSoC5/cyPm.c **** 
 847:Generated_Source\PSoC5/cyPm.c ****         /* Restore global interrupt enable state */
 848:Generated_Source\PSoC5/cyPm.c ****         CyExitCriticalSection(interruptState);
 849:Generated_Source\PSoC5/cyPm.c **** 
 850:Generated_Source\PSoC5/cyPm.c ****         return;
 851:Generated_Source\PSoC5/cyPm.c ****     }
 852:Generated_Source\PSoC5/cyPm.c **** 
 853:Generated_Source\PSoC5/cyPm.c **** 
 854:Generated_Source\PSoC5/cyPm.c ****     /***********************************************************************
 855:Generated_Source\PSoC5/cyPm.c ****     * PSoC3 < TO6:
 856:Generated_Source\PSoC5/cyPm.c ****     * - Hardware buzz must be disabled before the sleep mode entry.
 857:Generated_Source\PSoC5/cyPm.c ****     * - Voltage supervision (HVI/LVI) requires hardware buzz, so they must
 858:Generated_Source\PSoC5/cyPm.c ****     *   be also disabled.
 859:Generated_Source\PSoC5/cyPm.c ****     *
 860:Generated_Source\PSoC5/cyPm.c ****     * PSoC3 >= TO6:
 861:Generated_Source\PSoC5/cyPm.c ****     * - Voltage supervision (HVI/LVI) requires hardware buzz, so hardware
 862:Generated_Source\PSoC5/cyPm.c ****     *   buzz must be enabled before the sleep mode entry and restored on
 863:Generated_Source\PSoC5/cyPm.c ****     *   the wakeup.
 864:Generated_Source\PSoC5/cyPm.c ****     ***********************************************************************/
 865:Generated_Source\PSoC5/cyPm.c ****     #if(CY_PSOC3)
 866:Generated_Source\PSoC5/cyPm.c **** 
 867:Generated_Source\PSoC5/cyPm.c ****         /* Silicon Revision ID is below TO6 */
 868:Generated_Source\PSoC5/cyPm.c ****         if(CYDEV_CHIP_REV_ACTUAL < 5u)
 869:Generated_Source\PSoC5/cyPm.c ****         {
 870:Generated_Source\PSoC5/cyPm.c ****             /* Hardware buzz expected to be disabled in Sleep mode */
 871:Generated_Source\PSoC5/cyPm.c ****             CYASSERT(0u == (CY_PM_PWRSYS_WAKE_TR2_REG & CY_PM_PWRSYS_WAKE_TR2_EN_BUZZ));
 872:Generated_Source\PSoC5/cyPm.c ****         }
 873:Generated_Source\PSoC5/cyPm.c **** 
 874:Generated_Source\PSoC5/cyPm.c **** 
 875:Generated_Source\PSoC5/cyPm.c ****         if(0u != (CY_PM_RESET_CR1_REG & (CY_PM_RESET_CR1_HVIA_EN |
 876:Generated_Source\PSoC5/cyPm.c ****             CY_PM_RESET_CR1_LVIA_EN | CY_PM_RESET_CR1_LVID_EN)))
 877:Generated_Source\PSoC5/cyPm.c ****         {
 878:Generated_Source\PSoC5/cyPm.c ****             if(CYDEV_CHIP_REV_ACTUAL < 5u)
 879:Generated_Source\PSoC5/cyPm.c ****             {
 880:Generated_Source\PSoC5/cyPm.c ****                 /* LVI/HVI requires hardware buzz to be enabled */
 881:Generated_Source\PSoC5/cyPm.c ****                 CYASSERT(0u != 0u);
 882:Generated_Source\PSoC5/cyPm.c ****             }
 883:Generated_Source\PSoC5/cyPm.c ****             else
 884:Generated_Source\PSoC5/cyPm.c ****             {
 885:Generated_Source\PSoC5/cyPm.c ****                 if (0u == (CY_PM_PWRSYS_WAKE_TR2_REG & CY_PM_PWRSYS_WAKE_TR2_EN_BUZZ))
 886:Generated_Source\PSoC5/cyPm.c ****                 {
ARM GAS  C:\Users\dmarsch\AppData\Local\Temp\ccqopW1v.s 			page 17


 887:Generated_Source\PSoC5/cyPm.c ****                     cyPmBackup.hardwareBuzz = CY_PM_DISABLED;
 888:Generated_Source\PSoC5/cyPm.c ****                     CY_PM_PWRSYS_WAKE_TR2_REG |= CY_PM_PWRSYS_WAKE_TR2_EN_BUZZ;
 889:Generated_Source\PSoC5/cyPm.c ****                 }
 890:Generated_Source\PSoC5/cyPm.c ****                 else
 891:Generated_Source\PSoC5/cyPm.c ****                 {
 892:Generated_Source\PSoC5/cyPm.c ****                     cyPmBackup.hardwareBuzz = CY_PM_ENABLED;
 893:Generated_Source\PSoC5/cyPm.c ****                 }
 894:Generated_Source\PSoC5/cyPm.c ****             }
 895:Generated_Source\PSoC5/cyPm.c ****         }
 896:Generated_Source\PSoC5/cyPm.c **** 
 897:Generated_Source\PSoC5/cyPm.c ****     #endif /* (CY_PSOC3) */
 898:Generated_Source\PSoC5/cyPm.c **** 
 899:Generated_Source\PSoC5/cyPm.c **** 
 900:Generated_Source\PSoC5/cyPm.c ****     /*******************************************************************************
 901:Generated_Source\PSoC5/cyPm.c ****     * For ARM-based devices,interrupt is required for the CPU to wake up. The
 902:Generated_Source\PSoC5/cyPm.c ****     * Power Management implementation assumes that wakeup time is configured with a
 903:Generated_Source\PSoC5/cyPm.c ****     * separate component (component-based wakeup time configuration) for
 904:Generated_Source\PSoC5/cyPm.c ****     * interrupt to be issued on terminal count. For more information, refer to the
 905:Generated_Source\PSoC5/cyPm.c ****     * Wakeup Time Configuration section of System Reference Guide.
 906:Generated_Source\PSoC5/cyPm.c ****     *******************************************************************************/
 907:Generated_Source\PSoC5/cyPm.c ****     #if(CY_PSOC5)
 908:Generated_Source\PSoC5/cyPm.c **** 
 909:Generated_Source\PSoC5/cyPm.c ****         /* Arguments expected to be 0 */
 910:Generated_Source\PSoC5/cyPm.c ****         CYASSERT(PM_SLEEP_TIME_NONE == wakeupTime);
 911:Generated_Source\PSoC5/cyPm.c **** 
 912:Generated_Source\PSoC5/cyPm.c ****         if(0u != wakeupTime)
 913:Generated_Source\PSoC5/cyPm.c ****         {
 914:Generated_Source\PSoC5/cyPm.c ****             /* To remove unreferenced local variable warning */
 915:Generated_Source\PSoC5/cyPm.c ****         }
 916:Generated_Source\PSoC5/cyPm.c **** 
 917:Generated_Source\PSoC5/cyPm.c ****     #endif /* (CY_PSOC5) */
 918:Generated_Source\PSoC5/cyPm.c **** 
 919:Generated_Source\PSoC5/cyPm.c **** 
 920:Generated_Source\PSoC5/cyPm.c ****     CyPmHibSlpSaveSet();
 921:Generated_Source\PSoC5/cyPm.c **** 
 922:Generated_Source\PSoC5/cyPm.c **** 
 923:Generated_Source\PSoC5/cyPm.c ****     #if(CY_PSOC3)
 924:Generated_Source\PSoC5/cyPm.c **** 
 925:Generated_Source\PSoC5/cyPm.c ****         /* CTW - save current and set new configuration */
 926:Generated_Source\PSoC5/cyPm.c ****         if((wakeupTime >= PM_SLEEP_TIME_CTW_2MS) && (wakeupTime <= PM_SLEEP_TIME_CTW_4096MS))
 927:Generated_Source\PSoC5/cyPm.c ****         {
 928:Generated_Source\PSoC5/cyPm.c ****             /* Save current and set new configuration of CTW */
 929:Generated_Source\PSoC5/cyPm.c ****             CyPmCtwSetInterval((uint8)(wakeupTime - 1u));
 930:Generated_Source\PSoC5/cyPm.c **** 
 931:Generated_Source\PSoC5/cyPm.c ****             /* Include associated timer to wakeupSource */
 932:Generated_Source\PSoC5/cyPm.c ****             wakeupSource |= PM_SLEEP_SRC_CTW;
 933:Generated_Source\PSoC5/cyPm.c ****         }
 934:Generated_Source\PSoC5/cyPm.c **** 
 935:Generated_Source\PSoC5/cyPm.c ****         /* 1PPS - save current and set new configuration */
 936:Generated_Source\PSoC5/cyPm.c ****         if(PM_SLEEP_TIME_ONE_PPS == wakeupTime)
 937:Generated_Source\PSoC5/cyPm.c ****         {
 938:Generated_Source\PSoC5/cyPm.c ****             /* Save current and set new configuration of the 1PPS */
 939:Generated_Source\PSoC5/cyPm.c ****             CyPmOppsSet();
 940:Generated_Source\PSoC5/cyPm.c **** 
 941:Generated_Source\PSoC5/cyPm.c ****             /* Include associated timer to wakeupSource */
 942:Generated_Source\PSoC5/cyPm.c ****             wakeupSource |= PM_SLEEP_SRC_ONE_PPS;
 943:Generated_Source\PSoC5/cyPm.c ****         }
ARM GAS  C:\Users\dmarsch\AppData\Local\Temp\ccqopW1v.s 			page 18


 944:Generated_Source\PSoC5/cyPm.c **** 
 945:Generated_Source\PSoC5/cyPm.c ****     #endif /* (CY_PSOC3) */
 946:Generated_Source\PSoC5/cyPm.c **** 
 947:Generated_Source\PSoC5/cyPm.c **** 
 948:Generated_Source\PSoC5/cyPm.c ****     /* Save and set new wake up configuration */
 949:Generated_Source\PSoC5/cyPm.c **** 
 950:Generated_Source\PSoC5/cyPm.c ****     /* Interrupt, PICU, I2C, Boost converter, CTW/1PPS */
 951:Generated_Source\PSoC5/cyPm.c ****     cyPmBackup.wakeupCfg0 = CY_PM_WAKEUP_CFG0_REG;
 952:Generated_Source\PSoC5/cyPm.c ****     CY_PM_WAKEUP_CFG0_REG = (uint8) (wakeupSource >> 4u);
 953:Generated_Source\PSoC5/cyPm.c **** 
 954:Generated_Source\PSoC5/cyPm.c ****     /* Comparators */
 955:Generated_Source\PSoC5/cyPm.c ****     cyPmBackup.wakeupCfg1 = CY_PM_WAKEUP_CFG1_REG;
 956:Generated_Source\PSoC5/cyPm.c ****     CY_PM_WAKEUP_CFG1_REG = (((uint8) wakeupSource) & CY_PM_WAKEUP_SRC_CMPS_MASK);
 957:Generated_Source\PSoC5/cyPm.c **** 
 958:Generated_Source\PSoC5/cyPm.c ****     /* LCD */
 959:Generated_Source\PSoC5/cyPm.c ****     cyPmBackup.wakeupCfg2 = CY_PM_WAKEUP_CFG2_REG;
 960:Generated_Source\PSoC5/cyPm.c ****     CY_PM_WAKEUP_CFG2_REG = ((uint8) ((wakeupSource >> 12u) & 0x01u));
 961:Generated_Source\PSoC5/cyPm.c **** 
 962:Generated_Source\PSoC5/cyPm.c **** 
 963:Generated_Source\PSoC5/cyPm.c ****     /*******************************************************************
 964:Generated_Source\PSoC5/cyPm.c ****     * Do not use the merge region below unless any component datasheet
 965:Generated_Source\PSoC5/cyPm.c ****     * suggests doing so.
 966:Generated_Source\PSoC5/cyPm.c ****     *******************************************************************/
 967:Generated_Source\PSoC5/cyPm.c ****     /* `#START CY_PM_JUST_BEFORE_SLEEP` */
 968:Generated_Source\PSoC5/cyPm.c **** 
 969:Generated_Source\PSoC5/cyPm.c ****     /* `#END` */
 970:Generated_Source\PSoC5/cyPm.c **** 
 971:Generated_Source\PSoC5/cyPm.c ****     #ifdef CY_BOOT_CY_PM_SLEEP_BEFORE_SLEEP_CALLBACK
 972:Generated_Source\PSoC5/cyPm.c ****         CyBoot_CyPmSleep_BeforeSleep_Callback();
 973:Generated_Source\PSoC5/cyPm.c ****     #endif /* CY_BOOT_CY_PM_SLEEP_BEFORE_SLEEP_CALLBACK */
 974:Generated_Source\PSoC5/cyPm.c **** 
 975:Generated_Source\PSoC5/cyPm.c ****     /* Last moment IMO frequency change */
 976:Generated_Source\PSoC5/cyPm.c ****     if(0u == (CY_PM_FASTCLK_IMO_CR_REG & CY_PM_FASTCLK_IMO_CR_FREQ_MASK))
 977:Generated_Source\PSoC5/cyPm.c ****     {
 978:Generated_Source\PSoC5/cyPm.c ****         /* IMO frequency is 12 MHz */
 979:Generated_Source\PSoC5/cyPm.c ****         cyPmBackup.imoActFreq12Mhz = CY_PM_ENABLED;
 980:Generated_Source\PSoC5/cyPm.c ****     }
 981:Generated_Source\PSoC5/cyPm.c ****     else
 982:Generated_Source\PSoC5/cyPm.c ****     {
 983:Generated_Source\PSoC5/cyPm.c ****         /* IMO frequency is not 12 MHz */
 984:Generated_Source\PSoC5/cyPm.c ****         cyPmBackup.imoActFreq12Mhz = CY_PM_DISABLED;
 985:Generated_Source\PSoC5/cyPm.c **** 
 986:Generated_Source\PSoC5/cyPm.c ****         /* Save IMO frequency */
 987:Generated_Source\PSoC5/cyPm.c ****         cyPmBackup.imoActFreq = CY_PM_FASTCLK_IMO_CR_REG & CY_PM_FASTCLK_IMO_CR_FREQ_MASK;
 988:Generated_Source\PSoC5/cyPm.c **** 
 989:Generated_Source\PSoC5/cyPm.c ****         /* Set IMO frequency to 12 MHz */
 990:Generated_Source\PSoC5/cyPm.c ****         CY_PM_FASTCLK_IMO_CR_REG &= ((uint8) (~CY_PM_FASTCLK_IMO_CR_FREQ_MASK));
 991:Generated_Source\PSoC5/cyPm.c ****     }
 992:Generated_Source\PSoC5/cyPm.c **** 
 993:Generated_Source\PSoC5/cyPm.c ****     /* Switch to Sleep mode */
 994:Generated_Source\PSoC5/cyPm.c ****     CY_PM_MODE_CSR_REG = ((CY_PM_MODE_CSR_REG & ((uint8)(~CY_PM_MODE_CSR_MASK))) | CY_PM_MODE_CSR_S
 995:Generated_Source\PSoC5/cyPm.c **** 
 996:Generated_Source\PSoC5/cyPm.c ****     /* Recommended readback. */
 997:Generated_Source\PSoC5/cyPm.c ****     (void) CY_PM_MODE_CSR_REG;
 998:Generated_Source\PSoC5/cyPm.c **** 
 999:Generated_Source\PSoC5/cyPm.c ****     /* Two recommended NOPs to get into mode. */
1000:Generated_Source\PSoC5/cyPm.c ****     CY_NOP;
ARM GAS  C:\Users\dmarsch\AppData\Local\Temp\ccqopW1v.s 			page 19


1001:Generated_Source\PSoC5/cyPm.c ****     CY_NOP;
1002:Generated_Source\PSoC5/cyPm.c **** 
1003:Generated_Source\PSoC5/cyPm.c ****     /* Execute WFI instruction (for ARM-based devices only) */
1004:Generated_Source\PSoC5/cyPm.c ****     CY_PM_WFI;
1005:Generated_Source\PSoC5/cyPm.c **** 
1006:Generated_Source\PSoC5/cyPm.c ****     /* Point of return from Sleep Mode */
1007:Generated_Source\PSoC5/cyPm.c **** 
1008:Generated_Source\PSoC5/cyPm.c ****     /* Restore last moment IMO frequency change */
1009:Generated_Source\PSoC5/cyPm.c ****     if(CY_PM_ENABLED != cyPmBackup.imoActFreq12Mhz)
1010:Generated_Source\PSoC5/cyPm.c ****     {
1011:Generated_Source\PSoC5/cyPm.c ****         CY_PM_FASTCLK_IMO_CR_REG  = (CY_PM_FASTCLK_IMO_CR_REG & ((uint8)(~CY_PM_FASTCLK_IMO_CR_FREQ
1012:Generated_Source\PSoC5/cyPm.c ****                                     cyPmBackup.imoActFreq;
1013:Generated_Source\PSoC5/cyPm.c ****     }
1014:Generated_Source\PSoC5/cyPm.c **** 
1015:Generated_Source\PSoC5/cyPm.c **** 
1016:Generated_Source\PSoC5/cyPm.c ****     /*******************************************************************
1017:Generated_Source\PSoC5/cyPm.c ****     * Do not use merge region below unless any component datasheet
1018:Generated_Source\PSoC5/cyPm.c ****     * suggest to do so.
1019:Generated_Source\PSoC5/cyPm.c ****     *******************************************************************/
1020:Generated_Source\PSoC5/cyPm.c ****     /* `#START CY_PM_JUST_AFTER_WAKEUP_FROM_SLEEP` */
1021:Generated_Source\PSoC5/cyPm.c **** 
1022:Generated_Source\PSoC5/cyPm.c ****     /* `#END` */
1023:Generated_Source\PSoC5/cyPm.c **** 
1024:Generated_Source\PSoC5/cyPm.c ****     #ifdef CY_BOOT_CY_PM_SLEEP_AFTER_SLEEP_CALLBACK
1025:Generated_Source\PSoC5/cyPm.c ****         CyBoot_CyPmSleep_AfterSleep_Callback();
1026:Generated_Source\PSoC5/cyPm.c ****     #endif /* CY_BOOT_CY_PM_SLEEP_AFTER_SLEEP_CALLBACK */
1027:Generated_Source\PSoC5/cyPm.c **** 
1028:Generated_Source\PSoC5/cyPm.c ****     /* Restore hardware configuration */
1029:Generated_Source\PSoC5/cyPm.c ****     CyPmHibSlpRestore();
1030:Generated_Source\PSoC5/cyPm.c **** 
1031:Generated_Source\PSoC5/cyPm.c **** 
1032:Generated_Source\PSoC5/cyPm.c ****     /* Disable hardware buzz, if it was previously enabled */
1033:Generated_Source\PSoC5/cyPm.c ****     #if(CY_PSOC3)
1034:Generated_Source\PSoC5/cyPm.c **** 
1035:Generated_Source\PSoC5/cyPm.c ****         if(0u != (CY_PM_RESET_CR1_REG & (CY_PM_RESET_CR1_HVIA_EN |
1036:Generated_Source\PSoC5/cyPm.c ****             CY_PM_RESET_CR1_LVIA_EN | CY_PM_RESET_CR1_LVID_EN)))
1037:Generated_Source\PSoC5/cyPm.c ****         {
1038:Generated_Source\PSoC5/cyPm.c ****             if(CYDEV_CHIP_REV_ACTUAL >= 5u)
1039:Generated_Source\PSoC5/cyPm.c ****             {
1040:Generated_Source\PSoC5/cyPm.c ****                 if (CY_PM_DISABLED == cyPmBackup.hardwareBuzz)
1041:Generated_Source\PSoC5/cyPm.c ****                 {
1042:Generated_Source\PSoC5/cyPm.c ****                     CY_PM_PWRSYS_WAKE_TR2_REG &= (uint8)(~CY_PM_PWRSYS_WAKE_TR2_EN_BUZZ);
1043:Generated_Source\PSoC5/cyPm.c ****                 }
1044:Generated_Source\PSoC5/cyPm.c ****             }
1045:Generated_Source\PSoC5/cyPm.c ****         }
1046:Generated_Source\PSoC5/cyPm.c **** 
1047:Generated_Source\PSoC5/cyPm.c ****     #endif /* (CY_PSOC3) */
1048:Generated_Source\PSoC5/cyPm.c **** 
1049:Generated_Source\PSoC5/cyPm.c **** 
1050:Generated_Source\PSoC5/cyPm.c ****     /* Restore current wake up configuration */
1051:Generated_Source\PSoC5/cyPm.c ****     CY_PM_WAKEUP_CFG0_REG = cyPmBackup.wakeupCfg0;
1052:Generated_Source\PSoC5/cyPm.c ****     CY_PM_WAKEUP_CFG1_REG = cyPmBackup.wakeupCfg1;
1053:Generated_Source\PSoC5/cyPm.c ****     CY_PM_WAKEUP_CFG2_REG = cyPmBackup.wakeupCfg2;
1054:Generated_Source\PSoC5/cyPm.c **** 
1055:Generated_Source\PSoC5/cyPm.c ****     /* Restore global interrupt enable state */
1056:Generated_Source\PSoC5/cyPm.c ****     CyExitCriticalSection(interruptState);
1057:Generated_Source\PSoC5/cyPm.c **** }
ARM GAS  C:\Users\dmarsch\AppData\Local\Temp\ccqopW1v.s 			page 20


1058:Generated_Source\PSoC5/cyPm.c **** 
1059:Generated_Source\PSoC5/cyPm.c **** 
1060:Generated_Source\PSoC5/cyPm.c **** /*******************************************************************************
1061:Generated_Source\PSoC5/cyPm.c **** * Function Name: CyPmHibernate
1062:Generated_Source\PSoC5/cyPm.c **** ****************************************************************************//**
1063:Generated_Source\PSoC5/cyPm.c **** *
1064:Generated_Source\PSoC5/cyPm.c **** *  Puts the part into the Hibernate state.
1065:Generated_Source\PSoC5/cyPm.c **** *
1066:Generated_Source\PSoC5/cyPm.c **** *  Before switching to Hibernate, the current status of the PICU wakeup source
1067:Generated_Source\PSoC5/cyPm.c **** *  bit is saved and then set. This configures the device to wake up from the
1068:Generated_Source\PSoC5/cyPm.c **** *  PICU. Make sure you have at least one pin configured to generate PICU
1069:Generated_Source\PSoC5/cyPm.c **** *  interrupt. For pin Px.y, the register "PICU_INTTYPE_PICUx_INTTYPEy" controls
1070:Generated_Source\PSoC5/cyPm.c **** *  the PICU behavior. In the TRM, this register is "PICU[0..15]_INTTYPE[0..7]."
1071:Generated_Source\PSoC5/cyPm.c **** *  In the Pins component datasheet, this register is referred to as the IRQ
1072:Generated_Source\PSoC5/cyPm.c **** *  option. Once the wakeup occurs, the PICU wakeup source bit is restored and
1073:Generated_Source\PSoC5/cyPm.c **** *  the PSoC returns to the Active state.
1074:Generated_Source\PSoC5/cyPm.c **** *
1075:Generated_Source\PSoC5/cyPm.c **** * Reentrant:
1076:Generated_Source\PSoC5/cyPm.c **** *  No
1077:Generated_Source\PSoC5/cyPm.c **** *
1078:Generated_Source\PSoC5/cyPm.c **** * \sideeffect
1079:Generated_Source\PSoC5/cyPm.c **** *  Applications must wait 20 us before re-entering hibernate or sleep after
1080:Generated_Source\PSoC5/cyPm.c **** *  waking up from hibernate. The 20 us allows the sleep regulator time to
1081:Generated_Source\PSoC5/cyPm.c **** *  stabilize before the next hibernate / sleep event occurs. The 20 us
1082:Generated_Source\PSoC5/cyPm.c **** *  requirement begins when the device wakes up. There is no hardware check that
1083:Generated_Source\PSoC5/cyPm.c **** *  this requirement is met. The specified delay should be done on ISR entry.
1084:Generated_Source\PSoC5/cyPm.c **** *
1085:Generated_Source\PSoC5/cyPm.c **** *  After the wakeup PICU interrupt occurs, the Pin_ClearInterrupt() (where Pin
1086:Generated_Source\PSoC5/cyPm.c **** *  is instance name of the Pins component) function must be called to clear the
1087:Generated_Source\PSoC5/cyPm.c **** *  latched pin events to allow the proper Hibernate mode entry and to enable
1088:Generated_Source\PSoC5/cyPm.c **** *  detection of future events.
1089:Generated_Source\PSoC5/cyPm.c **** *
1090:Generated_Source\PSoC5/cyPm.c **** *  The 1 kHz ILO clock is expected to be enabled for PSoC 3 and PSoC 5LP to
1091:Generated_Source\PSoC5/cyPm.c **** *  measure Hibernate/Sleep regulator settling time after a reset. The holdoff
1092:Generated_Source\PSoC5/cyPm.c **** *  delay is measured using the rising edges of the 1 kHz ILO.
1093:Generated_Source\PSoC5/cyPm.c **** *
1094:Generated_Source\PSoC5/cyPm.c **** *******************************************************************************/
1095:Generated_Source\PSoC5/cyPm.c **** void CyPmHibernate(void) 
1096:Generated_Source\PSoC5/cyPm.c **** {
1097:Generated_Source\PSoC5/cyPm.c ****     CyPmHibernateEx(CY_PM_HIB_SRC_PICU);
1098:Generated_Source\PSoC5/cyPm.c **** }
1099:Generated_Source\PSoC5/cyPm.c **** 
1100:Generated_Source\PSoC5/cyPm.c **** 
1101:Generated_Source\PSoC5/cyPm.c **** /*******************************************************************************
1102:Generated_Source\PSoC5/cyPm.c **** * Function Name: CyPmHibernateEx
1103:Generated_Source\PSoC5/cyPm.c **** ****************************************************************************//**
1104:Generated_Source\PSoC5/cyPm.c **** *
1105:Generated_Source\PSoC5/cyPm.c **** *  Puts the part into the Hibernate state.
1106:Generated_Source\PSoC5/cyPm.c **** *
1107:Generated_Source\PSoC5/cyPm.c **** *  The following wake up sources can be configured: PICU interrupt, Comparator0,
1108:Generated_Source\PSoC5/cyPm.c **** *  Comparator1, Comparator2, and Comparator3 output.
1109:Generated_Source\PSoC5/cyPm.c **** *
1110:Generated_Source\PSoC5/cyPm.c **** *  Before switching to Hibernate, the current status of the PICU wakeup source
1111:Generated_Source\PSoC5/cyPm.c **** *  bit is saved and then set.
1112:Generated_Source\PSoC5/cyPm.c **** *
1113:Generated_Source\PSoC5/cyPm.c **** *  If using PICU as the wake up source, make sure you have at least one pin
1114:Generated_Source\PSoC5/cyPm.c **** *  configured to generate a PICU interrupt. For pin Px.y, the register
ARM GAS  C:\Users\dmarsch\AppData\Local\Temp\ccqopW1v.s 			page 21


1115:Generated_Source\PSoC5/cyPm.c **** *  "PICU_INTTYPE_PICUx_INTTYPEy" controls  the PICU behavior. In the TRM, this
1116:Generated_Source\PSoC5/cyPm.c **** *  register is "PICU[0..15]_INTTYPE[0..7]." In the Pins component datasheet,
1117:Generated_Source\PSoC5/cyPm.c **** *  this register is referred to as the IRQ option. Once the wakeup occurs, the
1118:Generated_Source\PSoC5/cyPm.c **** *  PICU wakeup source bit is restored and the PSoC returns to the Active state.
1119:Generated_Source\PSoC5/cyPm.c **** *
1120:Generated_Source\PSoC5/cyPm.c **** *  If using a comparator as the wake up source, make sure you call this function
1121:Generated_Source\PSoC5/cyPm.c **** *  with the 'wakeupSource' parameter set to the appropriate comparator. The part
1122:Generated_Source\PSoC5/cyPm.c **** *  is configured for the requested wakeup source by setting the corresponding
1123:Generated_Source\PSoC5/cyPm.c **** *  bits in PM_WAKEUP_CFG1 register.
1124:Generated_Source\PSoC5/cyPm.c **** *
1125:Generated_Source\PSoC5/cyPm.c **** *  Function call CyPmHibernateEx(CY_PM_HIB_SRC_PICU) will act in the same way as
1126:Generated_Source\PSoC5/cyPm.c **** *  CyPmHibernate().
1127:Generated_Source\PSoC5/cyPm.c **** *
1128:Generated_Source\PSoC5/cyPm.c **** *  \param wakeupSource:
1129:Generated_Source\PSoC5/cyPm.c **** *           Parameter Value             Description
1130:Generated_Source\PSoC5/cyPm.c **** *       CY_PM_HIB_SRC_PICU          PICU interrupt is set as the wake up source.
1131:Generated_Source\PSoC5/cyPm.c **** *       CY_PM_HIB_SRC_COMPARATOR0   Comparator 0 is set as the wake up source.
1132:Generated_Source\PSoC5/cyPm.c **** *       CY_PM_HIB_SRC_COMPARATOR1   Comparator 1 is set as the wake up source.
1133:Generated_Source\PSoC5/cyPm.c **** *       CY_PM_HIB_SRC_COMPARATOR2   Comparator 2 is set as the wake up source.
1134:Generated_Source\PSoC5/cyPm.c **** *       CY_PM_HIB_SRC_COMPARATOR3   Comparator 3 is set as the wake up source.
1135:Generated_Source\PSoC5/cyPm.c **** *
1136:Generated_Source\PSoC5/cyPm.c **** * Reentrant:
1137:Generated_Source\PSoC5/cyPm.c **** *  No
1138:Generated_Source\PSoC5/cyPm.c **** *
1139:Generated_Source\PSoC5/cyPm.c **** * \sideeffect
1140:Generated_Source\PSoC5/cyPm.c **** *  Applications must wait 20 us before re-entering hibernate or sleep after
1141:Generated_Source\PSoC5/cyPm.c **** *  waking up from hibernate. The 20 us allows the sleep regulator time to
1142:Generated_Source\PSoC5/cyPm.c **** *  stabilize before the next hibernate / sleep event occurs. The 20 us
1143:Generated_Source\PSoC5/cyPm.c **** *  requirement begins when the device wakes up. There is no hardware check that
1144:Generated_Source\PSoC5/cyPm.c **** *  this requirement is met. The specified delay should be done on ISR entry.
1145:Generated_Source\PSoC5/cyPm.c **** *
1146:Generated_Source\PSoC5/cyPm.c **** *  After the wakeup PICU interrupt occurs, the Pin_ClearInterrupt() (where Pin
1147:Generated_Source\PSoC5/cyPm.c **** *  is instance name of the Pins component) function must be called to clear the
1148:Generated_Source\PSoC5/cyPm.c **** *  latched pin events to allow the proper Hibernate mode entry and to enable
1149:Generated_Source\PSoC5/cyPm.c **** *  detection of future events.
1150:Generated_Source\PSoC5/cyPm.c **** *
1151:Generated_Source\PSoC5/cyPm.c **** *  The 1 kHz ILO clock is expected to be enabled for PSoC 3 and PSoC 5LP to
1152:Generated_Source\PSoC5/cyPm.c **** *  measure Hibernate/Sleep regulator settling time after a reset. The holdoff
1153:Generated_Source\PSoC5/cyPm.c **** *  delay is measured using the rising edges of the 1 kHz ILO.
1154:Generated_Source\PSoC5/cyPm.c **** *
1155:Generated_Source\PSoC5/cyPm.c **** *******************************************************************************/
1156:Generated_Source\PSoC5/cyPm.c **** void CyPmHibernateEx(uint16 wakeupSource) 
1157:Generated_Source\PSoC5/cyPm.c **** {
1158:Generated_Source\PSoC5/cyPm.c ****     uint8 interruptState;
1159:Generated_Source\PSoC5/cyPm.c **** 
1160:Generated_Source\PSoC5/cyPm.c ****     /* Save current global interrupt enable and disable it */
1161:Generated_Source\PSoC5/cyPm.c ****     interruptState = CyEnterCriticalSection();
1162:Generated_Source\PSoC5/cyPm.c **** 
1163:Generated_Source\PSoC5/cyPm.c ****         /***********************************************************************
1164:Generated_Source\PSoC5/cyPm.c ****         * The Hibernate/Sleep regulator has a settling time after a reset.
1165:Generated_Source\PSoC5/cyPm.c ****         * During this time, the system ignores requests to enter the Sleep and
1166:Generated_Source\PSoC5/cyPm.c ****         * Hibernate modes. The holdoff delay is measured using the rising edges of
1167:Generated_Source\PSoC5/cyPm.c ****         * the 1 kHz ILO.
1168:Generated_Source\PSoC5/cyPm.c ****         ***********************************************************************/
1169:Generated_Source\PSoC5/cyPm.c ****         if(0u == (CY_PM_MODE_CSR_REG & CY_PM_MODE_CSR_PWRUP_PULSE_Q))
1170:Generated_Source\PSoC5/cyPm.c ****         {
1171:Generated_Source\PSoC5/cyPm.c ****             /* Disable hold off - no action on restore */
ARM GAS  C:\Users\dmarsch\AppData\Local\Temp\ccqopW1v.s 			page 22


1172:Generated_Source\PSoC5/cyPm.c ****             CY_PM_PWRSYS_SLP_TR_REG &= CY_PM_PWRSYS_SLP_TR_HIBSLP_HOLDOFF_MASK;
1173:Generated_Source\PSoC5/cyPm.c ****         }
1174:Generated_Source\PSoC5/cyPm.c ****         else
1175:Generated_Source\PSoC5/cyPm.c ****         {
1176:Generated_Source\PSoC5/cyPm.c ****             /* Abort, device is not ready for low power mode entry */
1177:Generated_Source\PSoC5/cyPm.c **** 
1178:Generated_Source\PSoC5/cyPm.c ****             /* Restore global interrupt enable state */
1179:Generated_Source\PSoC5/cyPm.c ****             CyExitCriticalSection(interruptState);
1180:Generated_Source\PSoC5/cyPm.c **** 
1181:Generated_Source\PSoC5/cyPm.c ****             return;
1182:Generated_Source\PSoC5/cyPm.c ****         }
1183:Generated_Source\PSoC5/cyPm.c **** 
1184:Generated_Source\PSoC5/cyPm.c ****     CyPmHibSaveSet();
1185:Generated_Source\PSoC5/cyPm.c **** 
1186:Generated_Source\PSoC5/cyPm.c **** 
1187:Generated_Source\PSoC5/cyPm.c ****     /* Save and set new wake up configuration */
1188:Generated_Source\PSoC5/cyPm.c **** 
1189:Generated_Source\PSoC5/cyPm.c ****     /* Save and enable only wakeup on PICU */
1190:Generated_Source\PSoC5/cyPm.c ****     cyPmBackup.wakeupCfg0 = CY_PM_WAKEUP_CFG0_REG;
1191:Generated_Source\PSoC5/cyPm.c ****     CY_PM_WAKEUP_CFG0_REG = ((uint8) (wakeupSource >> 4u) & CY_PM_WAKEUP_PICU);
1192:Generated_Source\PSoC5/cyPm.c **** 
1193:Generated_Source\PSoC5/cyPm.c ****     /* Comparators */
1194:Generated_Source\PSoC5/cyPm.c ****     cyPmBackup.wakeupCfg1 = CY_PM_WAKEUP_CFG1_REG;
1195:Generated_Source\PSoC5/cyPm.c ****     CY_PM_WAKEUP_CFG1_REG = (((uint8) wakeupSource) & CY_PM_WAKEUP_SRC_CMPS_MASK);
1196:Generated_Source\PSoC5/cyPm.c **** 
1197:Generated_Source\PSoC5/cyPm.c ****     cyPmBackup.wakeupCfg2 = CY_PM_WAKEUP_CFG2_REG;
1198:Generated_Source\PSoC5/cyPm.c ****     CY_PM_WAKEUP_CFG2_REG = 0x00u;
1199:Generated_Source\PSoC5/cyPm.c **** 
1200:Generated_Source\PSoC5/cyPm.c **** 
1201:Generated_Source\PSoC5/cyPm.c ****     /* Last moment IMO frequency change */
1202:Generated_Source\PSoC5/cyPm.c ****     if(0u == (CY_PM_FASTCLK_IMO_CR_REG & CY_PM_FASTCLK_IMO_CR_FREQ_MASK))
1203:Generated_Source\PSoC5/cyPm.c ****     {
1204:Generated_Source\PSoC5/cyPm.c ****         /* IMO frequency is 12 MHz */
1205:Generated_Source\PSoC5/cyPm.c ****         cyPmBackup.imoActFreq12Mhz = CY_PM_ENABLED;
1206:Generated_Source\PSoC5/cyPm.c ****     }
1207:Generated_Source\PSoC5/cyPm.c ****     else
1208:Generated_Source\PSoC5/cyPm.c ****     {
1209:Generated_Source\PSoC5/cyPm.c ****         /* IMO frequency is not 12 MHz */
1210:Generated_Source\PSoC5/cyPm.c ****         cyPmBackup.imoActFreq12Mhz = CY_PM_DISABLED;
1211:Generated_Source\PSoC5/cyPm.c **** 
1212:Generated_Source\PSoC5/cyPm.c ****         /* Save IMO frequency */
1213:Generated_Source\PSoC5/cyPm.c ****         cyPmBackup.imoActFreq = CY_PM_FASTCLK_IMO_CR_REG & CY_PM_FASTCLK_IMO_CR_FREQ_MASK;
1214:Generated_Source\PSoC5/cyPm.c **** 
1215:Generated_Source\PSoC5/cyPm.c ****         /* Set IMO frequency to 12 MHz */
1216:Generated_Source\PSoC5/cyPm.c ****         CY_PM_FASTCLK_IMO_CR_REG &= ((uint8) (~CY_PM_FASTCLK_IMO_CR_FREQ_MASK));
1217:Generated_Source\PSoC5/cyPm.c ****     }
1218:Generated_Source\PSoC5/cyPm.c **** 
1219:Generated_Source\PSoC5/cyPm.c **** 
1220:Generated_Source\PSoC5/cyPm.c ****     /* Switch to Hibernate Mode */
1221:Generated_Source\PSoC5/cyPm.c ****     CY_PM_MODE_CSR_REG = (CY_PM_MODE_CSR_REG & ((uint8) (~CY_PM_MODE_CSR_MASK))) | CY_PM_MODE_CSR_H
1222:Generated_Source\PSoC5/cyPm.c **** 
1223:Generated_Source\PSoC5/cyPm.c ****     /* Recommended readback. */
1224:Generated_Source\PSoC5/cyPm.c ****     (void) CY_PM_MODE_CSR_REG;
1225:Generated_Source\PSoC5/cyPm.c **** 
1226:Generated_Source\PSoC5/cyPm.c ****     /* Two recommended NOPs to get into mode. */
1227:Generated_Source\PSoC5/cyPm.c ****     CY_NOP;
1228:Generated_Source\PSoC5/cyPm.c ****     CY_NOP;
ARM GAS  C:\Users\dmarsch\AppData\Local\Temp\ccqopW1v.s 			page 23


1229:Generated_Source\PSoC5/cyPm.c **** 
1230:Generated_Source\PSoC5/cyPm.c ****     /* Execute WFI instruction (for ARM-based devices only) */
1231:Generated_Source\PSoC5/cyPm.c ****     CY_PM_WFI;
1232:Generated_Source\PSoC5/cyPm.c **** 
1233:Generated_Source\PSoC5/cyPm.c **** 
1234:Generated_Source\PSoC5/cyPm.c ****     /* Point of return from Hibernate mode */
1235:Generated_Source\PSoC5/cyPm.c **** 
1236:Generated_Source\PSoC5/cyPm.c **** 
1237:Generated_Source\PSoC5/cyPm.c ****     /* Restore last moment IMO frequency change */
1238:Generated_Source\PSoC5/cyPm.c ****     if(CY_PM_ENABLED != cyPmBackup.imoActFreq12Mhz)
1239:Generated_Source\PSoC5/cyPm.c ****     {
1240:Generated_Source\PSoC5/cyPm.c ****         CY_PM_FASTCLK_IMO_CR_REG  = (CY_PM_FASTCLK_IMO_CR_REG & ((uint8)(~CY_PM_FASTCLK_IMO_CR_FREQ
1241:Generated_Source\PSoC5/cyPm.c ****                                     cyPmBackup.imoActFreq;
1242:Generated_Source\PSoC5/cyPm.c ****     }
1243:Generated_Source\PSoC5/cyPm.c **** 
1244:Generated_Source\PSoC5/cyPm.c **** 
1245:Generated_Source\PSoC5/cyPm.c ****     /* Restore device for proper Hibernate mode exit*/
1246:Generated_Source\PSoC5/cyPm.c ****     CyPmHibRestore();
1247:Generated_Source\PSoC5/cyPm.c **** 
1248:Generated_Source\PSoC5/cyPm.c ****     /* Restore current wake up configuration */
1249:Generated_Source\PSoC5/cyPm.c ****     CY_PM_WAKEUP_CFG0_REG = cyPmBackup.wakeupCfg0;
1250:Generated_Source\PSoC5/cyPm.c ****     CY_PM_WAKEUP_CFG1_REG = cyPmBackup.wakeupCfg1;
1251:Generated_Source\PSoC5/cyPm.c ****     CY_PM_WAKEUP_CFG2_REG = cyPmBackup.wakeupCfg2;
1252:Generated_Source\PSoC5/cyPm.c **** 
1253:Generated_Source\PSoC5/cyPm.c ****     /* Restore global interrupt enable state */
1254:Generated_Source\PSoC5/cyPm.c ****     CyExitCriticalSection(interruptState);
1255:Generated_Source\PSoC5/cyPm.c **** }
1256:Generated_Source\PSoC5/cyPm.c **** 
1257:Generated_Source\PSoC5/cyPm.c **** 
1258:Generated_Source\PSoC5/cyPm.c **** /*******************************************************************************
1259:Generated_Source\PSoC5/cyPm.c **** * Function Name: CyPmReadStatus
1260:Generated_Source\PSoC5/cyPm.c **** ****************************************************************************//**
1261:Generated_Source\PSoC5/cyPm.c **** *
1262:Generated_Source\PSoC5/cyPm.c **** *  Manages the Power Manager Interrupt Status Register.  This register has the
1263:Generated_Source\PSoC5/cyPm.c **** *  interrupt status for the one pulse per second, central timewheel and fast
1264:Generated_Source\PSoC5/cyPm.c **** *  timewheel timers.  This hardware register clears on read.  To allow for only
1265:Generated_Source\PSoC5/cyPm.c **** *  clearing the bits of interest and preserving the other bits, this function
1266:Generated_Source\PSoC5/cyPm.c **** *  uses a shadow register that retains the state.  This function reads the
1267:Generated_Source\PSoC5/cyPm.c **** *  status register and ORs that value with the shadow register.  That is the
1268:Generated_Source\PSoC5/cyPm.c **** *  value that is returned.  Then the bits in the mask that are set are cleared
1269:Generated_Source\PSoC5/cyPm.c **** *  from this value and written back to the shadow register.
1270:Generated_Source\PSoC5/cyPm.c **** *
1271:Generated_Source\PSoC5/cyPm.c **** *  Note You must call this function within 1 ms (1 clock cycle of the ILO)
1272:Generated_Source\PSoC5/cyPm.c **** *  after a CTW event has occurred.
1273:Generated_Source\PSoC5/cyPm.c **** *
1274:Generated_Source\PSoC5/cyPm.c **** *  \param mask: Bits in the shadow register to clear.
1275:Generated_Source\PSoC5/cyPm.c **** *
1276:Generated_Source\PSoC5/cyPm.c **** *       Define                      Source
1277:Generated_Source\PSoC5/cyPm.c **** *  CY_PM_FTW_INT                Fast Timewheel
1278:Generated_Source\PSoC5/cyPm.c **** *  CY_PM_CTW_INT                Central Timewheel
1279:Generated_Source\PSoC5/cyPm.c **** *  CY_PM_ONEPPS_INT             One Pulse Per Second
1280:Generated_Source\PSoC5/cyPm.c **** *
1281:Generated_Source\PSoC5/cyPm.c **** * \return
1282:Generated_Source\PSoC5/cyPm.c **** *  Status.  Same bits values as the mask parameter.
1283:Generated_Source\PSoC5/cyPm.c **** *
1284:Generated_Source\PSoC5/cyPm.c **** *******************************************************************************/
1285:Generated_Source\PSoC5/cyPm.c **** uint8 CyPmReadStatus(uint8 mask) 
ARM GAS  C:\Users\dmarsch\AppData\Local\Temp\ccqopW1v.s 			page 24


1286:Generated_Source\PSoC5/cyPm.c **** {
1287:Generated_Source\PSoC5/cyPm.c ****     static uint8 interruptStatus;
1288:Generated_Source\PSoC5/cyPm.c ****     uint8 interruptState;
1289:Generated_Source\PSoC5/cyPm.c ****     uint8 tmpStatus;
1290:Generated_Source\PSoC5/cyPm.c **** 
1291:Generated_Source\PSoC5/cyPm.c ****     /* Enter critical section */
1292:Generated_Source\PSoC5/cyPm.c ****     interruptState = CyEnterCriticalSection();
1293:Generated_Source\PSoC5/cyPm.c **** 
1294:Generated_Source\PSoC5/cyPm.c ****     /* Save value of register, copy it and clear desired bit */
1295:Generated_Source\PSoC5/cyPm.c ****     interruptStatus |= CY_PM_INT_SR_REG;
1296:Generated_Source\PSoC5/cyPm.c ****     tmpStatus = interruptStatus & (CY_PM_FTW_INT | CY_PM_CTW_INT | CY_PM_ONEPPS_INT);
1297:Generated_Source\PSoC5/cyPm.c ****     interruptStatus &= ((uint8)(~mask));
1298:Generated_Source\PSoC5/cyPm.c **** 
1299:Generated_Source\PSoC5/cyPm.c ****     /* Exit critical section */
1300:Generated_Source\PSoC5/cyPm.c ****     CyExitCriticalSection(interruptState);
1301:Generated_Source\PSoC5/cyPm.c **** 
1302:Generated_Source\PSoC5/cyPm.c ****     return(tmpStatus);
1303:Generated_Source\PSoC5/cyPm.c **** }
1304:Generated_Source\PSoC5/cyPm.c **** 
1305:Generated_Source\PSoC5/cyPm.c **** 
1306:Generated_Source\PSoC5/cyPm.c **** /*******************************************************************************
1307:Generated_Source\PSoC5/cyPm.c **** * Function Name: CyPmHibSaveSet
1308:Generated_Source\PSoC5/cyPm.c **** ****************************************************************************//**
1309:Generated_Source\PSoC5/cyPm.c **** *
1310:Generated_Source\PSoC5/cyPm.c **** *  Prepare device for proper Hibernate low power mode entry:
1311:Generated_Source\PSoC5/cyPm.c **** *  - Disables I2C backup regulator
1312:Generated_Source\PSoC5/cyPm.c **** *  - Saves ILO power down mode state and enable it
1313:Generated_Source\PSoC5/cyPm.c **** *  - Saves state of 1 kHz and 100 kHz ILO and disable them
1314:Generated_Source\PSoC5/cyPm.c **** *  - Disables sleep regulator and shorts vccd to vpwrsleep
1315:Generated_Source\PSoC5/cyPm.c **** *  - Save LVI/HVI configuration and disable them - CyPmHviLviSaveDisable()
1316:Generated_Source\PSoC5/cyPm.c **** *  - CyPmHibSlpSaveSet() function is called
1317:Generated_Source\PSoC5/cyPm.c **** *
1318:Generated_Source\PSoC5/cyPm.c **** * Reentrant:
1319:Generated_Source\PSoC5/cyPm.c **** *  No
1320:Generated_Source\PSoC5/cyPm.c **** *
1321:Generated_Source\PSoC5/cyPm.c **** *******************************************************************************/
1322:Generated_Source\PSoC5/cyPm.c **** static void CyPmHibSaveSet(void) 
1323:Generated_Source\PSoC5/cyPm.c **** {
1324:Generated_Source\PSoC5/cyPm.c ****     /* I2C backup reg must be off when the sleep regulator is unavailable */
1325:Generated_Source\PSoC5/cyPm.c ****     if(0u != (CY_PM_PWRSYS_CR1_REG & CY_PM_PWRSYS_CR1_I2CREG_BACKUP))
1326:Generated_Source\PSoC5/cyPm.c ****     {
1327:Generated_Source\PSoC5/cyPm.c ****         /***********************************************************************
1328:Generated_Source\PSoC5/cyPm.c ****         * If the I2C backup regulator is enabled, all the fixed-function registers
1329:Generated_Source\PSoC5/cyPm.c ****         * store their values while the device is in the low power mode, otherwise their
1330:Generated_Source\PSoC5/cyPm.c ****         * configuration is lost. The I2C API makes a decision to restore or not
1331:Generated_Source\PSoC5/cyPm.c ****         * to restore I2C registers based on this. If this regulator will be
1332:Generated_Source\PSoC5/cyPm.c ****         * disabled and then enabled, I2C API will suppose that the I2C block
1333:Generated_Source\PSoC5/cyPm.c ****         * registers preserved their values, while this is not true. So, the
1334:Generated_Source\PSoC5/cyPm.c ****         * backup regulator is disabled. The I2C sleep APIs is responsible for
1335:Generated_Source\PSoC5/cyPm.c ****         * restoration.
1336:Generated_Source\PSoC5/cyPm.c ****         ***********************************************************************/
1337:Generated_Source\PSoC5/cyPm.c **** 
1338:Generated_Source\PSoC5/cyPm.c ****         /* Disable I2C backup register */
1339:Generated_Source\PSoC5/cyPm.c ****         CY_PM_PWRSYS_CR1_REG &= ((uint8)(~CY_PM_PWRSYS_CR1_I2CREG_BACKUP));
1340:Generated_Source\PSoC5/cyPm.c ****     }
1341:Generated_Source\PSoC5/cyPm.c **** 
1342:Generated_Source\PSoC5/cyPm.c **** 
ARM GAS  C:\Users\dmarsch\AppData\Local\Temp\ccqopW1v.s 			page 25


1343:Generated_Source\PSoC5/cyPm.c ****     /* Save current ILO power mode and ensure low power mode */
1344:Generated_Source\PSoC5/cyPm.c ****     cyPmBackup.iloPowerMode = CyILO_SetPowerMode(CY_PM_POWERDOWN_MODE);
1345:Generated_Source\PSoC5/cyPm.c **** 
1346:Generated_Source\PSoC5/cyPm.c ****     /* Save current 1kHz ILO enable state. Disabled automatically. */
1347:Generated_Source\PSoC5/cyPm.c ****     cyPmBackup.ilo1kEnable = (0u == (CY_PM_SLOWCLK_ILO_CR0_REG & CY_PM_ILO_CR0_EN_1K)) ?
1348:Generated_Source\PSoC5/cyPm.c ****                                 CY_PM_DISABLED : CY_PM_ENABLED;
1349:Generated_Source\PSoC5/cyPm.c **** 
1350:Generated_Source\PSoC5/cyPm.c ****     /* Save current 100kHz ILO enable state. Disabled automatically. */
1351:Generated_Source\PSoC5/cyPm.c ****     cyPmBackup.ilo100kEnable = (0u == (CY_PM_SLOWCLK_ILO_CR0_REG & CY_PM_ILO_CR0_EN_100K)) ?
1352:Generated_Source\PSoC5/cyPm.c ****                                 CY_PM_DISABLED : CY_PM_ENABLED;
1353:Generated_Source\PSoC5/cyPm.c **** 
1354:Generated_Source\PSoC5/cyPm.c **** 
1355:Generated_Source\PSoC5/cyPm.c ****     /* Disable the sleep regulator and shorts vccd to vpwrsleep */
1356:Generated_Source\PSoC5/cyPm.c ****     if(0u == (CY_PM_PWRSYS_SLP_TR_REG & CY_PM_PWRSYS_SLP_TR_BYPASS))
1357:Generated_Source\PSoC5/cyPm.c ****     {
1358:Generated_Source\PSoC5/cyPm.c ****         /* Save current bypass state */
1359:Generated_Source\PSoC5/cyPm.c ****         cyPmBackup.slpTrBypass = CY_PM_DISABLED;
1360:Generated_Source\PSoC5/cyPm.c ****         CY_PM_PWRSYS_SLP_TR_REG |= CY_PM_PWRSYS_SLP_TR_BYPASS;
1361:Generated_Source\PSoC5/cyPm.c ****     }
1362:Generated_Source\PSoC5/cyPm.c ****     else
1363:Generated_Source\PSoC5/cyPm.c ****     {
1364:Generated_Source\PSoC5/cyPm.c ****         cyPmBackup.slpTrBypass = CY_PM_ENABLED;
1365:Generated_Source\PSoC5/cyPm.c ****     }
1366:Generated_Source\PSoC5/cyPm.c **** 
1367:Generated_Source\PSoC5/cyPm.c ****     /* LPCOMPs are always enabled (even when BOTH ext_vccd=1 and ext_vcca=1)*/
1368:Generated_Source\PSoC5/cyPm.c **** 
1369:Generated_Source\PSoC5/cyPm.c **** 
1370:Generated_Source\PSoC5/cyPm.c ****     /***************************************************************************
1371:Generated_Source\PSoC5/cyPm.c ****     * LVI/HVI must be disabled in Hibernate
1372:Generated_Source\PSoC5/cyPm.c ****     ***************************************************************************/
1373:Generated_Source\PSoC5/cyPm.c **** 
1374:Generated_Source\PSoC5/cyPm.c ****     /* Save LVI/HVI configuration and disable them */
1375:Generated_Source\PSoC5/cyPm.c ****     CyPmHviLviSaveDisable();
1376:Generated_Source\PSoC5/cyPm.c **** 
1377:Generated_Source\PSoC5/cyPm.c **** 
1378:Generated_Source\PSoC5/cyPm.c ****     /* Make the same preparations for Hibernate and Sleep modes */
1379:Generated_Source\PSoC5/cyPm.c ****     CyPmHibSlpSaveSet();
1380:Generated_Source\PSoC5/cyPm.c **** 
1381:Generated_Source\PSoC5/cyPm.c **** 
1382:Generated_Source\PSoC5/cyPm.c ****     /***************************************************************************
1383:Generated_Source\PSoC5/cyPm.c ****     * Save and set the power mode wakeup trim registers
1384:Generated_Source\PSoC5/cyPm.c ****     ***************************************************************************/
1385:Generated_Source\PSoC5/cyPm.c ****     cyPmBackup.wakeupTrim0 = CY_PM_PWRSYS_WAKE_TR0_REG;
1386:Generated_Source\PSoC5/cyPm.c ****     cyPmBackup.wakeupTrim1 = CY_PM_PWRSYS_WAKE_TR1_REG;
1387:Generated_Source\PSoC5/cyPm.c ****     
1388:Generated_Source\PSoC5/cyPm.c ****     #if(CY_PSOC5)
1389:Generated_Source\PSoC5/cyPm.c ****         cyPmBackup.wakeupTrim3 = CY_PM_PWRSYS_WAKE_TR3_REG;
1390:Generated_Source\PSoC5/cyPm.c ****     #endif  /* (CY_PSOC5) */    
1391:Generated_Source\PSoC5/cyPm.c **** 
1392:Generated_Source\PSoC5/cyPm.c ****     CY_PM_PWRSYS_WAKE_TR0_REG = CY_PM_PWRSYS_WAKE_TR0;
1393:Generated_Source\PSoC5/cyPm.c ****     CY_PM_PWRSYS_WAKE_TR1_REG = CY_PM_PWRSYS_WAKE_TR1;
1394:Generated_Source\PSoC5/cyPm.c ****     
1395:Generated_Source\PSoC5/cyPm.c ****     #if(CY_PSOC5)
1396:Generated_Source\PSoC5/cyPm.c ****         CY_PM_PWRSYS_WAKE_TR3_REG = CY_PM_PWRSYS_WAKE_TR3;
1397:Generated_Source\PSoC5/cyPm.c ****     #endif  /* (CY_PSOC5) */    
1398:Generated_Source\PSoC5/cyPm.c **** }
1399:Generated_Source\PSoC5/cyPm.c **** 
ARM GAS  C:\Users\dmarsch\AppData\Local\Temp\ccqopW1v.s 			page 26


1400:Generated_Source\PSoC5/cyPm.c **** 
1401:Generated_Source\PSoC5/cyPm.c **** /*******************************************************************************
1402:Generated_Source\PSoC5/cyPm.c **** * Function Name: CyPmHibRestore
1403:Generated_Source\PSoC5/cyPm.c **** ****************************************************************************//**
1404:Generated_Source\PSoC5/cyPm.c **** *
1405:Generated_Source\PSoC5/cyPm.c **** *  Restores the device for the proper Hibernate mode exit:
1406:Generated_Source\PSoC5/cyPm.c **** *  - Restores LVI/HVI configuration - calsl CyPmHviLviRestore()
1407:Generated_Source\PSoC5/cyPm.c **** *  - CyPmHibSlpSaveRestore() function is called
1408:Generated_Source\PSoC5/cyPm.c **** *  - Restores ILO power down mode state and enables it
1409:Generated_Source\PSoC5/cyPm.c **** *  - Restores the state of 1 kHz and 100 kHz ILO and disables them
1410:Generated_Source\PSoC5/cyPm.c **** *  - Restores the sleep regulator settings
1411:Generated_Source\PSoC5/cyPm.c **** *
1412:Generated_Source\PSoC5/cyPm.c **** *******************************************************************************/
1413:Generated_Source\PSoC5/cyPm.c **** static void CyPmHibRestore(void) 
1414:Generated_Source\PSoC5/cyPm.c **** {
1415:Generated_Source\PSoC5/cyPm.c ****     /* Restore LVI/HVI configuration */
1416:Generated_Source\PSoC5/cyPm.c ****     CyPmHviLviRestore();
1417:Generated_Source\PSoC5/cyPm.c **** 
1418:Generated_Source\PSoC5/cyPm.c ****     /* Restore the same configuration for Hibernate and Sleep modes */
1419:Generated_Source\PSoC5/cyPm.c ****     CyPmHibSlpRestore();
1420:Generated_Source\PSoC5/cyPm.c **** 
1421:Generated_Source\PSoC5/cyPm.c ****     /* Restore 1kHz ILO enable state */
1422:Generated_Source\PSoC5/cyPm.c ****     if(CY_PM_ENABLED == cyPmBackup.ilo1kEnable)
1423:Generated_Source\PSoC5/cyPm.c ****     {
1424:Generated_Source\PSoC5/cyPm.c ****         /* Enable 1kHz ILO */
1425:Generated_Source\PSoC5/cyPm.c ****         CyILO_Start1K();
1426:Generated_Source\PSoC5/cyPm.c ****     }
1427:Generated_Source\PSoC5/cyPm.c **** 
1428:Generated_Source\PSoC5/cyPm.c ****     /* Restore 100kHz ILO enable state */
1429:Generated_Source\PSoC5/cyPm.c ****     if(CY_PM_ENABLED == cyPmBackup.ilo100kEnable)
1430:Generated_Source\PSoC5/cyPm.c ****     {
1431:Generated_Source\PSoC5/cyPm.c ****         /* Enable 100kHz ILO */
1432:Generated_Source\PSoC5/cyPm.c ****         CyILO_Start100K();
1433:Generated_Source\PSoC5/cyPm.c ****     }
1434:Generated_Source\PSoC5/cyPm.c **** 
1435:Generated_Source\PSoC5/cyPm.c ****     /* Restore ILO power mode */
1436:Generated_Source\PSoC5/cyPm.c ****     (void) CyILO_SetPowerMode(cyPmBackup.iloPowerMode);
1437:Generated_Source\PSoC5/cyPm.c **** 
1438:Generated_Source\PSoC5/cyPm.c **** 
1439:Generated_Source\PSoC5/cyPm.c ****     if(CY_PM_DISABLED == cyPmBackup.slpTrBypass)
1440:Generated_Source\PSoC5/cyPm.c ****     {
1441:Generated_Source\PSoC5/cyPm.c ****         /* Enable the sleep regulator */
1442:Generated_Source\PSoC5/cyPm.c ****         CY_PM_PWRSYS_SLP_TR_REG &= ((uint8)(~CY_PM_PWRSYS_SLP_TR_BYPASS));
1443:Generated_Source\PSoC5/cyPm.c ****     }
1444:Generated_Source\PSoC5/cyPm.c **** 
1445:Generated_Source\PSoC5/cyPm.c **** 
1446:Generated_Source\PSoC5/cyPm.c ****     /***************************************************************************
1447:Generated_Source\PSoC5/cyPm.c ****     * Restore the power mode wakeup trim registers
1448:Generated_Source\PSoC5/cyPm.c ****     ***************************************************************************/
1449:Generated_Source\PSoC5/cyPm.c ****     CY_PM_PWRSYS_WAKE_TR0_REG = cyPmBackup.wakeupTrim0;
1450:Generated_Source\PSoC5/cyPm.c ****     CY_PM_PWRSYS_WAKE_TR1_REG = cyPmBackup.wakeupTrim1;
1451:Generated_Source\PSoC5/cyPm.c **** 
1452:Generated_Source\PSoC5/cyPm.c ****     #if(CY_PSOC5)
1453:Generated_Source\PSoC5/cyPm.c ****         CY_PM_PWRSYS_WAKE_TR3_REG = cyPmBackup.wakeupTrim3;
1454:Generated_Source\PSoC5/cyPm.c ****     #endif  /* (CY_PSOC5) */    
1455:Generated_Source\PSoC5/cyPm.c **** }
1456:Generated_Source\PSoC5/cyPm.c **** 
ARM GAS  C:\Users\dmarsch\AppData\Local\Temp\ccqopW1v.s 			page 27


1457:Generated_Source\PSoC5/cyPm.c **** 
1458:Generated_Source\PSoC5/cyPm.c **** /*******************************************************************************
1459:Generated_Source\PSoC5/cyPm.c **** * Function Name: CyPmCtwSetInterval
1460:Generated_Source\PSoC5/cyPm.c **** ****************************************************************************//**
1461:Generated_Source\PSoC5/cyPm.c **** *
1462:Generated_Source\PSoC5/cyPm.c **** *  Performs the CTW configuration:
1463:Generated_Source\PSoC5/cyPm.c **** *  - Disables the CTW interrupt
1464:Generated_Source\PSoC5/cyPm.c **** *  - Enables 1 kHz ILO
1465:Generated_Source\PSoC5/cyPm.c **** *  - Sets a new CTW interval
1466:Generated_Source\PSoC5/cyPm.c **** *
1467:Generated_Source\PSoC5/cyPm.c **** *  \param ctwInterval: the CTW interval to be set.
1468:Generated_Source\PSoC5/cyPm.c **** *
1469:Generated_Source\PSoC5/cyPm.c **** * \sideeffect
1470:Generated_Source\PSoC5/cyPm.c **** *  Enables ILO 1 KHz clock and leaves it enabled.
1471:Generated_Source\PSoC5/cyPm.c **** *
1472:Generated_Source\PSoC5/cyPm.c **** *******************************************************************************/
1473:Generated_Source\PSoC5/cyPm.c **** void CyPmCtwSetInterval(uint8 ctwInterval) 
1474:Generated_Source\PSoC5/cyPm.c **** {
1475:Generated_Source\PSoC5/cyPm.c ****     /* Disable CTW interrupt enable */
1476:Generated_Source\PSoC5/cyPm.c ****     CY_PM_TW_CFG2_REG &= ((uint8)(~CY_PM_CTW_IE));
1477:Generated_Source\PSoC5/cyPm.c **** 
1478:Generated_Source\PSoC5/cyPm.c ****     /* Enable 1kHz ILO (required for CTW operation) */
1479:Generated_Source\PSoC5/cyPm.c ****     CyILO_Start1K();
1480:Generated_Source\PSoC5/cyPm.c **** 
1481:Generated_Source\PSoC5/cyPm.c ****     /* Interval could be set only while CTW is disabled */
1482:Generated_Source\PSoC5/cyPm.c ****     if(0u != (CY_PM_TW_CFG2_REG & CY_PM_CTW_EN))
1483:Generated_Source\PSoC5/cyPm.c ****     {
1484:Generated_Source\PSoC5/cyPm.c ****         /* Set CTW interval if needed */
1485:Generated_Source\PSoC5/cyPm.c ****         if(CY_PM_TW_CFG1_REG != ctwInterval)
1486:Generated_Source\PSoC5/cyPm.c ****         {
1487:Generated_Source\PSoC5/cyPm.c ****             /* Disable the CTW, set new CTW interval and enable it again */
1488:Generated_Source\PSoC5/cyPm.c ****             CY_PM_TW_CFG2_REG &= ((uint8)(~CY_PM_CTW_EN));
1489:Generated_Source\PSoC5/cyPm.c ****             CY_PM_TW_CFG1_REG = ctwInterval;
1490:Generated_Source\PSoC5/cyPm.c ****             CY_PM_TW_CFG2_REG |= CY_PM_CTW_EN;
1491:Generated_Source\PSoC5/cyPm.c ****         }   /* Required interval is already set */
1492:Generated_Source\PSoC5/cyPm.c ****     }
1493:Generated_Source\PSoC5/cyPm.c ****     else
1494:Generated_Source\PSoC5/cyPm.c ****     {
1495:Generated_Source\PSoC5/cyPm.c ****         /* Set CTW interval if needed */
1496:Generated_Source\PSoC5/cyPm.c ****         if(CY_PM_TW_CFG1_REG != ctwInterval)
1497:Generated_Source\PSoC5/cyPm.c ****         {
1498:Generated_Source\PSoC5/cyPm.c ****             /* Set new CTW interval. Could be changed if CTW is disabled */
1499:Generated_Source\PSoC5/cyPm.c ****             CY_PM_TW_CFG1_REG = ctwInterval;
1500:Generated_Source\PSoC5/cyPm.c ****         }   /* Required interval is already set */
1501:Generated_Source\PSoC5/cyPm.c **** 
1502:Generated_Source\PSoC5/cyPm.c ****         /* Enable CTW */
1503:Generated_Source\PSoC5/cyPm.c ****         CY_PM_TW_CFG2_REG |= CY_PM_CTW_EN;
1504:Generated_Source\PSoC5/cyPm.c ****     }
1505:Generated_Source\PSoC5/cyPm.c **** }
1506:Generated_Source\PSoC5/cyPm.c **** 
1507:Generated_Source\PSoC5/cyPm.c **** 
1508:Generated_Source\PSoC5/cyPm.c **** /*******************************************************************************
1509:Generated_Source\PSoC5/cyPm.c **** * Function Name: CyPmOppsSet
1510:Generated_Source\PSoC5/cyPm.c **** ****************************************************************************//**
1511:Generated_Source\PSoC5/cyPm.c **** *
1512:Generated_Source\PSoC5/cyPm.c **** *  Performs 1PPS configuration:
1513:Generated_Source\PSoC5/cyPm.c **** *  - Starts 32 KHz XTAL
ARM GAS  C:\Users\dmarsch\AppData\Local\Temp\ccqopW1v.s 			page 28


1514:Generated_Source\PSoC5/cyPm.c **** *  - Disables 1PPS interrupts
1515:Generated_Source\PSoC5/cyPm.c **** *  - Enables 1PPS
1516:Generated_Source\PSoC5/cyPm.c **** *
1517:Generated_Source\PSoC5/cyPm.c **** *******************************************************************************/
1518:Generated_Source\PSoC5/cyPm.c **** void CyPmOppsSet(void) 
1519:Generated_Source\PSoC5/cyPm.c **** {
1520:Generated_Source\PSoC5/cyPm.c ****     /* Enable 32kHz XTAL if needed */
1521:Generated_Source\PSoC5/cyPm.c ****     if(0u == (CY_PM_SLOWCLK_X32_CR_REG & CY_PM_X32_CR_X32EN))
1522:Generated_Source\PSoC5/cyPm.c ****     {
1523:Generated_Source\PSoC5/cyPm.c ****         /* Enable 32kHz XTAL */
1524:Generated_Source\PSoC5/cyPm.c ****         CyXTAL_32KHZ_Start();
1525:Generated_Source\PSoC5/cyPm.c ****     }
1526:Generated_Source\PSoC5/cyPm.c **** 
1527:Generated_Source\PSoC5/cyPm.c ****     /* Disable 1PPS interrupt enable */
1528:Generated_Source\PSoC5/cyPm.c ****     CY_PM_TW_CFG2_REG &= ((uint8)(~CY_PM_1PPS_IE));
1529:Generated_Source\PSoC5/cyPm.c **** 
1530:Generated_Source\PSoC5/cyPm.c ****     /* Enable 1PPS operation */
1531:Generated_Source\PSoC5/cyPm.c ****     CY_PM_TW_CFG2_REG |= CY_PM_1PPS_EN;
1532:Generated_Source\PSoC5/cyPm.c **** }
1533:Generated_Source\PSoC5/cyPm.c **** 
1534:Generated_Source\PSoC5/cyPm.c **** 
1535:Generated_Source\PSoC5/cyPm.c **** /*******************************************************************************
1536:Generated_Source\PSoC5/cyPm.c **** * Function Name: CyPmFtwSetInterval
1537:Generated_Source\PSoC5/cyPm.c **** ****************************************************************************//**
1538:Generated_Source\PSoC5/cyPm.c **** *
1539:Generated_Source\PSoC5/cyPm.c **** *  Performs the FTW configuration:
1540:Generated_Source\PSoC5/cyPm.c **** *  - Disables the FTW interrupt
1541:Generated_Source\PSoC5/cyPm.c **** *  - Enables 100 kHz ILO
1542:Generated_Source\PSoC5/cyPm.c **** *  - Sets a new FTW interval.
1543:Generated_Source\PSoC5/cyPm.c **** *
1544:Generated_Source\PSoC5/cyPm.c **** *  \param ftwInterval The FTW counter interval.
1545:Generated_Source\PSoC5/cyPm.c **** *
1546:Generated_Source\PSoC5/cyPm.c **** * \sideeffect
1547:Generated_Source\PSoC5/cyPm.c **** *  Enables the ILO 100 KHz clock and leaves it enabled.
1548:Generated_Source\PSoC5/cyPm.c **** *
1549:Generated_Source\PSoC5/cyPm.c **** *******************************************************************************/
1550:Generated_Source\PSoC5/cyPm.c **** void CyPmFtwSetInterval(uint8 ftwInterval) 
1551:Generated_Source\PSoC5/cyPm.c **** {
1552:Generated_Source\PSoC5/cyPm.c ****     /* Disable FTW interrupt enable */
1553:Generated_Source\PSoC5/cyPm.c ****     CY_PM_TW_CFG2_REG &= ((uint8)(~CY_PM_FTW_IE));
1554:Generated_Source\PSoC5/cyPm.c **** 
1555:Generated_Source\PSoC5/cyPm.c ****     /* Enable 100kHz ILO */
1556:Generated_Source\PSoC5/cyPm.c ****     CyILO_Start100K();
1557:Generated_Source\PSoC5/cyPm.c **** 
1558:Generated_Source\PSoC5/cyPm.c ****     /* Interval could be set only while FTW is disabled */
1559:Generated_Source\PSoC5/cyPm.c ****     if(0u != (CY_PM_TW_CFG2_REG & CY_PM_FTW_EN))
1560:Generated_Source\PSoC5/cyPm.c ****     {
1561:Generated_Source\PSoC5/cyPm.c ****         /* Disable FTW, set new FTW interval if needed and enable it again */
1562:Generated_Source\PSoC5/cyPm.c ****         if(CY_PM_TW_CFG0_REG != ftwInterval)
1563:Generated_Source\PSoC5/cyPm.c ****         {
1564:Generated_Source\PSoC5/cyPm.c ****             /* Disable CTW, set new CTW interval and enable it again */
1565:Generated_Source\PSoC5/cyPm.c ****             CY_PM_TW_CFG2_REG &= ((uint8)(~CY_PM_FTW_EN));
1566:Generated_Source\PSoC5/cyPm.c ****             CY_PM_TW_CFG0_REG = ftwInterval;
1567:Generated_Source\PSoC5/cyPm.c ****             CY_PM_TW_CFG2_REG |= CY_PM_FTW_EN;
1568:Generated_Source\PSoC5/cyPm.c ****         }   /* Required interval is already set */
1569:Generated_Source\PSoC5/cyPm.c ****     }
1570:Generated_Source\PSoC5/cyPm.c ****     else
ARM GAS  C:\Users\dmarsch\AppData\Local\Temp\ccqopW1v.s 			page 29


1571:Generated_Source\PSoC5/cyPm.c ****     {
1572:Generated_Source\PSoC5/cyPm.c ****         /* Set new FTW counter interval if needed. FTW is disabled. */
1573:Generated_Source\PSoC5/cyPm.c ****         if(CY_PM_TW_CFG0_REG != ftwInterval)
1574:Generated_Source\PSoC5/cyPm.c ****         {
1575:Generated_Source\PSoC5/cyPm.c ****             /* Set new CTW interval. Could be changed if CTW is disabled */
1576:Generated_Source\PSoC5/cyPm.c ****             CY_PM_TW_CFG0_REG = ftwInterval;
1577:Generated_Source\PSoC5/cyPm.c ****         }   /* Required interval is already set */
1578:Generated_Source\PSoC5/cyPm.c **** 
1579:Generated_Source\PSoC5/cyPm.c ****         /* Enable FTW */
1580:Generated_Source\PSoC5/cyPm.c ****         CY_PM_TW_CFG2_REG |= CY_PM_FTW_EN;
1581:Generated_Source\PSoC5/cyPm.c ****     }
1582:Generated_Source\PSoC5/cyPm.c **** }
1583:Generated_Source\PSoC5/cyPm.c **** 
1584:Generated_Source\PSoC5/cyPm.c **** 
1585:Generated_Source\PSoC5/cyPm.c **** /*******************************************************************************
1586:Generated_Source\PSoC5/cyPm.c **** * Function Name: CyPmHibSlpSaveSet
1587:Generated_Source\PSoC5/cyPm.c **** ****************************************************************************//**
1588:Generated_Source\PSoC5/cyPm.c **** *
1589:Generated_Source\PSoC5/cyPm.c **** *  This API is used for preparing the device for the Sleep and Hibernate low
1590:Generated_Source\PSoC5/cyPm.c **** *  power modes entry:
1591:Generated_Source\PSoC5/cyPm.c **** *  - Saves the COMP, VIDAC, DSM, and SAR routing connections (PSoC 5)
1592:Generated_Source\PSoC5/cyPm.c **** *  - Saves the SC/CT routing connections (PSoC 3/5/5LP)
1593:Generated_Source\PSoC5/cyPm.c **** *  - Disables the Serial Wire Viewer (SWV) (PSoC 3)
1594:Generated_Source\PSoC5/cyPm.c **** *  - Saves the boost reference selection and sets it to internal
1595:Generated_Source\PSoC5/cyPm.c **** *
1596:Generated_Source\PSoC5/cyPm.c **** * Reentrant:
1597:Generated_Source\PSoC5/cyPm.c **** *  No
1598:Generated_Source\PSoC5/cyPm.c **** *
1599:Generated_Source\PSoC5/cyPm.c **** *******************************************************************************/
1600:Generated_Source\PSoC5/cyPm.c **** static void CyPmHibSlpSaveSet(void) 
1601:Generated_Source\PSoC5/cyPm.c **** {
  27              		.loc 1 1601 0
  28              		.cfi_startproc
  29              		@ args = 0, pretend = 0, frame = 0
  30              		@ frame_needed = 0, uses_anonymous_args = 0
  31 0000 2DE9F04F 		push	{r4, r5, r6, r7, r8, r9, r10, fp, lr}
  32              		.cfi_def_cfa_offset 36
  33              		.cfi_offset 4, -36
  34              		.cfi_offset 5, -32
  35              		.cfi_offset 6, -28
  36              		.cfi_offset 7, -24
  37              		.cfi_offset 8, -20
  38              		.cfi_offset 9, -16
  39              		.cfi_offset 10, -12
  40              		.cfi_offset 11, -8
  41              		.cfi_offset 14, -4
1602:Generated_Source\PSoC5/cyPm.c ****     /* Save SC/CT routing registers */
1603:Generated_Source\PSoC5/cyPm.c ****     cyPmBackup.scctData[0u]   = CY_GET_REG8(CYREG_SC0_SW0 );
  42              		.loc 1 1603 0
  43 0004 DFF8BCA1 		ldr	r10, .L5+96
  44 0008 9AF80020 		ldrb	r2, [r10]	@ zero_extendqisi2
  45 000c 554B     		ldr	r3, .L5
  46 000e 9A72     		strb	r2, [r3, #10]
1604:Generated_Source\PSoC5/cyPm.c ****     cyPmBackup.scctData[1u]   = CY_GET_REG8(CYREG_SC0_SW2 );
  47              		.loc 1 1604 0
  48 0010 DFF8B491 		ldr	r9, .L5+100
  49 0014 99F80020 		ldrb	r2, [r9]	@ zero_extendqisi2
ARM GAS  C:\Users\dmarsch\AppData\Local\Temp\ccqopW1v.s 			page 30


  50 0018 DA72     		strb	r2, [r3, #11]
1605:Generated_Source\PSoC5/cyPm.c ****     cyPmBackup.scctData[2u]   = CY_GET_REG8(CYREG_SC0_SW3 );
  51              		.loc 1 1605 0
  52 001a 534A     		ldr	r2, .L5+4
  53 001c 1278     		ldrb	r2, [r2]	@ zero_extendqisi2
  54 001e 1A73     		strb	r2, [r3, #12]
1606:Generated_Source\PSoC5/cyPm.c ****     cyPmBackup.scctData[3u]   = CY_GET_REG8(CYREG_SC0_SW4 );
  55              		.loc 1 1606 0
  56 0020 524A     		ldr	r2, .L5+8
  57 0022 1278     		ldrb	r2, [r2]	@ zero_extendqisi2
  58 0024 5A73     		strb	r2, [r3, #13]
1607:Generated_Source\PSoC5/cyPm.c ****     cyPmBackup.scctData[4u]   = CY_GET_REG8(CYREG_SC0_SW6 );
  59              		.loc 1 1607 0
  60 0026 524A     		ldr	r2, .L5+12
  61 0028 1278     		ldrb	r2, [r2]	@ zero_extendqisi2
  62 002a 9A73     		strb	r2, [r3, #14]
1608:Generated_Source\PSoC5/cyPm.c ****     cyPmBackup.scctData[5u]   = CY_GET_REG8(CYREG_SC0_SW8 );
  63              		.loc 1 1608 0
  64 002c 514A     		ldr	r2, .L5+16
  65 002e 1278     		ldrb	r2, [r2]	@ zero_extendqisi2
  66 0030 DA73     		strb	r2, [r3, #15]
1609:Generated_Source\PSoC5/cyPm.c ****     cyPmBackup.scctData[6u]   = CY_GET_REG8(CYREG_SC0_SW10);
  67              		.loc 1 1609 0
  68 0032 514A     		ldr	r2, .L5+20
  69 0034 1278     		ldrb	r2, [r2]	@ zero_extendqisi2
  70 0036 1A74     		strb	r2, [r3, #16]
1610:Generated_Source\PSoC5/cyPm.c **** 
1611:Generated_Source\PSoC5/cyPm.c ****     cyPmBackup.scctData[7u]   = CY_GET_REG8(CYREG_SC1_SW0 );
  71              		.loc 1 1611 0
  72 0038 504A     		ldr	r2, .L5+24
  73 003a 1278     		ldrb	r2, [r2]	@ zero_extendqisi2
  74 003c 5A74     		strb	r2, [r3, #17]
1612:Generated_Source\PSoC5/cyPm.c ****     cyPmBackup.scctData[8u]   = CY_GET_REG8(CYREG_SC1_SW2 );
  75              		.loc 1 1612 0
  76 003e 504A     		ldr	r2, .L5+28
  77 0040 1278     		ldrb	r2, [r2]	@ zero_extendqisi2
  78 0042 9A74     		strb	r2, [r3, #18]
1613:Generated_Source\PSoC5/cyPm.c ****     cyPmBackup.scctData[9u]   = CY_GET_REG8(CYREG_SC1_SW3 );
  79              		.loc 1 1613 0
  80 0044 4F4A     		ldr	r2, .L5+32
  81 0046 1278     		ldrb	r2, [r2]	@ zero_extendqisi2
  82 0048 DA74     		strb	r2, [r3, #19]
1614:Generated_Source\PSoC5/cyPm.c ****     cyPmBackup.scctData[10u]  = CY_GET_REG8(CYREG_SC1_SW4 );
  83              		.loc 1 1614 0
  84 004a 4F4A     		ldr	r2, .L5+36
  85 004c 1278     		ldrb	r2, [r2]	@ zero_extendqisi2
  86 004e 1A75     		strb	r2, [r3, #20]
1615:Generated_Source\PSoC5/cyPm.c ****     cyPmBackup.scctData[11u]  = CY_GET_REG8(CYREG_SC1_SW6 );
  87              		.loc 1 1615 0
  88 0050 4E4A     		ldr	r2, .L5+40
  89 0052 1278     		ldrb	r2, [r2]	@ zero_extendqisi2
  90 0054 5A75     		strb	r2, [r3, #21]
1616:Generated_Source\PSoC5/cyPm.c ****     cyPmBackup.scctData[12u]  = CY_GET_REG8(CYREG_SC1_SW8 );
  91              		.loc 1 1616 0
  92 0056 4E4A     		ldr	r2, .L5+44
  93 0058 1278     		ldrb	r2, [r2]	@ zero_extendqisi2
  94 005a 9A75     		strb	r2, [r3, #22]
ARM GAS  C:\Users\dmarsch\AppData\Local\Temp\ccqopW1v.s 			page 31


1617:Generated_Source\PSoC5/cyPm.c ****     cyPmBackup.scctData[13u]  = CY_GET_REG8(CYREG_SC1_SW10);
  95              		.loc 1 1617 0
  96 005c 4D4A     		ldr	r2, .L5+48
  97 005e 1278     		ldrb	r2, [r2]	@ zero_extendqisi2
  98 0060 DA75     		strb	r2, [r3, #23]
1618:Generated_Source\PSoC5/cyPm.c **** 
1619:Generated_Source\PSoC5/cyPm.c ****     cyPmBackup.scctData[14u]  = CY_GET_REG8(CYREG_SC2_SW0 );
  99              		.loc 1 1619 0
 100 0062 4D4A     		ldr	r2, .L5+52
 101 0064 1278     		ldrb	r2, [r2]	@ zero_extendqisi2
 102 0066 1A76     		strb	r2, [r3, #24]
1620:Generated_Source\PSoC5/cyPm.c ****     cyPmBackup.scctData[15u]  = CY_GET_REG8(CYREG_SC2_SW2 );
 103              		.loc 1 1620 0
 104 0068 4C4A     		ldr	r2, .L5+56
 105 006a 1278     		ldrb	r2, [r2]	@ zero_extendqisi2
 106 006c 5A76     		strb	r2, [r3, #25]
1621:Generated_Source\PSoC5/cyPm.c ****     cyPmBackup.scctData[16u]  = CY_GET_REG8(CYREG_SC2_SW3 );
 107              		.loc 1 1621 0
 108 006e 4C4A     		ldr	r2, .L5+60
 109 0070 1278     		ldrb	r2, [r2]	@ zero_extendqisi2
 110 0072 9A76     		strb	r2, [r3, #26]
1622:Generated_Source\PSoC5/cyPm.c ****     cyPmBackup.scctData[17u]  = CY_GET_REG8(CYREG_SC2_SW4 );
 111              		.loc 1 1622 0
 112 0074 DFF854B1 		ldr	fp, .L5+104
 113 0078 9BF80020 		ldrb	r2, [fp]	@ zero_extendqisi2
 114 007c DA76     		strb	r2, [r3, #27]
1623:Generated_Source\PSoC5/cyPm.c ****     cyPmBackup.scctData[18u]  = CY_GET_REG8(CYREG_SC2_SW6 );
 115              		.loc 1 1623 0
 116 007e DFF85081 		ldr	r8, .L5+108
 117 0082 98F80020 		ldrb	r2, [r8]	@ zero_extendqisi2
 118 0086 1A77     		strb	r2, [r3, #28]
1624:Generated_Source\PSoC5/cyPm.c ****     cyPmBackup.scctData[19u]  = CY_GET_REG8(CYREG_SC2_SW8 );
 119              		.loc 1 1624 0
 120 0088 DFF848C1 		ldr	ip, .L5+112
 121 008c 9CF80020 		ldrb	r2, [ip]	@ zero_extendqisi2
 122 0090 5A77     		strb	r2, [r3, #29]
1625:Generated_Source\PSoC5/cyPm.c ****     cyPmBackup.scctData[20u]  = CY_GET_REG8(CYREG_SC2_SW10);
 123              		.loc 1 1625 0
 124 0092 DFF844E1 		ldr	lr, .L5+116
 125 0096 9EF80020 		ldrb	r2, [lr]	@ zero_extendqisi2
 126 009a 9A77     		strb	r2, [r3, #30]
1626:Generated_Source\PSoC5/cyPm.c **** 
1627:Generated_Source\PSoC5/cyPm.c ****     cyPmBackup.scctData[21u]  = CY_GET_REG8(CYREG_SC3_SW0 );
 127              		.loc 1 1627 0
 128 009c 414F     		ldr	r7, .L5+64
 129 009e 3A78     		ldrb	r2, [r7]	@ zero_extendqisi2
 130 00a0 DA77     		strb	r2, [r3, #31]
1628:Generated_Source\PSoC5/cyPm.c ****     cyPmBackup.scctData[22u]  = CY_GET_REG8(CYREG_SC3_SW2 );
 131              		.loc 1 1628 0
 132 00a2 414E     		ldr	r6, .L5+68
 133 00a4 3278     		ldrb	r2, [r6]	@ zero_extendqisi2
 134 00a6 83F82020 		strb	r2, [r3, #32]
1629:Generated_Source\PSoC5/cyPm.c ****     cyPmBackup.scctData[23u]  = CY_GET_REG8(CYREG_SC3_SW3 );
 135              		.loc 1 1629 0
 136 00aa 404D     		ldr	r5, .L5+72
 137 00ac 2A78     		ldrb	r2, [r5]	@ zero_extendqisi2
 138 00ae 83F82120 		strb	r2, [r3, #33]
ARM GAS  C:\Users\dmarsch\AppData\Local\Temp\ccqopW1v.s 			page 32


1630:Generated_Source\PSoC5/cyPm.c ****     cyPmBackup.scctData[24u]  = CY_GET_REG8(CYREG_SC3_SW4 );
 139              		.loc 1 1630 0
 140 00b2 3F4C     		ldr	r4, .L5+76
 141 00b4 2278     		ldrb	r2, [r4]	@ zero_extendqisi2
 142 00b6 83F82220 		strb	r2, [r3, #34]
1631:Generated_Source\PSoC5/cyPm.c ****     cyPmBackup.scctData[25u]  = CY_GET_REG8(CYREG_SC3_SW6 );
 143              		.loc 1 1631 0
 144 00ba 3E48     		ldr	r0, .L5+80
 145 00bc 0278     		ldrb	r2, [r0]	@ zero_extendqisi2
 146 00be 83F82320 		strb	r2, [r3, #35]
1632:Generated_Source\PSoC5/cyPm.c ****     cyPmBackup.scctData[26u]  = CY_GET_REG8(CYREG_SC3_SW8 );
 147              		.loc 1 1632 0
 148 00c2 3D49     		ldr	r1, .L5+84
 149 00c4 0A78     		ldrb	r2, [r1]	@ zero_extendqisi2
 150 00c6 83F82420 		strb	r2, [r3, #36]
1633:Generated_Source\PSoC5/cyPm.c ****     cyPmBackup.scctData[27u]  = CY_GET_REG8(CYREG_SC3_SW10);
 151              		.loc 1 1633 0
 152 00ca 3C4A     		ldr	r2, .L5+88
 153 00cc 1278     		ldrb	r2, [r2]	@ zero_extendqisi2
 154 00ce 83F82520 		strb	r2, [r3, #37]
1634:Generated_Source\PSoC5/cyPm.c **** 
1635:Generated_Source\PSoC5/cyPm.c ****     CY_SET_REG8(CYREG_SC0_SW0 , 0u);
 155              		.loc 1 1635 0
 156 00d2 0023     		movs	r3, #0
 157 00d4 8AF80030 		strb	r3, [r10]
1636:Generated_Source\PSoC5/cyPm.c ****     CY_SET_REG8(CYREG_SC0_SW2 , 0u);
 158              		.loc 1 1636 0
 159 00d8 89F80030 		strb	r3, [r9]
1637:Generated_Source\PSoC5/cyPm.c ****     CY_SET_REG8(CYREG_SC0_SW3 , 0u);
 160              		.loc 1 1637 0
 161 00dc 224A     		ldr	r2, .L5+4
 162 00de 1370     		strb	r3, [r2]
1638:Generated_Source\PSoC5/cyPm.c ****     CY_SET_REG8(CYREG_SC0_SW4 , 0u);
 163              		.loc 1 1638 0
 164 00e0 0132     		adds	r2, r2, #1
 165 00e2 1370     		strb	r3, [r2]
1639:Generated_Source\PSoC5/cyPm.c ****     CY_SET_REG8(CYREG_SC0_SW6 , 0u);
 166              		.loc 1 1639 0
 167 00e4 0232     		adds	r2, r2, #2
 168 00e6 1370     		strb	r3, [r2]
1640:Generated_Source\PSoC5/cyPm.c ****     CY_SET_REG8(CYREG_SC0_SW8 , 0u);
 169              		.loc 1 1640 0
 170 00e8 0232     		adds	r2, r2, #2
 171 00ea 1370     		strb	r3, [r2]
1641:Generated_Source\PSoC5/cyPm.c ****     CY_SET_REG8(CYREG_SC0_SW10, 0u);
 172              		.loc 1 1641 0
 173 00ec 0232     		adds	r2, r2, #2
 174 00ee 1370     		strb	r3, [r2]
1642:Generated_Source\PSoC5/cyPm.c **** 
1643:Generated_Source\PSoC5/cyPm.c ****     CY_SET_REG8(CYREG_SC1_SW0 , 0u);
 175              		.loc 1 1643 0
 176 00f0 0632     		adds	r2, r2, #6
 177 00f2 1370     		strb	r3, [r2]
1644:Generated_Source\PSoC5/cyPm.c ****     CY_SET_REG8(CYREG_SC1_SW2 , 0u);
 178              		.loc 1 1644 0
 179 00f4 0232     		adds	r2, r2, #2
 180 00f6 1370     		strb	r3, [r2]
ARM GAS  C:\Users\dmarsch\AppData\Local\Temp\ccqopW1v.s 			page 33


1645:Generated_Source\PSoC5/cyPm.c ****     CY_SET_REG8(CYREG_SC1_SW3 , 0u);
 181              		.loc 1 1645 0
 182 00f8 0132     		adds	r2, r2, #1
 183 00fa 1370     		strb	r3, [r2]
1646:Generated_Source\PSoC5/cyPm.c ****     CY_SET_REG8(CYREG_SC1_SW4 , 0u);
 184              		.loc 1 1646 0
 185 00fc 0132     		adds	r2, r2, #1
 186 00fe 1370     		strb	r3, [r2]
1647:Generated_Source\PSoC5/cyPm.c ****     CY_SET_REG8(CYREG_SC1_SW6 , 0u);
 187              		.loc 1 1647 0
 188 0100 0232     		adds	r2, r2, #2
 189 0102 1370     		strb	r3, [r2]
1648:Generated_Source\PSoC5/cyPm.c ****     CY_SET_REG8(CYREG_SC1_SW8 , 0u);
 190              		.loc 1 1648 0
 191 0104 0232     		adds	r2, r2, #2
 192 0106 1370     		strb	r3, [r2]
1649:Generated_Source\PSoC5/cyPm.c ****     CY_SET_REG8(CYREG_SC1_SW10, 0u);
 193              		.loc 1 1649 0
 194 0108 0232     		adds	r2, r2, #2
 195 010a 1370     		strb	r3, [r2]
1650:Generated_Source\PSoC5/cyPm.c **** 
1651:Generated_Source\PSoC5/cyPm.c ****     CY_SET_REG8(CYREG_SC2_SW0 , 0u);
 196              		.loc 1 1651 0
 197 010c 0632     		adds	r2, r2, #6
 198 010e 1370     		strb	r3, [r2]
1652:Generated_Source\PSoC5/cyPm.c ****     CY_SET_REG8(CYREG_SC2_SW2 , 0u);
 199              		.loc 1 1652 0
 200 0110 0232     		adds	r2, r2, #2
 201 0112 1370     		strb	r3, [r2]
1653:Generated_Source\PSoC5/cyPm.c ****     CY_SET_REG8(CYREG_SC2_SW3 , 0u);
 202              		.loc 1 1653 0
 203 0114 0132     		adds	r2, r2, #1
 204 0116 1370     		strb	r3, [r2]
1654:Generated_Source\PSoC5/cyPm.c ****     CY_SET_REG8(CYREG_SC2_SW4 , 0u);
 205              		.loc 1 1654 0
 206 0118 8BF80030 		strb	r3, [fp]
1655:Generated_Source\PSoC5/cyPm.c ****     CY_SET_REG8(CYREG_SC2_SW6 , 0u);
 207              		.loc 1 1655 0
 208 011c 88F80030 		strb	r3, [r8]
1656:Generated_Source\PSoC5/cyPm.c ****     CY_SET_REG8(CYREG_SC2_SW8 , 0u);
 209              		.loc 1 1656 0
 210 0120 8CF80030 		strb	r3, [ip]
1657:Generated_Source\PSoC5/cyPm.c ****     CY_SET_REG8(CYREG_SC2_SW10, 0u);
 211              		.loc 1 1657 0
 212 0124 8EF80030 		strb	r3, [lr]
1658:Generated_Source\PSoC5/cyPm.c **** 
1659:Generated_Source\PSoC5/cyPm.c ****     CY_SET_REG8(CYREG_SC3_SW0 , 0u);
 213              		.loc 1 1659 0
 214 0128 3B70     		strb	r3, [r7]
1660:Generated_Source\PSoC5/cyPm.c ****     CY_SET_REG8(CYREG_SC3_SW2 , 0u);
 215              		.loc 1 1660 0
 216 012a 3370     		strb	r3, [r6]
1661:Generated_Source\PSoC5/cyPm.c ****     CY_SET_REG8(CYREG_SC3_SW3 , 0u);
 217              		.loc 1 1661 0
 218 012c 2B70     		strb	r3, [r5]
1662:Generated_Source\PSoC5/cyPm.c ****     CY_SET_REG8(CYREG_SC3_SW4 , 0u);
 219              		.loc 1 1662 0
ARM GAS  C:\Users\dmarsch\AppData\Local\Temp\ccqopW1v.s 			page 34


 220 012e 2370     		strb	r3, [r4]
1663:Generated_Source\PSoC5/cyPm.c ****     CY_SET_REG8(CYREG_SC3_SW6 , 0u);
 221              		.loc 1 1663 0
 222 0130 0370     		strb	r3, [r0]
1664:Generated_Source\PSoC5/cyPm.c ****     CY_SET_REG8(CYREG_SC3_SW8 , 0u);
 223              		.loc 1 1664 0
 224 0132 0B70     		strb	r3, [r1]
1665:Generated_Source\PSoC5/cyPm.c ****     CY_SET_REG8(CYREG_SC3_SW10, 0u);
 225              		.loc 1 1665 0
 226 0134 1732     		adds	r2, r2, #23
 227 0136 1370     		strb	r3, [r2]
1666:Generated_Source\PSoC5/cyPm.c **** 
1667:Generated_Source\PSoC5/cyPm.c **** 
1668:Generated_Source\PSoC5/cyPm.c ****     #if(CY_PSOC3)
1669:Generated_Source\PSoC5/cyPm.c **** 
1670:Generated_Source\PSoC5/cyPm.c ****         /* Serial Wire Viewer (SWV) workaround */
1671:Generated_Source\PSoC5/cyPm.c **** 
1672:Generated_Source\PSoC5/cyPm.c ****         /* Disable SWV before entering low power mode */
1673:Generated_Source\PSoC5/cyPm.c ****         if(0u != (CY_PM_MLOGIC_DBG_REG & CY_PM_MLOGIC_DBG_SWV_CLK_EN))
1674:Generated_Source\PSoC5/cyPm.c ****         {
1675:Generated_Source\PSoC5/cyPm.c ****             /* Save SWV clock enabled state */
1676:Generated_Source\PSoC5/cyPm.c ****             cyPmBackup.swvClkEnabled = CY_PM_ENABLED;
1677:Generated_Source\PSoC5/cyPm.c **** 
1678:Generated_Source\PSoC5/cyPm.c ****             /* Save current ports drive mode settings */
1679:Generated_Source\PSoC5/cyPm.c ****             cyPmBackup.prt1Dm = CY_PM_PRT1_PC3_REG & ((uint8)(~CY_PM_PRT1_PC3_DM_MASK));
1680:Generated_Source\PSoC5/cyPm.c **** 
1681:Generated_Source\PSoC5/cyPm.c ****             /* Set drive mode to strong output */
1682:Generated_Source\PSoC5/cyPm.c ****             CY_PM_PRT1_PC3_REG = (CY_PM_PRT1_PC3_REG & CY_PM_PRT1_PC3_DM_MASK) |
1683:Generated_Source\PSoC5/cyPm.c ****                                 CY_PM_PRT1_PC3_DM_STRONG;
1684:Generated_Source\PSoC5/cyPm.c **** 
1685:Generated_Source\PSoC5/cyPm.c ****             /* Disable SWV clocks */
1686:Generated_Source\PSoC5/cyPm.c ****             CY_PM_MLOGIC_DBG_REG &= ((uint8)(~CY_PM_MLOGIC_DBG_SWV_CLK_EN));
1687:Generated_Source\PSoC5/cyPm.c ****         }
1688:Generated_Source\PSoC5/cyPm.c ****         else
1689:Generated_Source\PSoC5/cyPm.c ****         {
1690:Generated_Source\PSoC5/cyPm.c ****             /* Save SWV clock disabled state */
1691:Generated_Source\PSoC5/cyPm.c ****             cyPmBackup.swvClkEnabled = CY_PM_DISABLED;
1692:Generated_Source\PSoC5/cyPm.c ****         }
1693:Generated_Source\PSoC5/cyPm.c **** 
1694:Generated_Source\PSoC5/cyPm.c ****     #endif  /* (CY_PSOC3) */
1695:Generated_Source\PSoC5/cyPm.c **** 
1696:Generated_Source\PSoC5/cyPm.c **** 
1697:Generated_Source\PSoC5/cyPm.c ****     /***************************************************************************
1698:Generated_Source\PSoC5/cyPm.c ****     * Save boost reference and set it to boost's internal by clearing the bit.
1699:Generated_Source\PSoC5/cyPm.c ****     * External (chip bandgap) reference is not available in Sleep and Hibernate.
1700:Generated_Source\PSoC5/cyPm.c ****     ***************************************************************************/
1701:Generated_Source\PSoC5/cyPm.c ****     if(0u != (CY_PM_BOOST_CR2_REG & CY_PM_BOOST_CR2_EREFSEL_EXT))
 228              		.loc 1 1701 0
 229 0138 214B     		ldr	r3, .L5+92
 230 013a 1B78     		ldrb	r3, [r3]	@ zero_extendqisi2
 231 013c 13F0080F 		tst	r3, #8
 232 0140 0AD0     		beq	.L2
1702:Generated_Source\PSoC5/cyPm.c ****     {
1703:Generated_Source\PSoC5/cyPm.c ****         cyPmBackup.boostRefExt = CY_PM_ENABLED;
 233              		.loc 1 1703 0
 234 0142 0122     		movs	r2, #1
 235 0144 074B     		ldr	r3, .L5
ARM GAS  C:\Users\dmarsch\AppData\Local\Temp\ccqopW1v.s 			page 35


 236 0146 83F82F20 		strb	r2, [r3, #47]
1704:Generated_Source\PSoC5/cyPm.c ****         CY_PM_BOOST_CR2_REG &= ((uint8)(~CY_PM_BOOST_CR2_EREFSEL_EXT));
 237              		.loc 1 1704 0
 238 014a 1D4A     		ldr	r2, .L5+92
 239 014c 1378     		ldrb	r3, [r2]	@ zero_extendqisi2
 240 014e 03F0F703 		and	r3, r3, #247
 241 0152 1370     		strb	r3, [r2]
 242 0154 BDE8F08F 		pop	{r4, r5, r6, r7, r8, r9, r10, fp, pc}
 243              	.L2:
1705:Generated_Source\PSoC5/cyPm.c ****     }
1706:Generated_Source\PSoC5/cyPm.c ****     else
1707:Generated_Source\PSoC5/cyPm.c ****     {
1708:Generated_Source\PSoC5/cyPm.c ****         cyPmBackup.boostRefExt = CY_PM_DISABLED;
 244              		.loc 1 1708 0
 245 0158 0022     		movs	r2, #0
 246 015a 024B     		ldr	r3, .L5
 247 015c 83F82F20 		strb	r2, [r3, #47]
 248 0160 BDE8F08F 		pop	{r4, r5, r6, r7, r8, r9, r10, fp, pc}
 249              	.L6:
 250              		.align	2
 251              	.L5:
 252 0164 00000000 		.word	.LANCHOR0
 253 0168 035A0040 		.word	1073764867
 254 016c 045A0040 		.word	1073764868
 255 0170 065A0040 		.word	1073764870
 256 0174 085A0040 		.word	1073764872
 257 0178 0A5A0040 		.word	1073764874
 258 017c 105A0040 		.word	1073764880
 259 0180 125A0040 		.word	1073764882
 260 0184 135A0040 		.word	1073764883
 261 0188 145A0040 		.word	1073764884
 262 018c 165A0040 		.word	1073764886
 263 0190 185A0040 		.word	1073764888
 264 0194 1A5A0040 		.word	1073764890
 265 0198 205A0040 		.word	1073764896
 266 019c 225A0040 		.word	1073764898
 267 01a0 235A0040 		.word	1073764899
 268 01a4 305A0040 		.word	1073764912
 269 01a8 325A0040 		.word	1073764914
 270 01ac 335A0040 		.word	1073764915
 271 01b0 345A0040 		.word	1073764916
 272 01b4 365A0040 		.word	1073764918
 273 01b8 385A0040 		.word	1073764920
 274 01bc 3A5A0040 		.word	1073764922
 275 01c0 22430040 		.word	1073759010
 276 01c4 005A0040 		.word	1073764864
 277 01c8 025A0040 		.word	1073764866
 278 01cc 245A0040 		.word	1073764900
 279 01d0 265A0040 		.word	1073764902
 280 01d4 285A0040 		.word	1073764904
 281 01d8 2A5A0040 		.word	1073764906
 282              		.cfi_endproc
 283              	.LFE12:
 284              		.size	CyPmHibSlpSaveSet, .-CyPmHibSlpSaveSet
 285              		.section	.text.CyPmHibSlpRestore,"ax",%progbits
 286              		.align	2
 287              		.thumb
ARM GAS  C:\Users\dmarsch\AppData\Local\Temp\ccqopW1v.s 			page 36


 288              		.thumb_func
 289              		.type	CyPmHibSlpRestore, %function
 290              	CyPmHibSlpRestore:
 291              	.LFB13:
1709:Generated_Source\PSoC5/cyPm.c ****     }
1710:Generated_Source\PSoC5/cyPm.c **** }
1711:Generated_Source\PSoC5/cyPm.c **** 
1712:Generated_Source\PSoC5/cyPm.c **** 
1713:Generated_Source\PSoC5/cyPm.c **** /*******************************************************************************
1714:Generated_Source\PSoC5/cyPm.c **** * Function Name: CyPmHibSlpRestore
1715:Generated_Source\PSoC5/cyPm.c **** ****************************************************************************//**
1716:Generated_Source\PSoC5/cyPm.c **** *
1717:Generated_Source\PSoC5/cyPm.c **** *  This API is used for restoring the device configurations after wakeup from
1718:Generated_Source\PSoC5/cyPm.c **** *  the Sleep and Hibernate low power modes:
1719:Generated_Source\PSoC5/cyPm.c **** *  - Restores the SC/CT routing connections
1720:Generated_Source\PSoC5/cyPm.c **** *  - Restores the enable state of the Serial Wire Viewer (SWV) (PSoC 3)
1721:Generated_Source\PSoC5/cyPm.c **** *  - Restores the  boost reference selection
1722:Generated_Source\PSoC5/cyPm.c **** *
1723:Generated_Source\PSoC5/cyPm.c **** *******************************************************************************/
1724:Generated_Source\PSoC5/cyPm.c **** static void CyPmHibSlpRestore(void) 
1725:Generated_Source\PSoC5/cyPm.c **** {
 292              		.loc 1 1725 0
 293              		.cfi_startproc
 294              		@ args = 0, pretend = 0, frame = 0
 295              		@ frame_needed = 0, uses_anonymous_args = 0
 296              		@ link register save eliminated.
1726:Generated_Source\PSoC5/cyPm.c ****     /* Restore SC/CT routing registers */
1727:Generated_Source\PSoC5/cyPm.c ****     CY_SET_REG8(CYREG_SC0_SW0 , cyPmBackup.scctData[0u] );
 297              		.loc 1 1727 0
 298 0000 334B     		ldr	r3, .L9
 299 0002 997A     		ldrb	r1, [r3, #10]	@ zero_extendqisi2
 300 0004 334A     		ldr	r2, .L9+4
 301 0006 1170     		strb	r1, [r2]
1728:Generated_Source\PSoC5/cyPm.c ****     CY_SET_REG8(CYREG_SC0_SW2 , cyPmBackup.scctData[1u] );
 302              		.loc 1 1728 0
 303 0008 D97A     		ldrb	r1, [r3, #11]	@ zero_extendqisi2
 304 000a 0232     		adds	r2, r2, #2
 305 000c 1170     		strb	r1, [r2]
1729:Generated_Source\PSoC5/cyPm.c ****     CY_SET_REG8(CYREG_SC0_SW3 , cyPmBackup.scctData[2u] );
 306              		.loc 1 1729 0
 307 000e 197B     		ldrb	r1, [r3, #12]	@ zero_extendqisi2
 308 0010 0132     		adds	r2, r2, #1
 309 0012 1170     		strb	r1, [r2]
1730:Generated_Source\PSoC5/cyPm.c ****     CY_SET_REG8(CYREG_SC0_SW4 , cyPmBackup.scctData[3u] );
 310              		.loc 1 1730 0
 311 0014 597B     		ldrb	r1, [r3, #13]	@ zero_extendqisi2
 312 0016 0132     		adds	r2, r2, #1
 313 0018 1170     		strb	r1, [r2]
1731:Generated_Source\PSoC5/cyPm.c ****     CY_SET_REG8(CYREG_SC0_SW6 , cyPmBackup.scctData[4u] );
 314              		.loc 1 1731 0
 315 001a 997B     		ldrb	r1, [r3, #14]	@ zero_extendqisi2
 316 001c 0232     		adds	r2, r2, #2
 317 001e 1170     		strb	r1, [r2]
1732:Generated_Source\PSoC5/cyPm.c ****     CY_SET_REG8(CYREG_SC0_SW8 , cyPmBackup.scctData[5u] );
 318              		.loc 1 1732 0
 319 0020 D97B     		ldrb	r1, [r3, #15]	@ zero_extendqisi2
 320 0022 0232     		adds	r2, r2, #2
ARM GAS  C:\Users\dmarsch\AppData\Local\Temp\ccqopW1v.s 			page 37


 321 0024 1170     		strb	r1, [r2]
1733:Generated_Source\PSoC5/cyPm.c ****     CY_SET_REG8(CYREG_SC0_SW10, cyPmBackup.scctData[6u] );
 322              		.loc 1 1733 0
 323 0026 197C     		ldrb	r1, [r3, #16]	@ zero_extendqisi2
 324 0028 0232     		adds	r2, r2, #2
 325 002a 1170     		strb	r1, [r2]
1734:Generated_Source\PSoC5/cyPm.c **** 
1735:Generated_Source\PSoC5/cyPm.c ****     CY_SET_REG8(CYREG_SC1_SW0 , cyPmBackup.scctData[7u] );
 326              		.loc 1 1735 0
 327 002c 597C     		ldrb	r1, [r3, #17]	@ zero_extendqisi2
 328 002e 0632     		adds	r2, r2, #6
 329 0030 1170     		strb	r1, [r2]
1736:Generated_Source\PSoC5/cyPm.c ****     CY_SET_REG8(CYREG_SC1_SW2 , cyPmBackup.scctData[8u] );
 330              		.loc 1 1736 0
 331 0032 997C     		ldrb	r1, [r3, #18]	@ zero_extendqisi2
 332 0034 0232     		adds	r2, r2, #2
 333 0036 1170     		strb	r1, [r2]
1737:Generated_Source\PSoC5/cyPm.c ****     CY_SET_REG8(CYREG_SC1_SW3 , cyPmBackup.scctData[9u] );
 334              		.loc 1 1737 0
 335 0038 D97C     		ldrb	r1, [r3, #19]	@ zero_extendqisi2
 336 003a 0132     		adds	r2, r2, #1
 337 003c 1170     		strb	r1, [r2]
1738:Generated_Source\PSoC5/cyPm.c ****     CY_SET_REG8(CYREG_SC1_SW4 , cyPmBackup.scctData[10u]);
 338              		.loc 1 1738 0
 339 003e 197D     		ldrb	r1, [r3, #20]	@ zero_extendqisi2
 340 0040 0132     		adds	r2, r2, #1
 341 0042 1170     		strb	r1, [r2]
1739:Generated_Source\PSoC5/cyPm.c ****     CY_SET_REG8(CYREG_SC1_SW6 , cyPmBackup.scctData[11u]);
 342              		.loc 1 1739 0
 343 0044 597D     		ldrb	r1, [r3, #21]	@ zero_extendqisi2
 344 0046 0232     		adds	r2, r2, #2
 345 0048 1170     		strb	r1, [r2]
1740:Generated_Source\PSoC5/cyPm.c ****     CY_SET_REG8(CYREG_SC1_SW8 , cyPmBackup.scctData[12u]);
 346              		.loc 1 1740 0
 347 004a 997D     		ldrb	r1, [r3, #22]	@ zero_extendqisi2
 348 004c 0232     		adds	r2, r2, #2
 349 004e 1170     		strb	r1, [r2]
1741:Generated_Source\PSoC5/cyPm.c ****     CY_SET_REG8(CYREG_SC1_SW10, cyPmBackup.scctData[13u]);
 350              		.loc 1 1741 0
 351 0050 D97D     		ldrb	r1, [r3, #23]	@ zero_extendqisi2
 352 0052 0232     		adds	r2, r2, #2
 353 0054 1170     		strb	r1, [r2]
1742:Generated_Source\PSoC5/cyPm.c **** 
1743:Generated_Source\PSoC5/cyPm.c ****     CY_SET_REG8(CYREG_SC2_SW0 , cyPmBackup.scctData[14u]);
 354              		.loc 1 1743 0
 355 0056 197E     		ldrb	r1, [r3, #24]	@ zero_extendqisi2
 356 0058 0632     		adds	r2, r2, #6
 357 005a 1170     		strb	r1, [r2]
1744:Generated_Source\PSoC5/cyPm.c ****     CY_SET_REG8(CYREG_SC2_SW2 , cyPmBackup.scctData[15u]);
 358              		.loc 1 1744 0
 359 005c 597E     		ldrb	r1, [r3, #25]	@ zero_extendqisi2
 360 005e 0232     		adds	r2, r2, #2
 361 0060 1170     		strb	r1, [r2]
1745:Generated_Source\PSoC5/cyPm.c ****     CY_SET_REG8(CYREG_SC2_SW3 , cyPmBackup.scctData[16u]);
 362              		.loc 1 1745 0
 363 0062 997E     		ldrb	r1, [r3, #26]	@ zero_extendqisi2
 364 0064 0132     		adds	r2, r2, #1
ARM GAS  C:\Users\dmarsch\AppData\Local\Temp\ccqopW1v.s 			page 38


 365 0066 1170     		strb	r1, [r2]
1746:Generated_Source\PSoC5/cyPm.c ****     CY_SET_REG8(CYREG_SC2_SW4 , cyPmBackup.scctData[17u]);
 366              		.loc 1 1746 0
 367 0068 D97E     		ldrb	r1, [r3, #27]	@ zero_extendqisi2
 368 006a 0132     		adds	r2, r2, #1
 369 006c 1170     		strb	r1, [r2]
1747:Generated_Source\PSoC5/cyPm.c ****     CY_SET_REG8(CYREG_SC2_SW6 , cyPmBackup.scctData[18u]);
 370              		.loc 1 1747 0
 371 006e 197F     		ldrb	r1, [r3, #28]	@ zero_extendqisi2
 372 0070 0232     		adds	r2, r2, #2
 373 0072 1170     		strb	r1, [r2]
1748:Generated_Source\PSoC5/cyPm.c ****     CY_SET_REG8(CYREG_SC2_SW8 , cyPmBackup.scctData[19u]);
 374              		.loc 1 1748 0
 375 0074 597F     		ldrb	r1, [r3, #29]	@ zero_extendqisi2
 376 0076 0232     		adds	r2, r2, #2
 377 0078 1170     		strb	r1, [r2]
1749:Generated_Source\PSoC5/cyPm.c ****     CY_SET_REG8(CYREG_SC2_SW10, cyPmBackup.scctData[20u]);
 378              		.loc 1 1749 0
 379 007a 997F     		ldrb	r1, [r3, #30]	@ zero_extendqisi2
 380 007c 0232     		adds	r2, r2, #2
 381 007e 1170     		strb	r1, [r2]
1750:Generated_Source\PSoC5/cyPm.c **** 
1751:Generated_Source\PSoC5/cyPm.c ****     CY_SET_REG8(CYREG_SC3_SW0 , cyPmBackup.scctData[21u]);
 382              		.loc 1 1751 0
 383 0080 D97F     		ldrb	r1, [r3, #31]	@ zero_extendqisi2
 384 0082 0632     		adds	r2, r2, #6
 385 0084 1170     		strb	r1, [r2]
1752:Generated_Source\PSoC5/cyPm.c ****     CY_SET_REG8(CYREG_SC3_SW2 , cyPmBackup.scctData[22u]);
 386              		.loc 1 1752 0
 387 0086 93F82010 		ldrb	r1, [r3, #32]	@ zero_extendqisi2
 388 008a 0232     		adds	r2, r2, #2
 389 008c 1170     		strb	r1, [r2]
1753:Generated_Source\PSoC5/cyPm.c ****     CY_SET_REG8(CYREG_SC3_SW3 , cyPmBackup.scctData[23u]);
 390              		.loc 1 1753 0
 391 008e 93F82110 		ldrb	r1, [r3, #33]	@ zero_extendqisi2
 392 0092 0132     		adds	r2, r2, #1
 393 0094 1170     		strb	r1, [r2]
1754:Generated_Source\PSoC5/cyPm.c ****     CY_SET_REG8(CYREG_SC3_SW4 , cyPmBackup.scctData[24u]);
 394              		.loc 1 1754 0
 395 0096 93F82210 		ldrb	r1, [r3, #34]	@ zero_extendqisi2
 396 009a 0132     		adds	r2, r2, #1
 397 009c 1170     		strb	r1, [r2]
1755:Generated_Source\PSoC5/cyPm.c ****     CY_SET_REG8(CYREG_SC3_SW6 , cyPmBackup.scctData[25u]);
 398              		.loc 1 1755 0
 399 009e 93F82310 		ldrb	r1, [r3, #35]	@ zero_extendqisi2
 400 00a2 0232     		adds	r2, r2, #2
 401 00a4 1170     		strb	r1, [r2]
1756:Generated_Source\PSoC5/cyPm.c ****     CY_SET_REG8(CYREG_SC3_SW8 , cyPmBackup.scctData[26u]);
 402              		.loc 1 1756 0
 403 00a6 93F82410 		ldrb	r1, [r3, #36]	@ zero_extendqisi2
 404 00aa 0232     		adds	r2, r2, #2
 405 00ac 1170     		strb	r1, [r2]
1757:Generated_Source\PSoC5/cyPm.c ****     CY_SET_REG8(CYREG_SC3_SW10, cyPmBackup.scctData[27u]);
 406              		.loc 1 1757 0
 407 00ae 93F82510 		ldrb	r1, [r3, #37]	@ zero_extendqisi2
 408 00b2 0232     		adds	r2, r2, #2
 409 00b4 1170     		strb	r1, [r2]
ARM GAS  C:\Users\dmarsch\AppData\Local\Temp\ccqopW1v.s 			page 39


1758:Generated_Source\PSoC5/cyPm.c **** 
1759:Generated_Source\PSoC5/cyPm.c **** 
1760:Generated_Source\PSoC5/cyPm.c ****     #if(CY_PSOC3)
1761:Generated_Source\PSoC5/cyPm.c **** 
1762:Generated_Source\PSoC5/cyPm.c ****         /* Serial Wire Viewer (SWV) workaround */
1763:Generated_Source\PSoC5/cyPm.c ****         if(CY_PM_ENABLED == cyPmBackup.swvClkEnabled)
1764:Generated_Source\PSoC5/cyPm.c ****         {
1765:Generated_Source\PSoC5/cyPm.c ****             /* Restore ports drive mode */
1766:Generated_Source\PSoC5/cyPm.c ****             CY_PM_PRT1_PC3_REG = (CY_PM_PRT1_PC3_REG & CY_PM_PRT1_PC3_DM_MASK) |
1767:Generated_Source\PSoC5/cyPm.c ****                                     cyPmBackup.prt1Dm;
1768:Generated_Source\PSoC5/cyPm.c **** 
1769:Generated_Source\PSoC5/cyPm.c ****             /* Enable SWV clocks */
1770:Generated_Source\PSoC5/cyPm.c ****             CY_PM_MLOGIC_DBG_REG |= CY_PM_MLOGIC_DBG_SWV_CLK_EN;
1771:Generated_Source\PSoC5/cyPm.c ****         }
1772:Generated_Source\PSoC5/cyPm.c **** 
1773:Generated_Source\PSoC5/cyPm.c ****     #endif /* (CY_PSOC3) */
1774:Generated_Source\PSoC5/cyPm.c **** 
1775:Generated_Source\PSoC5/cyPm.c **** 
1776:Generated_Source\PSoC5/cyPm.c ****     /* Restore boost reference */
1777:Generated_Source\PSoC5/cyPm.c ****     if(CY_PM_ENABLED == cyPmBackup.boostRefExt)
 410              		.loc 1 1777 0
 411 00b6 93F82F30 		ldrb	r3, [r3, #47]	@ zero_extendqisi2
 412 00ba 012B     		cmp	r3, #1
 413 00bc 06D1     		bne	.L7
1778:Generated_Source\PSoC5/cyPm.c ****     {
1779:Generated_Source\PSoC5/cyPm.c ****         CY_PM_BOOST_CR2_REG |= CY_PM_BOOST_CR2_EREFSEL_EXT;
 414              		.loc 1 1779 0
 415 00be A2F5B852 		sub	r2, r2, #5888
 416 00c2 183A     		subs	r2, r2, #24
 417 00c4 1378     		ldrb	r3, [r2]	@ zero_extendqisi2
 418 00c6 43F00803 		orr	r3, r3, #8
 419 00ca 1370     		strb	r3, [r2]
 420              	.L7:
 421 00cc 7047     		bx	lr
 422              	.L10:
 423 00ce 00BF     		.align	2
 424              	.L9:
 425 00d0 00000000 		.word	.LANCHOR0
 426 00d4 005A0040 		.word	1073764864
 427              		.cfi_endproc
 428              	.LFE13:
 429              		.size	CyPmHibSlpRestore, .-CyPmHibSlpRestore
 430              		.section	.text.CyPmHviLviSaveDisable,"ax",%progbits
 431              		.align	2
 432              		.thumb
 433              		.thumb_func
 434              		.type	CyPmHviLviSaveDisable, %function
 435              	CyPmHviLviSaveDisable:
 436              	.LFB14:
1780:Generated_Source\PSoC5/cyPm.c ****     }
1781:Generated_Source\PSoC5/cyPm.c **** }
1782:Generated_Source\PSoC5/cyPm.c **** 
1783:Generated_Source\PSoC5/cyPm.c **** 
1784:Generated_Source\PSoC5/cyPm.c **** /*******************************************************************************
1785:Generated_Source\PSoC5/cyPm.c **** * Function Name: CyPmHviLviSaveDisable
1786:Generated_Source\PSoC5/cyPm.c **** ****************************************************************************//**
1787:Generated_Source\PSoC5/cyPm.c **** *
ARM GAS  C:\Users\dmarsch\AppData\Local\Temp\ccqopW1v.s 			page 40


1788:Generated_Source\PSoC5/cyPm.c **** *  Saves analog and digital LVI and HVI configuration and disables them.
1789:Generated_Source\PSoC5/cyPm.c **** *
1790:Generated_Source\PSoC5/cyPm.c **** * Reentrant:
1791:Generated_Source\PSoC5/cyPm.c **** *  No
1792:Generated_Source\PSoC5/cyPm.c **** *
1793:Generated_Source\PSoC5/cyPm.c **** *******************************************************************************/
1794:Generated_Source\PSoC5/cyPm.c **** static void CyPmHviLviSaveDisable(void) 
1795:Generated_Source\PSoC5/cyPm.c **** {
 437              		.loc 1 1795 0
 438              		.cfi_startproc
 439              		@ args = 0, pretend = 0, frame = 0
 440              		@ frame_needed = 0, uses_anonymous_args = 0
 441 0000 08B5     		push	{r3, lr}
 442              		.cfi_def_cfa_offset 8
 443              		.cfi_offset 3, -8
 444              		.cfi_offset 14, -4
1796:Generated_Source\PSoC5/cyPm.c ****     if(0u != (CY_VD_LVI_HVI_CONTROL_REG & CY_VD_LVID_EN))
 445              		.loc 1 1796 0
 446 0002 234B     		ldr	r3, .L19
 447 0004 1B78     		ldrb	r3, [r3]	@ zero_extendqisi2
 448 0006 13F0010F 		tst	r3, #1
 449 000a 12D0     		beq	.L12
1797:Generated_Source\PSoC5/cyPm.c ****     {
1798:Generated_Source\PSoC5/cyPm.c ****         cyPmBackup.lvidEn = CY_PM_ENABLED;
 450              		.loc 1 1798 0
 451 000c 214B     		ldr	r3, .L19+4
 452 000e 0122     		movs	r2, #1
 453 0010 83F82620 		strb	r2, [r3, #38]
1799:Generated_Source\PSoC5/cyPm.c ****         cyPmBackup.lvidTrip = CY_VD_LVI_TRIP_REG & CY_VD_LVI_TRIP_LVID_MASK;
 454              		.loc 1 1799 0
 455 0014 204A     		ldr	r2, .L19+8
 456 0016 1278     		ldrb	r2, [r2]	@ zero_extendqisi2
 457 0018 02F00F02 		and	r2, r2, #15
 458 001c 83F82720 		strb	r2, [r3, #39]
1800:Generated_Source\PSoC5/cyPm.c **** 
1801:Generated_Source\PSoC5/cyPm.c ****         /* Save state of reset device at specified Vddd threshold */
1802:Generated_Source\PSoC5/cyPm.c ****         cyPmBackup.lvidRst = (0u == (CY_VD_PRES_CONTROL_REG & CY_VD_PRESD_EN)) ? \
 459              		.loc 1 1802 0
 460 0020 1E4A     		ldr	r2, .L19+12
 461 0022 1278     		ldrb	r2, [r2]	@ zero_extendqisi2
1803:Generated_Source\PSoC5/cyPm.c ****                              CY_PM_DISABLED : CY_PM_ENABLED;
 462              		.loc 1 1803 0
 463 0024 C2F38012 		ubfx	r2, r2, #6, #1
1802:Generated_Source\PSoC5/cyPm.c ****                              CY_PM_DISABLED : CY_PM_ENABLED;
 464              		.loc 1 1802 0
 465 0028 83F82B20 		strb	r2, [r3, #43]
1804:Generated_Source\PSoC5/cyPm.c **** 
1805:Generated_Source\PSoC5/cyPm.c ****         CyVdLvDigitDisable();
 466              		.loc 1 1805 0
 467 002c FFF7FEFF 		bl	CyVdLvDigitDisable
 468              	.LVL0:
 469 0030 03E0     		b	.L13
 470              	.L12:
1806:Generated_Source\PSoC5/cyPm.c ****     }
1807:Generated_Source\PSoC5/cyPm.c ****     else
1808:Generated_Source\PSoC5/cyPm.c ****     {
1809:Generated_Source\PSoC5/cyPm.c ****         cyPmBackup.lvidEn = CY_PM_DISABLED;
ARM GAS  C:\Users\dmarsch\AppData\Local\Temp\ccqopW1v.s 			page 41


 471              		.loc 1 1809 0
 472 0032 0022     		movs	r2, #0
 473 0034 174B     		ldr	r3, .L19+4
 474 0036 83F82620 		strb	r2, [r3, #38]
 475              	.L13:
1810:Generated_Source\PSoC5/cyPm.c ****     }
1811:Generated_Source\PSoC5/cyPm.c **** 
1812:Generated_Source\PSoC5/cyPm.c ****     if(0u != (CY_VD_LVI_HVI_CONTROL_REG & CY_VD_LVIA_EN))
 476              		.loc 1 1812 0
 477 003a 154B     		ldr	r3, .L19
 478 003c 1B78     		ldrb	r3, [r3]	@ zero_extendqisi2
 479 003e 13F0020F 		tst	r3, #2
 480 0042 10D0     		beq	.L14
1813:Generated_Source\PSoC5/cyPm.c ****     {
1814:Generated_Source\PSoC5/cyPm.c ****         cyPmBackup.lviaEn = CY_PM_ENABLED;
 481              		.loc 1 1814 0
 482 0044 134B     		ldr	r3, .L19+4
 483 0046 0122     		movs	r2, #1
 484 0048 83F82820 		strb	r2, [r3, #40]
1815:Generated_Source\PSoC5/cyPm.c ****         cyPmBackup.lviaTrip = CY_VD_LVI_TRIP_REG >> 4u;
 485              		.loc 1 1815 0
 486 004c 124A     		ldr	r2, .L19+8
 487 004e 1278     		ldrb	r2, [r2]	@ zero_extendqisi2
 488 0050 1209     		lsrs	r2, r2, #4
 489 0052 83F82920 		strb	r2, [r3, #41]
1816:Generated_Source\PSoC5/cyPm.c **** 
1817:Generated_Source\PSoC5/cyPm.c ****         /* Save state of reset device at specified Vdda threshold */
1818:Generated_Source\PSoC5/cyPm.c ****         cyPmBackup.lviaRst = (0u == (CY_VD_PRES_CONTROL_REG & CY_VD_PRESA_EN)) ? \
 490              		.loc 1 1818 0
 491 0056 114A     		ldr	r2, .L19+12
 492 0058 1278     		ldrb	r2, [r2]	@ zero_extendqisi2
1819:Generated_Source\PSoC5/cyPm.c ****                              CY_PM_DISABLED : CY_PM_ENABLED;
 493              		.loc 1 1819 0
 494 005a D209     		lsrs	r2, r2, #7
1818:Generated_Source\PSoC5/cyPm.c ****                              CY_PM_DISABLED : CY_PM_ENABLED;
 495              		.loc 1 1818 0
 496 005c 83F82C20 		strb	r2, [r3, #44]
1820:Generated_Source\PSoC5/cyPm.c **** 
1821:Generated_Source\PSoC5/cyPm.c ****         CyVdLvAnalogDisable();
 497              		.loc 1 1821 0
 498 0060 FFF7FEFF 		bl	CyVdLvAnalogDisable
 499              	.LVL1:
 500 0064 03E0     		b	.L15
 501              	.L14:
1822:Generated_Source\PSoC5/cyPm.c ****     }
1823:Generated_Source\PSoC5/cyPm.c ****     else
1824:Generated_Source\PSoC5/cyPm.c ****     {
1825:Generated_Source\PSoC5/cyPm.c ****         cyPmBackup.lviaEn = CY_PM_DISABLED;
 502              		.loc 1 1825 0
 503 0066 0022     		movs	r2, #0
 504 0068 0A4B     		ldr	r3, .L19+4
 505 006a 83F82820 		strb	r2, [r3, #40]
 506              	.L15:
1826:Generated_Source\PSoC5/cyPm.c ****     }
1827:Generated_Source\PSoC5/cyPm.c **** 
1828:Generated_Source\PSoC5/cyPm.c ****     if(0u != (CY_VD_LVI_HVI_CONTROL_REG & CY_VD_HVIA_EN))
 507              		.loc 1 1828 0
ARM GAS  C:\Users\dmarsch\AppData\Local\Temp\ccqopW1v.s 			page 42


 508 006e 084B     		ldr	r3, .L19
 509 0070 1B78     		ldrb	r3, [r3]	@ zero_extendqisi2
 510 0072 13F0040F 		tst	r3, #4
 511 0076 06D0     		beq	.L16
1829:Generated_Source\PSoC5/cyPm.c ****     {
1830:Generated_Source\PSoC5/cyPm.c ****         cyPmBackup.hviaEn = CY_PM_ENABLED;
 512              		.loc 1 1830 0
 513 0078 0122     		movs	r2, #1
 514 007a 064B     		ldr	r3, .L19+4
 515 007c 83F82A20 		strb	r2, [r3, #42]
1831:Generated_Source\PSoC5/cyPm.c ****         CyVdHvAnalogDisable();
 516              		.loc 1 1831 0
 517 0080 FFF7FEFF 		bl	CyVdHvAnalogDisable
 518              	.LVL2:
 519 0084 08BD     		pop	{r3, pc}
 520              	.L16:
1832:Generated_Source\PSoC5/cyPm.c ****     }
1833:Generated_Source\PSoC5/cyPm.c ****     else
1834:Generated_Source\PSoC5/cyPm.c ****     {
1835:Generated_Source\PSoC5/cyPm.c ****         cyPmBackup.hviaEn = CY_PM_DISABLED;
 521              		.loc 1 1835 0
 522 0086 0022     		movs	r2, #0
 523 0088 024B     		ldr	r3, .L19+4
 524 008a 83F82A20 		strb	r2, [r3, #42]
 525 008e 08BD     		pop	{r3, pc}
 526              	.L20:
 527              		.align	2
 528              	.L19:
 529 0090 F5460040 		.word	1073759989
 530 0094 00000000 		.word	.LANCHOR0
 531 0098 F4460040 		.word	1073759988
 532 009c F7460040 		.word	1073759991
 533              		.cfi_endproc
 534              	.LFE14:
 535              		.size	CyPmHviLviSaveDisable, .-CyPmHviLviSaveDisable
 536              		.section	.text.CyPmHibSaveSet,"ax",%progbits
 537              		.align	2
 538              		.thumb
 539              		.thumb_func
 540              		.type	CyPmHibSaveSet, %function
 541              	CyPmHibSaveSet:
 542              	.LFB7:
1323:Generated_Source\PSoC5/cyPm.c ****     /* I2C backup reg must be off when the sleep regulator is unavailable */
 543              		.loc 1 1323 0
 544              		.cfi_startproc
 545              		@ args = 0, pretend = 0, frame = 0
 546              		@ frame_needed = 0, uses_anonymous_args = 0
 547 0000 10B5     		push	{r4, lr}
 548              		.cfi_def_cfa_offset 8
 549              		.cfi_offset 4, -8
 550              		.cfi_offset 14, -4
1325:Generated_Source\PSoC5/cyPm.c ****     {
 551              		.loc 1 1325 0
 552 0002 1E4B     		ldr	r3, .L26
 553 0004 1B78     		ldrb	r3, [r3]	@ zero_extendqisi2
 554 0006 13F0040F 		tst	r3, #4
 555 000a 04D0     		beq	.L22
ARM GAS  C:\Users\dmarsch\AppData\Local\Temp\ccqopW1v.s 			page 43


1339:Generated_Source\PSoC5/cyPm.c ****     }
 556              		.loc 1 1339 0
 557 000c 1B4A     		ldr	r2, .L26
 558 000e 1378     		ldrb	r3, [r2]	@ zero_extendqisi2
 559 0010 03F0FB03 		and	r3, r3, #251
 560 0014 1370     		strb	r3, [r2]
 561              	.L22:
1344:Generated_Source\PSoC5/cyPm.c **** 
 562              		.loc 1 1344 0
 563 0016 0120     		movs	r0, #1
 564 0018 FFF7FEFF 		bl	CyILO_SetPowerMode
 565              	.LVL3:
 566 001c 184B     		ldr	r3, .L26+4
 567 001e 1870     		strb	r0, [r3]
1347:Generated_Source\PSoC5/cyPm.c ****                                 CY_PM_DISABLED : CY_PM_ENABLED;
 568              		.loc 1 1347 0
 569 0020 1849     		ldr	r1, .L26+8
 570 0022 0A78     		ldrb	r2, [r1]	@ zero_extendqisi2
1348:Generated_Source\PSoC5/cyPm.c **** 
 571              		.loc 1 1348 0
 572 0024 C2F34002 		ubfx	r2, r2, #1, #1
1347:Generated_Source\PSoC5/cyPm.c ****                                 CY_PM_DISABLED : CY_PM_ENABLED;
 573              		.loc 1 1347 0
 574 0028 5A70     		strb	r2, [r3, #1]
1351:Generated_Source\PSoC5/cyPm.c ****                                 CY_PM_DISABLED : CY_PM_ENABLED;
 575              		.loc 1 1351 0
 576 002a 0A78     		ldrb	r2, [r1]	@ zero_extendqisi2
1352:Generated_Source\PSoC5/cyPm.c **** 
 577              		.loc 1 1352 0
 578 002c C2F38002 		ubfx	r2, r2, #2, #1
1351:Generated_Source\PSoC5/cyPm.c ****                                 CY_PM_DISABLED : CY_PM_ENABLED;
 579              		.loc 1 1351 0
 580 0030 9A70     		strb	r2, [r3, #2]
1356:Generated_Source\PSoC5/cyPm.c ****     {
 581              		.loc 1 1356 0
 582 0032 154B     		ldr	r3, .L26+12
 583 0034 1B78     		ldrb	r3, [r3]	@ zero_extendqisi2
 584 0036 13F0100F 		tst	r3, #16
 585 003a 08D1     		bne	.L23
1359:Generated_Source\PSoC5/cyPm.c ****         CY_PM_PWRSYS_SLP_TR_REG |= CY_PM_PWRSYS_SLP_TR_BYPASS;
 586              		.loc 1 1359 0
 587 003c 0022     		movs	r2, #0
 588 003e 104B     		ldr	r3, .L26+4
 589 0040 DA70     		strb	r2, [r3, #3]
1360:Generated_Source\PSoC5/cyPm.c ****     }
 590              		.loc 1 1360 0
 591 0042 114A     		ldr	r2, .L26+12
 592 0044 1378     		ldrb	r3, [r2]	@ zero_extendqisi2
 593 0046 43F01003 		orr	r3, r3, #16
 594 004a 1370     		strb	r3, [r2]
 595 004c 02E0     		b	.L24
 596              	.L23:
1364:Generated_Source\PSoC5/cyPm.c ****     }
 597              		.loc 1 1364 0
 598 004e 0122     		movs	r2, #1
 599 0050 0B4B     		ldr	r3, .L26+4
 600 0052 DA70     		strb	r2, [r3, #3]
ARM GAS  C:\Users\dmarsch\AppData\Local\Temp\ccqopW1v.s 			page 44


 601              	.L24:
1375:Generated_Source\PSoC5/cyPm.c **** 
 602              		.loc 1 1375 0
 603 0054 FFF7FEFF 		bl	CyPmHviLviSaveDisable
 604              	.LVL4:
1379:Generated_Source\PSoC5/cyPm.c **** 
 605              		.loc 1 1379 0
 606 0058 FFF7FEFF 		bl	CyPmHibSlpSaveSet
 607              	.LVL5:
1385:Generated_Source\PSoC5/cyPm.c ****     cyPmBackup.wakeupTrim1 = CY_PM_PWRSYS_WAKE_TR1_REG;
 608              		.loc 1 1385 0
 609 005c 0B48     		ldr	r0, .L26+16
 610 005e 0278     		ldrb	r2, [r0]	@ zero_extendqisi2
 611 0060 074B     		ldr	r3, .L26+4
 612 0062 DA71     		strb	r2, [r3, #7]
1386:Generated_Source\PSoC5/cyPm.c ****     
 613              		.loc 1 1386 0
 614 0064 0A49     		ldr	r1, .L26+20
 615 0066 0A78     		ldrb	r2, [r1]	@ zero_extendqisi2
 616 0068 1A72     		strb	r2, [r3, #8]
1389:Generated_Source\PSoC5/cyPm.c ****     #endif  /* (CY_PSOC5) */    
 617              		.loc 1 1389 0
 618 006a 0A4A     		ldr	r2, .L26+24
 619 006c 1478     		ldrb	r4, [r2]	@ zero_extendqisi2
 620 006e 5C72     		strb	r4, [r3, #9]
1392:Generated_Source\PSoC5/cyPm.c ****     CY_PM_PWRSYS_WAKE_TR1_REG = CY_PM_PWRSYS_WAKE_TR1;
 621              		.loc 1 1392 0
 622 0070 FF23     		movs	r3, #255
 623 0072 0370     		strb	r3, [r0]
1393:Generated_Source\PSoC5/cyPm.c ****     
 624              		.loc 1 1393 0
 625 0074 B020     		movs	r0, #176
 626 0076 0870     		strb	r0, [r1]
1396:Generated_Source\PSoC5/cyPm.c ****     #endif  /* (CY_PSOC5) */    
 627              		.loc 1 1396 0
 628 0078 1370     		strb	r3, [r2]
 629 007a 10BD     		pop	{r4, pc}
 630              	.L27:
 631              		.align	2
 632              	.L26:
 633 007c 31430040 		.word	1073759025
 634 0080 00000000 		.word	.LANCHOR0
 635 0084 00430040 		.word	1073758976
 636 0088 83460040 		.word	1073759875
 637 008c 85460040 		.word	1073759877
 638 0090 86460040 		.word	1073759878
 639 0094 8A460040 		.word	1073759882
 640              		.cfi_endproc
 641              	.LFE7:
 642              		.size	CyPmHibSaveSet, .-CyPmHibSaveSet
 643              		.section	.text.CyPmHviLviRestore,"ax",%progbits
 644              		.align	2
 645              		.thumb
 646              		.thumb_func
 647              		.type	CyPmHviLviRestore, %function
 648              	CyPmHviLviRestore:
 649              	.LFB15:
ARM GAS  C:\Users\dmarsch\AppData\Local\Temp\ccqopW1v.s 			page 45


1836:Generated_Source\PSoC5/cyPm.c ****     }
1837:Generated_Source\PSoC5/cyPm.c **** }
1838:Generated_Source\PSoC5/cyPm.c **** 
1839:Generated_Source\PSoC5/cyPm.c **** 
1840:Generated_Source\PSoC5/cyPm.c **** /*******************************************************************************
1841:Generated_Source\PSoC5/cyPm.c **** * Function Name: CyPmHviLviRestore
1842:Generated_Source\PSoC5/cyPm.c **** ****************************************************************************//**
1843:Generated_Source\PSoC5/cyPm.c **** *
1844:Generated_Source\PSoC5/cyPm.c **** *  Restores the analog and digital LVI and HVI configuration.
1845:Generated_Source\PSoC5/cyPm.c **** *
1846:Generated_Source\PSoC5/cyPm.c **** * Reentrant:
1847:Generated_Source\PSoC5/cyPm.c **** *  No
1848:Generated_Source\PSoC5/cyPm.c **** *
1849:Generated_Source\PSoC5/cyPm.c **** *******************************************************************************/
1850:Generated_Source\PSoC5/cyPm.c **** static void CyPmHviLviRestore(void) 
1851:Generated_Source\PSoC5/cyPm.c **** {
 650              		.loc 1 1851 0
 651              		.cfi_startproc
 652              		@ args = 0, pretend = 0, frame = 0
 653              		@ frame_needed = 0, uses_anonymous_args = 0
 654 0000 08B5     		push	{r3, lr}
 655              		.cfi_def_cfa_offset 8
 656              		.cfi_offset 3, -8
 657              		.cfi_offset 14, -4
1852:Generated_Source\PSoC5/cyPm.c ****     /* Restore LVI/HVI configuration */
1853:Generated_Source\PSoC5/cyPm.c ****     if(CY_PM_ENABLED == cyPmBackup.lvidEn)
 658              		.loc 1 1853 0
 659 0002 104B     		ldr	r3, .L33
 660 0004 93F82630 		ldrb	r3, [r3, #38]	@ zero_extendqisi2
 661 0008 012B     		cmp	r3, #1
 662 000a 06D1     		bne	.L29
1854:Generated_Source\PSoC5/cyPm.c ****     {
1855:Generated_Source\PSoC5/cyPm.c ****         CyVdLvDigitEnable(cyPmBackup.lvidRst, cyPmBackup.lvidTrip);
 663              		.loc 1 1855 0
 664 000c 0D4B     		ldr	r3, .L33
 665 000e 93F82710 		ldrb	r1, [r3, #39]	@ zero_extendqisi2
 666 0012 93F82B00 		ldrb	r0, [r3, #43]	@ zero_extendqisi2
 667 0016 FFF7FEFF 		bl	CyVdLvDigitEnable
 668              	.LVL6:
 669              	.L29:
1856:Generated_Source\PSoC5/cyPm.c ****     }
1857:Generated_Source\PSoC5/cyPm.c **** 
1858:Generated_Source\PSoC5/cyPm.c ****     if(CY_PM_ENABLED == cyPmBackup.lviaEn)
 670              		.loc 1 1858 0
 671 001a 0A4B     		ldr	r3, .L33
 672 001c 93F82830 		ldrb	r3, [r3, #40]	@ zero_extendqisi2
 673 0020 012B     		cmp	r3, #1
 674 0022 06D1     		bne	.L30
1859:Generated_Source\PSoC5/cyPm.c ****     {
1860:Generated_Source\PSoC5/cyPm.c ****         CyVdLvAnalogEnable(cyPmBackup.lviaRst, cyPmBackup.lviaTrip);
 675              		.loc 1 1860 0
 676 0024 074B     		ldr	r3, .L33
 677 0026 93F82910 		ldrb	r1, [r3, #41]	@ zero_extendqisi2
 678 002a 93F82C00 		ldrb	r0, [r3, #44]	@ zero_extendqisi2
 679 002e FFF7FEFF 		bl	CyVdLvAnalogEnable
 680              	.LVL7:
 681              	.L30:
ARM GAS  C:\Users\dmarsch\AppData\Local\Temp\ccqopW1v.s 			page 46


1861:Generated_Source\PSoC5/cyPm.c ****     }
1862:Generated_Source\PSoC5/cyPm.c **** 
1863:Generated_Source\PSoC5/cyPm.c ****     if(CY_PM_ENABLED == cyPmBackup.hviaEn)
 682              		.loc 1 1863 0
 683 0032 044B     		ldr	r3, .L33
 684 0034 93F82A30 		ldrb	r3, [r3, #42]	@ zero_extendqisi2
 685 0038 012B     		cmp	r3, #1
 686 003a 01D1     		bne	.L28
1864:Generated_Source\PSoC5/cyPm.c ****     {
1865:Generated_Source\PSoC5/cyPm.c ****         CyVdHvAnalogEnable();
 687              		.loc 1 1865 0
 688 003c FFF7FEFF 		bl	CyVdHvAnalogEnable
 689              	.LVL8:
 690              	.L28:
 691 0040 08BD     		pop	{r3, pc}
 692              	.L34:
 693 0042 00BF     		.align	2
 694              	.L33:
 695 0044 00000000 		.word	.LANCHOR0
 696              		.cfi_endproc
 697              	.LFE15:
 698              		.size	CyPmHviLviRestore, .-CyPmHviLviRestore
 699              		.section	.text.CyPmHibRestore,"ax",%progbits
 700              		.align	2
 701              		.thumb
 702              		.thumb_func
 703              		.type	CyPmHibRestore, %function
 704              	CyPmHibRestore:
 705              	.LFB8:
1414:Generated_Source\PSoC5/cyPm.c ****     /* Restore LVI/HVI configuration */
 706              		.loc 1 1414 0
 707              		.cfi_startproc
 708              		@ args = 0, pretend = 0, frame = 0
 709              		@ frame_needed = 0, uses_anonymous_args = 0
 710 0000 10B5     		push	{r4, lr}
 711              		.cfi_def_cfa_offset 8
 712              		.cfi_offset 4, -8
 713              		.cfi_offset 14, -4
1416:Generated_Source\PSoC5/cyPm.c **** 
 714              		.loc 1 1416 0
 715 0002 FFF7FEFF 		bl	CyPmHviLviRestore
 716              	.LVL9:
1419:Generated_Source\PSoC5/cyPm.c **** 
 717              		.loc 1 1419 0
 718 0006 FFF7FEFF 		bl	CyPmHibSlpRestore
 719              	.LVL10:
1422:Generated_Source\PSoC5/cyPm.c ****     {
 720              		.loc 1 1422 0
 721 000a 114B     		ldr	r3, .L40
 722 000c 5B78     		ldrb	r3, [r3, #1]	@ zero_extendqisi2
 723 000e 012B     		cmp	r3, #1
 724 0010 01D1     		bne	.L36
1425:Generated_Source\PSoC5/cyPm.c ****     }
 725              		.loc 1 1425 0
 726 0012 FFF7FEFF 		bl	CyILO_Start1K
 727              	.LVL11:
 728              	.L36:
ARM GAS  C:\Users\dmarsch\AppData\Local\Temp\ccqopW1v.s 			page 47


1429:Generated_Source\PSoC5/cyPm.c ****     {
 729              		.loc 1 1429 0
 730 0016 0E4B     		ldr	r3, .L40
 731 0018 9B78     		ldrb	r3, [r3, #2]	@ zero_extendqisi2
 732 001a 012B     		cmp	r3, #1
 733 001c 01D1     		bne	.L37
1432:Generated_Source\PSoC5/cyPm.c ****     }
 734              		.loc 1 1432 0
 735 001e FFF7FEFF 		bl	CyILO_Start100K
 736              	.LVL12:
 737              	.L37:
1436:Generated_Source\PSoC5/cyPm.c **** 
 738              		.loc 1 1436 0
 739 0022 0B4C     		ldr	r4, .L40
 740 0024 2078     		ldrb	r0, [r4]	@ zero_extendqisi2
 741 0026 FFF7FEFF 		bl	CyILO_SetPowerMode
 742              	.LVL13:
1439:Generated_Source\PSoC5/cyPm.c ****     {
 743              		.loc 1 1439 0
 744 002a E378     		ldrb	r3, [r4, #3]	@ zero_extendqisi2
 745 002c 23B9     		cbnz	r3, .L38
1442:Generated_Source\PSoC5/cyPm.c ****     }
 746              		.loc 1 1442 0
 747 002e 094A     		ldr	r2, .L40+4
 748 0030 1378     		ldrb	r3, [r2]	@ zero_extendqisi2
 749 0032 03F0EF03 		and	r3, r3, #239
 750 0036 1370     		strb	r3, [r2]
 751              	.L38:
1449:Generated_Source\PSoC5/cyPm.c ****     CY_PM_PWRSYS_WAKE_TR1_REG = cyPmBackup.wakeupTrim1;
 752              		.loc 1 1449 0
 753 0038 054B     		ldr	r3, .L40
 754 003a D979     		ldrb	r1, [r3, #7]	@ zero_extendqisi2
 755 003c 064A     		ldr	r2, .L40+8
 756 003e 1170     		strb	r1, [r2]
1450:Generated_Source\PSoC5/cyPm.c **** 
 757              		.loc 1 1450 0
 758 0040 197A     		ldrb	r1, [r3, #8]	@ zero_extendqisi2
 759 0042 0132     		adds	r2, r2, #1
 760 0044 1170     		strb	r1, [r2]
1453:Generated_Source\PSoC5/cyPm.c ****     #endif  /* (CY_PSOC5) */    
 761              		.loc 1 1453 0
 762 0046 5A7A     		ldrb	r2, [r3, #9]	@ zero_extendqisi2
 763 0048 044B     		ldr	r3, .L40+12
 764 004a 1A70     		strb	r2, [r3]
 765 004c 10BD     		pop	{r4, pc}
 766              	.L41:
 767 004e 00BF     		.align	2
 768              	.L40:
 769 0050 00000000 		.word	.LANCHOR0
 770 0054 83460040 		.word	1073759875
 771 0058 85460040 		.word	1073759877
 772 005c 8A460040 		.word	1073759882
 773              		.cfi_endproc
 774              	.LFE8:
 775              		.size	CyPmHibRestore, .-CyPmHibRestore
 776              		.section	.text.CyPmSaveClocks,"ax",%progbits
 777              		.align	2
ARM GAS  C:\Users\dmarsch\AppData\Local\Temp\ccqopW1v.s 			page 48


 778              		.global	CyPmSaveClocks
 779              		.thumb
 780              		.thumb_func
 781              		.type	CyPmSaveClocks, %function
 782              	CyPmSaveClocks:
 783              	.LFB0:
  74:Generated_Source\PSoC5/cyPm.c ****     /* Digital and analog clocks - save enable state and disable them all */
 784              		.loc 1 74 0
 785              		.cfi_startproc
 786              		@ args = 0, pretend = 0, frame = 0
 787              		@ frame_needed = 0, uses_anonymous_args = 0
 788 0000 10B5     		push	{r4, lr}
 789              		.cfi_def_cfa_offset 8
 790              		.cfi_offset 4, -8
 791              		.cfi_offset 14, -4
  76:Generated_Source\PSoC5/cyPm.c ****     cyPmClockBackup.enClkD = CY_PM_ACT_CFG2_REG;
 792              		.loc 1 76 0
 793 0002 784A     		ldr	r2, .L69
 794 0004 1378     		ldrb	r3, [r2]	@ zero_extendqisi2
 795 0006 784C     		ldr	r4, .L69+4
 796 0008 03F00F03 		and	r3, r3, #15
 797 000c 84F83030 		strb	r3, [r4, #48]
  77:Generated_Source\PSoC5/cyPm.c ****     CY_PM_ACT_CFG1_REG &= ((uint8)(~CY_PM_ACT_EN_CLK_A_MASK));
 798              		.loc 1 77 0
 799 0010 764B     		ldr	r3, .L69+8
 800 0012 1978     		ldrb	r1, [r3]	@ zero_extendqisi2
 801 0014 84F83110 		strb	r1, [r4, #49]
  78:Generated_Source\PSoC5/cyPm.c ****     CY_PM_ACT_CFG2_REG &= ((uint8)(~CY_PM_ACT_EN_CLK_D_MASK));
 802              		.loc 1 78 0
 803 0018 1178     		ldrb	r1, [r2]	@ zero_extendqisi2
 804 001a 01F0F001 		and	r1, r1, #240
 805 001e 1170     		strb	r1, [r2]
  79:Generated_Source\PSoC5/cyPm.c **** 
 806              		.loc 1 79 0
 807 0020 1A78     		ldrb	r2, [r3]	@ zero_extendqisi2
 808 0022 0022     		movs	r2, #0
 809 0024 1A70     		strb	r2, [r3]
  82:Generated_Source\PSoC5/cyPm.c ****     CyFlash_SetWaitCycles(CY_PM_MAX_FLASH_WAIT_CYCLES);
 810              		.loc 1 82 0
 811 0026 03F25E43 		addw	r3, r3, #1118
 812 002a 1B78     		ldrb	r3, [r3]	@ zero_extendqisi2
 813 002c 03F0C003 		and	r3, r3, #192
 814 0030 84F83530 		strb	r3, [r4, #53]
  83:Generated_Source\PSoC5/cyPm.c **** 
 815              		.loc 1 83 0
 816 0034 3720     		movs	r0, #55
 817 0036 FFF7FEFF 		bl	CyFlash_SetWaitCycles
 818              	.LVL14:
  86:Generated_Source\PSoC5/cyPm.c ****     cyPmClockBackup.imoUsbClk = CY_PM_FASTCLK_IMO_CR_REG & CY_PM_FASTCLK_IMO_CR_USB;
 819              		.loc 1 86 0
 820 003a 6D4B     		ldr	r3, .L69+12
 821 003c 1A78     		ldrb	r2, [r3]	@ zero_extendqisi2
 822 003e 02F00702 		and	r2, r2, #7
 823 0042 84F83320 		strb	r2, [r4, #51]
  87:Generated_Source\PSoC5/cyPm.c **** 
 824              		.loc 1 87 0
 825 0046 1A78     		ldrb	r2, [r3]	@ zero_extendqisi2
ARM GAS  C:\Users\dmarsch\AppData\Local\Temp\ccqopW1v.s 			page 49


 826 0048 02F04002 		and	r2, r2, #64
 827 004c 84F83420 		strb	r2, [r4, #52]
  90:Generated_Source\PSoC5/cyPm.c ****     {
 828              		.loc 1 90 0
 829 0050 1B78     		ldrb	r3, [r3]	@ zero_extendqisi2
 830 0052 13F0100F 		tst	r3, #16
 831 0056 03D0     		beq	.L43
  93:Generated_Source\PSoC5/cyPm.c ****     }
 832              		.loc 1 93 0
 833 0058 0122     		movs	r2, #1
 834 005a 84F83920 		strb	r2, [r4, #57]
 835 005e 03E0     		b	.L44
 836              	.L43:
  98:Generated_Source\PSoC5/cyPm.c ****     }
 837              		.loc 1 98 0
 838 0060 0022     		movs	r2, #0
 839 0062 614B     		ldr	r3, .L69+4
 840 0064 83F83920 		strb	r2, [r3, #57]
 841              	.L44:
 102:Generated_Source\PSoC5/cyPm.c **** 
 842              		.loc 1 102 0
 843 0068 624B     		ldr	r3, .L69+16
 844 006a 1B78     		ldrb	r3, [r3]	@ zero_extendqisi2
 845 006c 03F00303 		and	r3, r3, #3
 846 0070 5D4A     		ldr	r2, .L69+4
 847 0072 82F83230 		strb	r3, [r2, #50]
 105:Generated_Source\PSoC5/cyPm.c ****     {
 848              		.loc 1 105 0
 849 0076 012B     		cmp	r3, #1
 850 0078 19D1     		bne	.L45
 107:Generated_Source\PSoC5/cyPm.c ****         {
 851              		.loc 1 107 0
 852 007a 4FF04023 		mov	r3, #1073758208
 853 007e 1B78     		ldrb	r3, [r3]	@ zero_extendqisi2
 854 0080 03F00303 		and	r3, r3, #3
 855 0084 012B     		cmp	r3, #1
 856 0086 07D0     		beq	.L47
 857 0088 13B1     		cbz	r3, .L48
 858 008a 022B     		cmp	r3, #2
 859 008c 08D0     		beq	.L49
 860 008e 0BE0     		b	.L67
 861              	.L48:
 110:Generated_Source\PSoC5/cyPm.c ****             break;
 862              		.loc 1 110 0
 863 0090 0020     		movs	r0, #0
 864 0092 FFF7FEFF 		bl	CyMasterClk_SetSource
 865              	.LVL15:
 111:Generated_Source\PSoC5/cyPm.c **** 
 866              		.loc 1 111 0
 867 0096 0AE0     		b	.L45
 868              	.L47:
 114:Generated_Source\PSoC5/cyPm.c ****             break;
 869              		.loc 1 114 0
 870 0098 0220     		movs	r0, #2
 871 009a FFF7FEFF 		bl	CyMasterClk_SetSource
 872              	.LVL16:
 115:Generated_Source\PSoC5/cyPm.c **** 
ARM GAS  C:\Users\dmarsch\AppData\Local\Temp\ccqopW1v.s 			page 50


 873              		.loc 1 115 0
 874 009e 06E0     		b	.L45
 875              	.L49:
 118:Generated_Source\PSoC5/cyPm.c ****             break;
 876              		.loc 1 118 0
 877 00a0 0320     		movs	r0, #3
 878 00a2 FFF7FEFF 		bl	CyMasterClk_SetSource
 879              	.LVL17:
 119:Generated_Source\PSoC5/cyPm.c **** 
 880              		.loc 1 119 0
 881 00a6 02E0     		b	.L45
 882              	.L67:
 122:Generated_Source\PSoC5/cyPm.c ****             break;
 883              		.loc 1 122 0 discriminator 1
 884 00a8 0020     		movs	r0, #0
 885 00aa FFF7FEFF 		bl	CyHalt
 886              	.LVL18:
 887              	.L45:
 128:Generated_Source\PSoC5/cyPm.c ****     {
 888              		.loc 1 128 0
 889 00ae 524B     		ldr	r3, .L69+20
 890 00b0 1B78     		ldrb	r3, [r3]	@ zero_extendqisi2
 891 00b2 13F0010F 		tst	r3, #1
 892 00b6 06D0     		beq	.L50
 131:Generated_Source\PSoC5/cyPm.c ****         CyPLL_OUT_Stop();
 893              		.loc 1 131 0
 894 00b8 0122     		movs	r2, #1
 895 00ba 4B4B     		ldr	r3, .L69+4
 896 00bc 83F83E20 		strb	r2, [r3, #62]
 132:Generated_Source\PSoC5/cyPm.c ****     }
 897              		.loc 1 132 0
 898 00c0 FFF7FEFF 		bl	CyPLL_OUT_Stop
 899              	.LVL19:
 900 00c4 03E0     		b	.L51
 901              	.L50:
 137:Generated_Source\PSoC5/cyPm.c ****     }
 902              		.loc 1 137 0
 903 00c6 0022     		movs	r2, #0
 904 00c8 474B     		ldr	r3, .L69+4
 905 00ca 83F83E20 		strb	r2, [r3, #62]
 906              	.L51:
 141:Generated_Source\PSoC5/cyPm.c **** 
 907              		.loc 1 141 0
 908 00ce 0420     		movs	r0, #4
 909 00d0 FFF7FEFF 		bl	CyIMO_SetFreq
 910              	.LVL20:
 144:Generated_Source\PSoC5/cyPm.c ****     {
 911              		.loc 1 144 0
 912 00d4 494B     		ldr	r3, .L69+24
 913 00d6 1B78     		ldrb	r3, [r3]	@ zero_extendqisi2
 914 00d8 13F0100F 		tst	r3, #16
 915 00dc 04D0     		beq	.L52
 147:Generated_Source\PSoC5/cyPm.c ****     }
 916              		.loc 1 147 0
 917 00de 0122     		movs	r2, #1
 918 00e0 414B     		ldr	r3, .L69+4
 919 00e2 83F83620 		strb	r2, [r3, #54]
ARM GAS  C:\Users\dmarsch\AppData\Local\Temp\ccqopW1v.s 			page 51


 920 00e6 08E0     		b	.L53
 921              	.L52:
 152:Generated_Source\PSoC5/cyPm.c **** 
 922              		.loc 1 152 0
 923 00e8 0020     		movs	r0, #0
 924 00ea 3F4B     		ldr	r3, .L69+4
 925 00ec 83F83600 		strb	r0, [r3, #54]
 155:Generated_Source\PSoC5/cyPm.c **** 
 926              		.loc 1 155 0
 927 00f0 FFF7FEFF 		bl	CyIMO_Start
 928              	.LVL21:
 158:Generated_Source\PSoC5/cyPm.c ****     }
 929              		.loc 1 158 0
 930 00f4 0620     		movs	r0, #6
 931 00f6 FFF7FEFF 		bl	CyDelayUs
 932              	.LVL22:
 933              	.L53:
 162:Generated_Source\PSoC5/cyPm.c ****     {
 934              		.loc 1 162 0
 935 00fa 3D4B     		ldr	r3, .L69+12
 936 00fc 1B78     		ldrb	r3, [r3]	@ zero_extendqisi2
 937 00fe 13F0200F 		tst	r3, #32
 938 0102 0FD0     		beq	.L54
 166:Generated_Source\PSoC5/cyPm.c **** 
 939              		.loc 1 166 0
 940 0104 4FF04023 		mov	r3, #1073758208
 941 0108 1B78     		ldrb	r3, [r3]	@ zero_extendqisi2
 165:Generated_Source\PSoC5/cyPm.c ****             (0u == (CY_PM_CLKDIST_CR_REG & CY_PM_CLKDIST_IMO2X_SRC)) ? CY_IMO_SOURCE_DSI : CY_IMO_S
 942              		.loc 1 165 0
 943 010a 13F0400F 		tst	r3, #64
 944 010e 01D1     		bne	.L66
 945 0110 0222     		movs	r2, #2
 946 0112 00E0     		b	.L55
 947              	.L66:
 948 0114 0122     		movs	r2, #1
 949              	.L55:
 165:Generated_Source\PSoC5/cyPm.c ****             (0u == (CY_PM_CLKDIST_CR_REG & CY_PM_CLKDIST_IMO2X_SRC)) ? CY_IMO_SOURCE_DSI : CY_IMO_S
 950              		.loc 1 165 0 is_stmt 0 discriminator 4
 951 0116 344B     		ldr	r3, .L69+4
 952 0118 83F83720 		strb	r2, [r3, #55]
 169:Generated_Source\PSoC5/cyPm.c ****     }
 953              		.loc 1 169 0 is_stmt 1 discriminator 4
 954 011c 0020     		movs	r0, #0
 955 011e FFF7FEFF 		bl	CyIMO_SetSource
 956              	.LVL23:
 957 0122 03E0     		b	.L56
 958              	.L54:
 174:Generated_Source\PSoC5/cyPm.c ****     }
 959              		.loc 1 174 0
 960 0124 0022     		movs	r2, #0
 961 0126 304B     		ldr	r3, .L69+4
 962 0128 83F83720 		strb	r2, [r3, #55]
 963              	.L56:
 178:Generated_Source\PSoC5/cyPm.c **** 
 964              		.loc 1 178 0
 965 012c 4FF04023 		mov	r3, #1073758208
 966 0130 1B78     		ldrb	r3, [r3]	@ zero_extendqisi2
ARM GAS  C:\Users\dmarsch\AppData\Local\Temp\ccqopW1v.s 			page 52


 967 0132 03F03003 		and	r3, r3, #48
 968 0136 2C4A     		ldr	r2, .L69+4
 969 0138 82F83830 		strb	r3, [r2, #56]
 181:Generated_Source\PSoC5/cyPm.c ****     {
 970              		.loc 1 181 0
 971 013c 2BB1     		cbz	r3, .L57
 184:Generated_Source\PSoC5/cyPm.c ****                                 CY_PM_CLKDIST_IMO_OUT_IMO;
 972              		.loc 1 184 0
 973 013e 4FF04022 		mov	r2, #1073758208
 974 0142 1378     		ldrb	r3, [r2]	@ zero_extendqisi2
 975 0144 03F0CF03 		and	r3, r3, #207
 976 0148 1370     		strb	r3, [r2]
 977              	.L57:
 189:Generated_Source\PSoC5/cyPm.c ****     {
 978              		.loc 1 189 0
 979 014a 294B     		ldr	r3, .L69+12
 980 014c 1B78     		ldrb	r3, [r3]	@ zero_extendqisi2
 981 014e 13F0100F 		tst	r3, #16
 982 0152 01D0     		beq	.L58
 191:Generated_Source\PSoC5/cyPm.c ****     }
 983              		.loc 1 191 0
 984 0154 FFF7FEFF 		bl	CyIMO_DisableDoubler
 985              	.LVL24:
 986              	.L58:
 195:Generated_Source\PSoC5/cyPm.c ****     if(CY_PM_DIV_BY_ONE != cyPmClockBackup.clkSyncDiv)
 987              		.loc 1 195 0
 988 0158 294B     		ldr	r3, .L69+28
 989 015a 1B78     		ldrb	r3, [r3]	@ zero_extendqisi2
 990 015c DBB2     		uxtb	r3, r3
 991 015e 224A     		ldr	r2, .L69+4
 992 0160 82F83A30 		strb	r3, [r2, #58]
 196:Generated_Source\PSoC5/cyPm.c ****     {
 993              		.loc 1 196 0
 994 0164 13B1     		cbz	r3, .L59
 198:Generated_Source\PSoC5/cyPm.c ****     }    /* No change if master clock divider is 1 */
 995              		.loc 1 198 0
 996 0166 0020     		movs	r0, #0
 997 0168 FFF7FEFF 		bl	CyMasterClk_SetDivider
 998              	.LVL25:
 999              	.L59:
 202:Generated_Source\PSoC5/cyPm.c ****     {
 1000              		.loc 1 202 0
 1001 016c 1E4B     		ldr	r3, .L69+4
 1002 016e 93F83230 		ldrb	r3, [r3, #50]	@ zero_extendqisi2
 1003 0172 13B1     		cbz	r3, .L60
 204:Generated_Source\PSoC5/cyPm.c ****     }    /* No change if master clock source is IMO */
 1004              		.loc 1 204 0
 1005 0174 0020     		movs	r0, #0
 1006 0176 FFF7FEFF 		bl	CyMasterClk_SetSource
 1007              	.LVL26:
 1008              	.L60:
 208:Generated_Source\PSoC5/cyPm.c ****     cyPmClockBackup.clkBusDiv |= CY_PM_CLK_BUS_LSB_DIV_REG;
 1009              		.loc 1 208 0
 1010 017a 224B     		ldr	r3, .L69+32
 1011 017c 1B78     		ldrb	r3, [r3]	@ zero_extendqisi2
 1012 017e 1B02     		lsls	r3, r3, #8
 1013 0180 194A     		ldr	r2, .L69+4
ARM GAS  C:\Users\dmarsch\AppData\Local\Temp\ccqopW1v.s 			page 53


 1014 0182 9387     		strh	r3, [r2, #60]	@ movhi
 209:Generated_Source\PSoC5/cyPm.c ****     if(CY_PM_BUS_CLK_DIV_BY_ONE != cyPmClockBackup.clkBusDiv)
 1015              		.loc 1 209 0
 1016 0184 2049     		ldr	r1, .L69+36
 1017 0186 0978     		ldrb	r1, [r1]	@ zero_extendqisi2
 1018 0188 0B43     		orrs	r3, r3, r1
 1019 018a 9387     		strh	r3, [r2, #60]	@ movhi
 210:Generated_Source\PSoC5/cyPm.c ****     {
 1020              		.loc 1 210 0
 1021 018c 13B1     		cbz	r3, .L61
 212:Generated_Source\PSoC5/cyPm.c ****     }    /* Do nothing if saved and actual values are equal */
 1022              		.loc 1 212 0
 1023 018e 0020     		movs	r0, #0
 1024 0190 FFF7FEFF 		bl	CyBusClk_SetDivider
 1025              	.LVL27:
 1026              	.L61:
 216:Generated_Source\PSoC5/cyPm.c **** 
 1027              		.loc 1 216 0
 1028 0194 164B     		ldr	r3, .L69+12
 1029 0196 1B78     		ldrb	r3, [r3]	@ zero_extendqisi2
 1030 0198 03F00703 		and	r3, r3, #7
 1031 019c 1B4A     		ldr	r2, .L69+40
 1032 019e D05C     		ldrb	r0, [r2, r3]	@ zero_extendqisi2
 1033 01a0 FFF7FEFF 		bl	CyFlash_SetWaitCycles
 1034              	.LVL28:
 219:Generated_Source\PSoC5/cyPm.c ****     {
 1035              		.loc 1 219 0
 1036 01a4 1A4B     		ldr	r3, .L69+44
 1037 01a6 1B78     		ldrb	r3, [r3]	@ zero_extendqisi2
 1038 01a8 13F0010F 		tst	r3, #1
 1039 01ac 06D0     		beq	.L62
 222:Generated_Source\PSoC5/cyPm.c ****         CyXTAL_Stop();
 1040              		.loc 1 222 0
 1041 01ae 0122     		movs	r2, #1
 1042 01b0 0D4B     		ldr	r3, .L69+4
 1043 01b2 83F83F20 		strb	r2, [r3, #63]
 223:Generated_Source\PSoC5/cyPm.c ****     }
 1044              		.loc 1 223 0
 1045 01b6 FFF7FEFF 		bl	CyXTAL_Stop
 1046              	.LVL29:
 1047 01ba 03E0     		b	.L63
 1048              	.L62:
 228:Generated_Source\PSoC5/cyPm.c ****     }
 1049              		.loc 1 228 0
 1050 01bc 0022     		movs	r2, #0
 1051 01be 0A4B     		ldr	r3, .L69+4
 1052 01c0 83F83F20 		strb	r2, [r3, #63]
 1053              	.L63:
 237:Generated_Source\PSoC5/cyPm.c ****     {
 1054              		.loc 1 237 0
 1055 01c4 134B     		ldr	r3, .L69+48
 1056 01c6 1B78     		ldrb	r3, [r3]	@ zero_extendqisi2
 1057 01c8 13F0040F 		tst	r3, #4
 1058 01cc 04D0     		beq	.L64
 239:Generated_Source\PSoC5/cyPm.c ****     }
 1059              		.loc 1 239 0
 1060 01ce 0122     		movs	r2, #1
ARM GAS  C:\Users\dmarsch\AppData\Local\Temp\ccqopW1v.s 			page 54


 1061 01d0 054B     		ldr	r3, .L69+4
 1062 01d2 83F84020 		strb	r2, [r3, #64]
 1063 01d6 10BD     		pop	{r4, pc}
 1064              	.L64:
 243:Generated_Source\PSoC5/cyPm.c ****     }
 1065              		.loc 1 243 0
 1066 01d8 0022     		movs	r2, #0
 1067 01da 034B     		ldr	r3, .L69+4
 1068 01dc 83F84020 		strb	r2, [r3, #64]
 1069 01e0 10BD     		pop	{r4, pc}
 1070              	.L70:
 1071 01e2 00BF     		.align	2
 1072              	.L69:
 1073 01e4 A1430040 		.word	1073759137
 1074 01e8 00000000 		.word	.LANCHOR0
 1075 01ec A2430040 		.word	1073759138
 1076 01f0 00420040 		.word	1073758720
 1077 01f4 05400040 		.word	1073758213
 1078 01f8 20420040 		.word	1073758752
 1079 01fc A0430040 		.word	1073759136
 1080 0200 04400040 		.word	1073758212
 1081 0204 07400040 		.word	1073758215
 1082 0208 06400040 		.word	1073758214
 1083 020c 00000000 		.word	.LANCHOR1
 1084 0210 10420040 		.word	1073758736
 1085 0214 0B400040 		.word	1073758219
 1086              		.cfi_endproc
 1087              	.LFE0:
 1088              		.size	CyPmSaveClocks, .-CyPmSaveClocks
 1089              		.section	.text.CyPmRestoreClocks,"ax",%progbits
 1090              		.align	2
 1091              		.global	CyPmRestoreClocks
 1092              		.thumb
 1093              		.thumb_func
 1094              		.type	CyPmRestoreClocks, %function
 1095              	CyPmRestoreClocks:
 1096              	.LFB1:
 269:Generated_Source\PSoC5/cyPm.c ****     cystatus status = CYRET_TIMEOUT;
 1097              		.loc 1 269 0
 1098              		.cfi_startproc
 1099              		@ args = 0, pretend = 0, frame = 8
 1100              		@ frame_needed = 0, uses_anonymous_args = 0
 1101 0000 10B5     		push	{r4, lr}
 1102              		.cfi_def_cfa_offset 8
 1103              		.cfi_offset 4, -8
 1104              		.cfi_offset 14, -4
 1105 0002 82B0     		sub	sp, sp, #8
 1106              		.cfi_def_cfa_offset 16
 1107              	.LVL30:
 276:Generated_Source\PSoC5/cyPm.c ****         CY_IMO_FREQ_12MHZ, CY_IMO_FREQ_6MHZ,  CY_IMO_FREQ_24MHZ, CY_IMO_FREQ_3MHZ,
 1108              		.loc 1 276 0
 1109 0004 854B     		ldr	r3, .L93
 1110 0006 53F8080F 		ldr	r0, [r3, #8]!	@ unaligned
 1111 000a 0090     		str	r0, [sp]	@ unaligned
 1112 000c 9A88     		ldrh	r2, [r3, #4]	@ unaligned
 1113 000e 9B79     		ldrb	r3, [r3, #6]	@ zero_extendqisi2
 1114 0010 ADF80420 		strh	r2, [sp, #4]	@ unaligned
ARM GAS  C:\Users\dmarsch\AppData\Local\Temp\ccqopW1v.s 			page 55


 1115 0014 8DF80630 		strb	r3, [sp, #6]
 281:Generated_Source\PSoC5/cyPm.c ****     {
 1116              		.loc 1 281 0
 1117 0018 814B     		ldr	r3, .L93+4
 1118 001a 93F84030 		ldrb	r3, [r3, #64]	@ zero_extendqisi2
 1119 001e 012B     		cmp	r3, #1
 1120 0020 10D1     		bne	.L72
 285:Generated_Source\PSoC5/cyPm.c **** 
 1121              		.loc 1 285 0
 1122 0022 804B     		ldr	r3, .L93+8
 1123 0024 1B78     		ldrb	r3, [r3]	@ zero_extendqisi2
 1124 0026 03F00703 		and	r3, r3, #7
 1125 002a 7C4A     		ldr	r2, .L93
 1126 002c D05C     		ldrb	r0, [r2, r3]	@ zero_extendqisi2
 284:Generated_Source\PSoC5/cyPm.c ****                         CY_PM_GET_CPU_FREQ_MHZ);
 1127              		.loc 1 284 0
 1128 002e 00EB8000 		add	r0, r0, r0, lsl #2
 1129 0032 C0EB0010 		rsb	r0, r0, r0, lsl #4
 1130 0036 FFF7FEFF 		bl	CyDelayCycles
 1131              	.LVL31:
 287:Generated_Source\PSoC5/cyPm.c ****     }
 1132              		.loc 1 287 0
 1133 003a 7B4A     		ldr	r2, .L93+12
 1134 003c 1378     		ldrb	r3, [r2]	@ zero_extendqisi2
 1135 003e 43F00403 		orr	r3, r3, #4
 1136 0042 1370     		strb	r3, [r2]
 1137              	.L72:
 291:Generated_Source\PSoC5/cyPm.c ****     {
 1138              		.loc 1 291 0
 1139 0044 764B     		ldr	r3, .L93+4
 1140 0046 93F83F30 		ldrb	r3, [r3, #63]	@ zero_extendqisi2
 1141 004a 012B     		cmp	r3, #1
 1142 004c 1AD1     		bne	.L73
 301:Generated_Source\PSoC5/cyPm.c **** 
 1143              		.loc 1 301 0
 1144 004e 0020     		movs	r0, #0
 1145 0050 FFF7FEFF 		bl	CyXTAL_Start
 1146              	.LVL32:
